{
  "contractName": "SalePlace",
  "abi": [
    {
      "constant": true,
      "inputs": [
        {
          "name": "",
          "type": "uint256"
        }
      ],
      "name": "items",
      "outputs": [
        {
          "name": "name",
          "type": "string"
        },
        {
          "name": "image",
          "type": "string"
        },
        {
          "name": "description",
          "type": "string"
        },
        {
          "name": "price",
          "type": "uint256"
        },
        {
          "name": "numberOfItems",
          "type": "uint256"
        },
        {
          "name": "timestamp",
          "type": "uint256"
        },
        {
          "name": "seller",
          "type": "address"
        }
      ],
      "payable": false,
      "stateMutability": "view",
      "type": "function"
    },
    {
      "inputs": [],
      "payable": false,
      "stateMutability": "nonpayable",
      "type": "constructor"
    },
    {
      "anonymous": false,
      "inputs": [
        {
          "indexed": false,
          "name": "seller",
          "type": "address"
        },
        {
          "indexed": false,
          "name": "itemId",
          "type": "uint256"
        },
        {
          "indexed": false,
          "name": "numberOfItems",
          "type": "uint256"
        },
        {
          "indexed": false,
          "name": "price",
          "type": "uint256"
        }
      ],
      "name": "LogAddItem",
      "type": "event"
    },
    {
      "anonymous": false,
      "inputs": [
        {
          "indexed": false,
          "name": "seller",
          "type": "address"
        },
        {
          "indexed": false,
          "name": "itemId",
          "type": "uint256"
        },
        {
          "indexed": false,
          "name": "numberOfItems",
          "type": "uint256"
        },
        {
          "indexed": false,
          "name": "price",
          "type": "uint256"
        }
      ],
      "name": "LogUpdateItem",
      "type": "event"
    },
    {
      "anonymous": false,
      "inputs": [
        {
          "indexed": false,
          "name": "buyer",
          "type": "address"
        },
        {
          "indexed": false,
          "name": "itemId",
          "type": "uint256"
        },
        {
          "indexed": false,
          "name": "numberOfItems",
          "type": "uint256"
        }
      ],
      "name": "LogBuyItem",
      "type": "event"
    },
    {
      "anonymous": false,
      "inputs": [
        {
          "indexed": false,
          "name": "seller",
          "type": "address"
        },
        {
          "indexed": false,
          "name": "itemId",
          "type": "uint256"
        }
      ],
      "name": "LogShipped",
      "type": "event"
    },
    {
      "anonymous": false,
      "inputs": [
        {
          "indexed": false,
          "name": "buyer",
          "type": "address"
        },
        {
          "indexed": false,
          "name": "itemId",
          "type": "uint256"
        }
      ],
      "name": "LogReceived",
      "type": "event"
    },
    {
      "anonymous": false,
      "inputs": [
        {
          "indexed": false,
          "name": "seller",
          "type": "address"
        },
        {
          "indexed": false,
          "name": "buyer",
          "type": "address"
        },
        {
          "indexed": false,
          "name": "itemId",
          "type": "uint256"
        },
        {
          "indexed": false,
          "name": "amountRefunded",
          "type": "uint256"
        }
      ],
      "name": "LogRefund",
      "type": "event"
    },
    {
      "constant": true,
      "inputs": [],
      "name": "getItemsSize",
      "outputs": [
        {
          "name": "",
          "type": "uint256"
        }
      ],
      "payable": false,
      "stateMutability": "view",
      "type": "function"
    },
    {
      "constant": true,
      "inputs": [
        {
          "name": "_itemId",
          "type": "uint256"
        }
      ],
      "name": "getItemsSoldSize",
      "outputs": [
        {
          "name": "",
          "type": "uint256"
        }
      ],
      "payable": false,
      "stateMutability": "view",
      "type": "function"
    },
    {
      "constant": true,
      "inputs": [
        {
          "name": "_itemId",
          "type": "uint256"
        }
      ],
      "name": "getItemPurchasedSize",
      "outputs": [
        {
          "name": "",
          "type": "uint256[]"
        }
      ],
      "payable": false,
      "stateMutability": "view",
      "type": "function"
    },
    {
      "constant": true,
      "inputs": [],
      "name": "getItemsPurchased",
      "outputs": [
        {
          "name": "",
          "type": "uint256[]"
        }
      ],
      "payable": false,
      "stateMutability": "view",
      "type": "function"
    },
    {
      "constant": true,
      "inputs": [
        {
          "name": "_itemId",
          "type": "uint256"
        },
        {
          "name": "_index",
          "type": "uint256"
        }
      ],
      "name": "getItemSold",
      "outputs": [
        {
          "name": "numberOfItems",
          "type": "uint256"
        },
        {
          "name": "status",
          "type": "uint8"
        },
        {
          "name": "timestamp",
          "type": "uint256"
        },
        {
          "name": "buyer",
          "type": "address"
        }
      ],
      "payable": false,
      "stateMutability": "view",
      "type": "function"
    },
    {
      "constant": true,
      "inputs": [
        {
          "name": "_itemId",
          "type": "uint256"
        }
      ],
      "name": "getItem",
      "outputs": [
        {
          "name": "id",
          "type": "uint256"
        },
        {
          "name": "name",
          "type": "string"
        },
        {
          "name": "image",
          "type": "string"
        },
        {
          "name": "description",
          "type": "string"
        },
        {
          "name": "price",
          "type": "uint256"
        },
        {
          "name": "numberOfItems",
          "type": "uint256"
        },
        {
          "name": "seller",
          "type": "address"
        },
        {
          "name": "timestamp",
          "type": "uint256"
        }
      ],
      "payable": false,
      "stateMutability": "view",
      "type": "function"
    },
    {
      "constant": true,
      "inputs": [
        {
          "name": "_itemId",
          "type": "uint256"
        },
        {
          "name": "_index",
          "type": "uint256"
        }
      ],
      "name": "getItemPurchased",
      "outputs": [
        {
          "name": "",
          "type": "uint256"
        },
        {
          "name": "",
          "type": "uint256"
        },
        {
          "name": "",
          "type": "uint256"
        },
        {
          "name": "",
          "type": "uint8"
        },
        {
          "name": "",
          "type": "address"
        },
        {
          "name": "",
          "type": "uint256"
        }
      ],
      "payable": false,
      "stateMutability": "view",
      "type": "function"
    },
    {
      "constant": false,
      "inputs": [
        {
          "name": "_name",
          "type": "string"
        },
        {
          "name": "_image",
          "type": "string"
        },
        {
          "name": "_description",
          "type": "string"
        },
        {
          "name": "_price",
          "type": "uint256"
        },
        {
          "name": "_numberOfItems",
          "type": "uint256"
        }
      ],
      "name": "addItem",
      "outputs": [
        {
          "name": "",
          "type": "bool"
        }
      ],
      "payable": false,
      "stateMutability": "nonpayable",
      "type": "function"
    },
    {
      "constant": false,
      "inputs": [
        {
          "name": "_itemId",
          "type": "uint256"
        },
        {
          "name": "_name",
          "type": "string"
        },
        {
          "name": "_image",
          "type": "string"
        },
        {
          "name": "_description",
          "type": "string"
        },
        {
          "name": "_price",
          "type": "uint256"
        },
        {
          "name": "_numberOfItems",
          "type": "uint256"
        }
      ],
      "name": "updateItem",
      "outputs": [
        {
          "name": "",
          "type": "bool"
        }
      ],
      "payable": false,
      "stateMutability": "nonpayable",
      "type": "function"
    },
    {
      "constant": false,
      "inputs": [
        {
          "name": "_itemId",
          "type": "uint256"
        },
        {
          "name": "_numberOfItems",
          "type": "uint256"
        }
      ],
      "name": "buyItem",
      "outputs": [
        {
          "name": "",
          "type": "bool"
        }
      ],
      "payable": true,
      "stateMutability": "payable",
      "type": "function"
    },
    {
      "constant": false,
      "inputs": [
        {
          "name": "_itemId",
          "type": "uint256"
        },
        {
          "name": "_buyer",
          "type": "address"
        },
        {
          "name": "_itemSoldIndex",
          "type": "uint256"
        }
      ],
      "name": "shipItem",
      "outputs": [
        {
          "name": "",
          "type": "bool"
        }
      ],
      "payable": false,
      "stateMutability": "nonpayable",
      "type": "function"
    },
    {
      "constant": false,
      "inputs": [
        {
          "name": "_itemId",
          "type": "uint256"
        },
        {
          "name": "_itemSoldIndex",
          "type": "uint256"
        }
      ],
      "name": "receiveItem",
      "outputs": [
        {
          "name": "",
          "type": "bool"
        }
      ],
      "payable": false,
      "stateMutability": "nonpayable",
      "type": "function"
    },
    {
      "constant": false,
      "inputs": [
        {
          "name": "_itemId",
          "type": "uint256"
        },
        {
          "name": "_buyer",
          "type": "address"
        },
        {
          "name": "_itemSoldIndex",
          "type": "uint256"
        }
      ],
      "name": "refundItem",
      "outputs": [
        {
          "name": "",
          "type": "bool"
        }
      ],
      "payable": true,
      "stateMutability": "payable",
      "type": "function"
    }
  ],
  "bytecode": "0x608060405234801561001057600080fd5b5060008081905550613142806100276000396000f3fe6080604052600436106100dd5760003560e01c80639979c0091161007f578063c046e5cb11610059578063c046e5cb146109d1578063c1a1d889146109fc578063f75b59f414610a79578063f7f9496014610ca5576100dd565b80639979c00914610750578063b50f60e7146107a0578063bfb231d2146107fd576100dd565b80632243b64e116100bb5780632243b64e146102745780633129e773146102c3578063327271e21461049e57806387d602631461052e576100dd565b806303944471146100e257806310ac05b81461015257806311aac0b414610208575b600080fd5b610138600480360360608110156100f857600080fd5b8101908080359060200190929190803573ffffffffffffffffffffffffffffffffffffffff16906020019092919080359060200190929190505050610d4d565b604051808215151515815260200191505060405180910390f35b34801561015e57600080fd5b506101956004803603604081101561017557600080fd5b81019080803590602001909291908035906020019092919050505061118d565b604051808781526020018681526020018581526020018460038111156101b757fe5b60ff1681526020018373ffffffffffffffffffffffffffffffffffffffff1673ffffffffffffffffffffffffffffffffffffffff168152602001828152602001965050505050505060405180910390f35b34801561021457600080fd5b5061021d6113bd565b6040518080602001828103825283818151815260200191508051906020019060200280838360005b83811015610260578082015181840152602081019050610245565b505050509050019250505060405180910390f35b34801561028057600080fd5b506102ad6004803603602081101561029757600080fd5b8101908080359060200190929190505050611452565b6040518082815260200191505060405180910390f35b3480156102cf57600080fd5b506102fc600480360360208110156102e657600080fd5b8101908080359060200190929190505050611472565b604051808981526020018060200180602001806020018881526020018781526020018673ffffffffffffffffffffffffffffffffffffffff1673ffffffffffffffffffffffffffffffffffffffff16815260200185815260200184810384528b818151815260200191508051906020019080838360005b8381101561038e578082015181840152602081019050610373565b50505050905090810190601f1680156103bb5780820380516001836020036101000a031916815260200191505b5084810383528a818151815260200191508051906020019080838360005b838110156103f45780820151818401526020810190506103d9565b50505050905090810190601f1680156104215780820380516001836020036101000a031916815260200191505b50848103825289818151815260200191508051906020019080838360005b8381101561045a57808201518184015260208101905061043f565b50505050905090810190601f1680156104875780820380516001836020036101000a031916815260200191505b509b50505050505050505050505060405180910390f35b3480156104aa57600080fd5b506104d7600480360360208110156104c157600080fd5b810190808035906020019092919050505061173c565b6040518080602001828103825283818151815260200191508051906020019060200280838360005b8381101561051a5780820151818401526020810190506104ff565b505050509050019250505060405180910390f35b34801561053a57600080fd5b50610736600480360360a081101561055157600080fd5b810190808035906020019064010000000081111561056e57600080fd5b82018360208201111561058057600080fd5b803590602001918460018302840111640100000000831117156105a257600080fd5b91908080601f016020809104026020016040519081016040528093929190818152602001838380828437600081840152601f19601f8201169050808301925050505050505091929192908035906020019064010000000081111561060557600080fd5b82018360208201111561061757600080fd5b8035906020019184600183028401116401000000008311171561063957600080fd5b91908080601f016020809104026020016040519081016040528093929190818152602001838380828437600081840152601f19601f8201169050808301925050505050505091929192908035906020019064010000000081111561069c57600080fd5b8201836020820111156106ae57600080fd5b803590602001918460018302840111640100000000831117156106d057600080fd5b91908080601f016020809104026020016040519081016040528093929190818152602001838380828437600081840152601f19601f8201169050808301925050505050505091929192908035906020019092919080359060200190929190505050611865565b604051808215151515815260200191505060405180910390f35b6107866004803603604081101561076657600080fd5b810190808035906020019092919080359060200190929190505050611b01565b604051808215151515815260200191505060405180910390f35b3480156107ac57600080fd5b506107e3600480360360408110156107c357600080fd5b810190808035906020019092919080359060200190929190505050611fd9565b604051808215151515815260200191505060405180910390f35b34801561080957600080fd5b506108366004803603602081101561082057600080fd5b8101908080359060200190929190505050612298565b604051808060200180602001806020018881526020018781526020018681526020018573ffffffffffffffffffffffffffffffffffffffff1673ffffffffffffffffffffffffffffffffffffffff16815260200184810384528b818151815260200191508051906020019080838360005b838110156108c25780820151818401526020810190506108a7565b50505050905090810190601f1680156108ef5780820380516001836020036101000a031916815260200191505b5084810383528a818151815260200191508051906020019080838360005b8381101561092857808201518184015260208101905061090d565b50505050905090810190601f1680156109555780820380516001836020036101000a031916815260200191505b50848103825289818151815260200191508051906020019080838360005b8381101561098e578082015181840152602081019050610973565b50505050905090810190601f1680156109bb5780820380516001836020036101000a031916815260200191505b509a505050505050505050505060405180910390f35b3480156109dd57600080fd5b506109e66124c2565b6040518082815260200191505060405180910390f35b348015610a0857600080fd5b50610a5f60048036036060811015610a1f57600080fd5b8101908080359060200190929190803573ffffffffffffffffffffffffffffffffffffffff169060200190929190803590602001909291905050506124cb565b604051808215151515815260200191505060405180910390f35b348015610a8557600080fd5b50610c8b600480360360c0811015610a9c57600080fd5b810190808035906020019092919080359060200190640100000000811115610ac357600080fd5b820183602082011115610ad557600080fd5b80359060200191846001830284011164010000000083111715610af757600080fd5b91908080601f016020809104026020016040519081016040528093929190818152602001838380828437600081840152601f19601f82011690508083019250505050505050919291929080359060200190640100000000811115610b5a57600080fd5b820183602082011115610b6c57600080fd5b80359060200191846001830284011164010000000083111715610b8e57600080fd5b91908080601f016020809104026020016040519081016040528093929190818152602001838380828437600081840152601f19601f82011690508083019250505050505050919291929080359060200190640100000000811115610bf157600080fd5b820183602082011115610c0357600080fd5b80359060200191846001830284011164010000000083111715610c2557600080fd5b91908080601f016020809104026020016040519081016040528093929190818152602001838380828437600081840152601f19601f820116905080830192505050505050509192919290803590602001909291908035906020019092919050505061274b565b604051808215151515815260200191505060405180910390f35b348015610cb157600080fd5b50610ce860048036036040811015610cc857600080fd5b810190808035906020019092919080359060200190929190505050612a1e565b60405180858152602001846003811115610cfe57fe5b60ff1681526020018381526020018273ffffffffffffffffffffffffffffffffffffffff1673ffffffffffffffffffffffffffffffffffffffff16815260200194505050505060405180910390f35b6000836000610d5d868686612cff565b905060006001600088815260200190815260200160002060030154600360008981526020019081526020016000208381548110610d9657fe5b90600052602060002090600402016000015402905080341015610e21576040517f08c379a00000000000000000000000000000000000000000000000000000000081526004018080602001828103825260198152602001807f416d6f756e74206c657373207468616e2072657175697265640000000000000081525060200191505060405180910390fd5b600360008881526020019081526020016000208281548110610e3f57fe5b906000526020600020906004020160030160009054906101000a900473ffffffffffffffffffffffffffffffffffffffff1673ffffffffffffffffffffffffffffffffffffffff166108fc829081150290604051600060405180830381858888f19350505050158015610eb6573d6000803e3d6000fd5b5060006001600089815260200190815260200160002060030154340390506000811115610f5b576001600089815260200190815260200160002060060160009054906101000a900473ffffffffffffffffffffffffffffffffffffffff1673ffffffffffffffffffffffffffffffffffffffff166108fc829081150290604051600060405180830381858888f19350505050158015610f59573d6000803e3d6000fd5b505b60038060008a81526020019081526020016000208481548110610f7a57fe5b906000526020600020906004020160010160006101000a81548160ff02191690836003811115610fa657fe5b02179055507f62a9ae364e817816b031ee6a540dfd2a5bc1a812aa233ef18af50afa55b2933e33600360008b81526020019081526020016000208581548110610feb57fe5b906000526020600020906004020160030160009054906101000a900473ffffffffffffffffffffffffffffffffffffffff168a85604051808573ffffffffffffffffffffffffffffffffffffffff1673ffffffffffffffffffffffffffffffffffffffff1681526020018473ffffffffffffffffffffffffffffffffffffffff1673ffffffffffffffffffffffffffffffffffffffff16815260200183815260200182815260200194505050505060405180910390a160019450505050600073ffffffffffffffffffffffffffffffffffffffff166001600083815260200190815260200160002060060160009054906101000a900473ffffffffffffffffffffffffffffffffffffffff1673ffffffffffffffffffffffffffffffffffffffff161415801561117c57503373ffffffffffffffffffffffffffffffffffffffff166001600083815260200190815260200160002060060160009054906101000a900473ffffffffffffffffffffffffffffffffffffffff1673ffffffffffffffffffffffffffffffffffffffff16145b61118557600080fd5b509392505050565b6000806000806000808761119f612eec565b600360008b815260200190815260200160002089815481106111bd57fe5b9060005260206000209060040201604051806080016040529081600082015481526020016001820160009054906101000a900460ff1660038111156111fe57fe5b600381111561120957fe5b8152602001600282015481526020016003820160009054906101000a900473ffffffffffffffffffffffffffffffffffffffff1673ffffffffffffffffffffffffffffffffffffffff1673ffffffffffffffffffffffffffffffffffffffff168152505090508989826000015183602001518460600151856040015181915097509750975097509750975050600080905060008090505b6003600084815260200190815260200160002080549050811015611353573373ffffffffffffffffffffffffffffffffffffffff166003600085815260200190815260200160002082815481106112f357fe5b906000526020600020906004020160030160009054906101000a900473ffffffffffffffffffffffffffffffffffffffff1673ffffffffffffffffffffffffffffffffffffffff16141561134657600191505b80806001019150506112a0565b5060011515811515146113b1576040517f08c379a00000000000000000000000000000000000000000000000000000000081526004018080602001828103825260248152602001806130ae6024913960400191505060405180910390fd5b50509295509295509295565b6060600260003373ffffffffffffffffffffffffffffffffffffffff1673ffffffffffffffffffffffffffffffffffffffff16815260200190815260200160002080548060200260200160405190810160405280929190818152602001828054801561144857602002820191906000526020600020905b815481526020019060010190808311611434575b5050505050905090565b600060036000838152602001908152602001600020805490509050919050565b60006060806060600080600080889750600160008a81526020019081526020016000206000018054600181600116156101000203166002900480601f01602080910402602001604051908101604052809291908181526020018280546001816001161561010002031660029004801561152c5780601f106115015761010080835404028352916020019161152c565b820191906000526020600020905b81548152906001019060200180831161150f57829003601f168201915b50505050509650600160008a81526020019081526020016000206001018054600181600116156101000203166002900480601f0160208091040260200160405190810160405280929190818152602001828054600181600116156101000203166002900480156115dd5780601f106115b2576101008083540402835291602001916115dd565b820191906000526020600020905b8154815290600101906020018083116115c057829003601f168201915b50505050509550600160008a8152602001908152602001600020600301549350600160008a81526020019081526020016000206002018054600181600116156101000203166002900480601f0160208091040260200160405190810160405280929190818152602001828054600181600116156101000203166002900480156116a75780601f1061167c576101008083540402835291602001916116a7565b820191906000526020600020905b81548152906001019060200180831161168a57829003601f168201915b50505050509450600160008a8152602001908152602001600020600401549250600160008a815260200190815260200160002060060160009054906101000a900473ffffffffffffffffffffffffffffffffffffffff169150600160008a8152602001908152602001600020600501549050878787878787878797509750975097509750975097509750919395975091939597565b606060008090506060600a6040519080825280602002602001820160405280156117755781602001602082028038833980820191505090505b50905060008090505b6003600086815260200190815260200160002080549050811080156117a35750600a83105b1561185a573373ffffffffffffffffffffffffffffffffffffffff166003600087815260200190815260200160002082815481106117dd57fe5b906000526020600020906004020160030160009054906101000a900473ffffffffffffffffffffffffffffffffffffffff1673ffffffffffffffffffffffffffffffffffffffff16141561184d578082848151811061183857fe5b60200260200101818152505082806001019350505b808060010191505061177e565b508092505050919050565b60008082116118bf576040517f08c379a00000000000000000000000000000000000000000000000000000000081526004018080602001828103825260238152602001806130d26023913960400191505060405180910390fd5b60008311611918576040517f08c379a00000000000000000000000000000000000000000000000000000000081526004018080602001828103825260228152602001806130f56022913960400191505060405180910390fd5b611920612f35565b8681600001819052508581602001819052508481604001819052508381606001818152505082816080018181525050338160c0019073ffffffffffffffffffffffffffffffffffffffff16908173ffffffffffffffffffffffffffffffffffffffff1681525050428160a001818152505080600160008054815260200190815260200160002060008201518160000190805190602001906119c2929190612f88565b5060208201518160010190805190602001906119df929190612f88565b5060408201518160020190805190602001906119fc929190612f88565b50606082015181600301556080820151816004015560a0820151816005015560c08201518160060160006101000a81548173ffffffffffffffffffffffffffffffffffffffff021916908373ffffffffffffffffffffffffffffffffffffffff1602179055509050507f0c3ed3a01367e3423eaaf955dcd12fa7efdbd2bb6b47c7d53c5fe12aa3a578fc336000548587604051808573ffffffffffffffffffffffffffffffffffffffff1673ffffffffffffffffffffffffffffffffffffffff16815260200184815260200183815260200182815260200194505050505060405180910390a16000808154809291906001019190505550600191505095945050505050565b6000828260008411611b5e576040517f08c379a00000000000000000000000000000000000000000000000000000000081526004018080602001828103825260238152602001806130d26023913960400191505060405180910390fd5b8360016000878152602001908152602001600020600401541015611bea576040517f08c379a000000000000000000000000000000000000000000000000000000000815260040180806020018281038252600c8152602001807f4f7574206f662073746f636b000000000000000000000000000000000000000081525060200191505060405180910390fd5b611bf2612eec565b600081602001906003811115611c0457fe5b90816003811115611c1157fe5b815250508481600001818152505033816060019073ffffffffffffffffffffffffffffffffffffffff16908173ffffffffffffffffffffffffffffffffffffffff1681525050428160400181815250506003600087815260200190815260200160002081908060018154018082558091505090600182039060005260206000209060040201600090919290919091506000820151816000015560208201518160010160006101000a81548160ff02191690836003811115611cce57fe5b02179055506040820151816002015560608201518160030160006101000a81548173ffffffffffffffffffffffffffffffffffffffff021916908373ffffffffffffffffffffffffffffffffffffffff160217905550505050600180600088815260200190815260200160002060040154036001600088815260200190815260200160002060040181905550600260003373ffffffffffffffffffffffffffffffffffffffff1673ffffffffffffffffffffffffffffffffffffffff1681526020019081526020016000208690806001815401808255809150509060018203906000526020600020016000909192909190915055507fe56e549ccaa711e7c800471bcd722ba07bfcb10da566b722c68255367a16dfb3338787604051808473ffffffffffffffffffffffffffffffffffffffff1673ffffffffffffffffffffffffffffffffffffffff168152602001838152602001828152602001935050505060405180910390a16001935050600060016000848152602001908152602001600020600301548202905080341015611ece576040517f08c379a00000000000000000000000000000000000000000000000000000000081526004018080602001828103825260198152602001807f416d6f756e74206c657373207468616e2072657175697265640000000000000081525060200191505060405180910390fd5b60006001600085815260200190815260200160002060030154340390506000811115611f3c573373ffffffffffffffffffffffffffffffffffffffff166108fc829081150290604051600060405180830381858888f19350505050158015611f3a573d6000803e3d6000fd5b505b6001600085815260200190815260200160002060060160009054906101000a900473ffffffffffffffffffffffffffffffffffffffff1673ffffffffffffffffffffffffffffffffffffffff166108fc60016000878152602001908152602001600020600301549081150290604051600060405180830381858888f19350505050158015611fce573d6000803e3d6000fd5b505050505092915050565b6000826000611fe9853386612cff565b905060016003811115611ff857fe5b60036000878152602001908152602001600020828154811061201657fe5b906000526020600020906004020160010160009054906101000a900460ff16600381111561204057fe5b146120b3576040517f08c379a00000000000000000000000000000000000000000000000000000000081526004018080602001828103825260148152602001807f4974656d206e6f7420796574207368697070656400000000000000000000000081525060200191505060405180910390fd5b60026003600087815260200190815260200160002082815481106120d357fe5b906000526020600020906004020160010160006101000a81548160ff021916908360038111156120ff57fe5b02179055507f60e4c1ac84c9e2c4c0aa82b86b3b1ddf0b1b73fbbeb74c8bc8f8f06041ccfdf63386604051808373ffffffffffffffffffffffffffffffffffffffff1673ffffffffffffffffffffffffffffffffffffffff1681526020018281526020019250505060405180910390a16001925050600080905060008090505b6003600084815260200190815260200160002080549050811015612232573373ffffffffffffffffffffffffffffffffffffffff166003600085815260200190815260200160002082815481106121d257fe5b906000526020600020906004020160030160009054906101000a900473ffffffffffffffffffffffffffffffffffffffff1673ffffffffffffffffffffffffffffffffffffffff16141561222557600191505b808060010191505061217f565b506001151581151514612290576040517f08c379a00000000000000000000000000000000000000000000000000000000081526004018080602001828103825260248152602001806130ae6024913960400191505060405180910390fd5b505092915050565b6001602052806000526040600020600091509050806000018054600181600116156101000203166002900480601f0160208091040260200160405190810160405280929190818152602001828054600181600116156101000203166002900480156123445780601f1061231957610100808354040283529160200191612344565b820191906000526020600020905b81548152906001019060200180831161232757829003601f168201915b505050505090806001018054600181600116156101000203166002900480601f0160208091040260200160405190810160405280929190818152602001828054600181600116156101000203166002900480156123e25780601f106123b7576101008083540402835291602001916123e2565b820191906000526020600020905b8154815290600101906020018083116123c557829003601f168201915b505050505090806002018054600181600116156101000203166002900480601f0160208091040260200160405190810160405280929190818152602001828054600181600116156101000203166002900480156124805780601f1061245557610100808354040283529160200191612480565b820191906000526020600020905b81548152906001019060200180831161246357829003601f168201915b5050505050908060030154908060040154908060050154908060060160009054906101000a900473ffffffffffffffffffffffffffffffffffffffff16905087565b60008054905090565b60008360006124db868686612cff565b9050600060038111156124ea57fe5b60036000888152602001908152602001600020828154811061250857fe5b906000526020600020906004020160010160009054906101000a900460ff16600381111561253257fe5b146125a5576040517f08c379a00000000000000000000000000000000000000000000000000000000081526004018080602001828103825260148152602001807f4974656d20616c7265616479207368697070656400000000000000000000000081525060200191505060405180910390fd5b60016003600088815260200190815260200160002082815481106125c557fe5b906000526020600020906004020160010160006101000a81548160ff021916908360038111156125f157fe5b02179055507f16199cdfa42a8edbc4bda0327806f66dc67ad1521742540f5c192b986e254ac73387604051808373ffffffffffffffffffffffffffffffffffffffff1673ffffffffffffffffffffffffffffffffffffffff1681526020018281526020019250505060405180910390a16001925050600073ffffffffffffffffffffffffffffffffffffffff166001600083815260200190815260200160002060060160009054906101000a900473ffffffffffffffffffffffffffffffffffffffff1673ffffffffffffffffffffffffffffffffffffffff161415801561273a57503373ffffffffffffffffffffffffffffffffffffffff166001600083815260200190815260200160002060060160009054906101000a900473ffffffffffffffffffffffffffffffffffffffff1673ffffffffffffffffffffffffffffffffffffffff16145b61274357600080fd5b509392505050565b600086600083116127a7576040517f08c379a00000000000000000000000000000000000000000000000000000000081526004018080602001828103825260238152602001806130d26023913960400191505060405180910390fd5b60008411612800576040517f08c379a00000000000000000000000000000000000000000000000000000000081526004018080602001828103825260228152602001806130f56022913960400191505060405180910390fd5b86600160008a8152602001908152602001600020600001908051906020019061282a929190613008565b5085600160008a81526020019081526020016000206001019080519060200190612855929190613008565b5084600160008a81526020019081526020016000206002019080519060200190612880929190613008565b5083600160008a81526020019081526020016000206003018190555082600160008a8152602001908152602001600020600401819055507f1af3b935cf3620f1b03e956694a76e6a4aedbf4cccbd01898c45b4b7a89010e233898587604051808573ffffffffffffffffffffffffffffffffffffffff1673ffffffffffffffffffffffffffffffffffffffff16815260200184815260200183815260200182815260200194505050505060405180910390a160019150600073ffffffffffffffffffffffffffffffffffffffff166001600083815260200190815260200160002060060160009054906101000a900473ffffffffffffffffffffffffffffffffffffffff1673ffffffffffffffffffffffffffffffffffffffff1614158015612a0a57503373ffffffffffffffffffffffffffffffffffffffff166001600083815260200190815260200160002060060160009054906101000a900473ffffffffffffffffffffffffffffffffffffffff1673ffffffffffffffffffffffffffffffffffffffff16145b612a1357600080fd5b509695505050505050565b60008060008085600073ffffffffffffffffffffffffffffffffffffffff16600360008981526020019081526020016000208781548110612a5b57fe5b906000526020600020906004020160030160009054906101000a900473ffffffffffffffffffffffffffffffffffffffff1673ffffffffffffffffffffffffffffffffffffffff161415612b17576040517f08c379a00000000000000000000000000000000000000000000000000000000081526004018080602001828103825260128152602001807f4e6f206974656d20746f20646973706c6179000000000000000000000000000081525060200191505060405180910390fd5b600360008881526020019081526020016000208681548110612b3557fe5b9060005260206000209060040201600001549450600360008881526020019081526020016000208681548110612b6757fe5b906000526020600020906004020160010160009054906101000a900460ff169350600360008881526020019081526020016000208681548110612ba657fe5b9060005260206000209060040201600201549250600360008881526020019081526020016000208681548110612bd857fe5b906000526020600020906004020160030160009054906101000a900473ffffffffffffffffffffffffffffffffffffffff169150848484849450945094509450600073ffffffffffffffffffffffffffffffffffffffff166001600083815260200190815260200160002060060160009054906101000a900473ffffffffffffffffffffffffffffffffffffffff1673ffffffffffffffffffffffffffffffffffffffff1614158015612cec57503373ffffffffffffffffffffffffffffffffffffffff166001600083815260200190815260200160002060060160009054906101000a900473ffffffffffffffffffffffffffffffffffffffff1673ffffffffffffffffffffffffffffffffffffffff16145b612cf557600080fd5b5092959194509250565b60008073ffffffffffffffffffffffffffffffffffffffff16600360008681526020019081526020016000208381548110612d3657fe5b906000526020600020906004020160030160009054906101000a900473ffffffffffffffffffffffffffffffffffffffff1673ffffffffffffffffffffffffffffffffffffffff161415612df2576040517f08c379a00000000000000000000000000000000000000000000000000000000081526004018080602001828103825260138152602001807f4974656d20736f6c64206e6f7420666f756e640000000000000000000000000081525060200191505060405180910390fd5b8273ffffffffffffffffffffffffffffffffffffffff16600360008681526020019081526020016000208381548110612e2757fe5b906000526020600020906004020160030160009054906101000a900473ffffffffffffffffffffffffffffffffffffffff1673ffffffffffffffffffffffffffffffffffffffff1614612ee2576040517f08c379a00000000000000000000000000000000000000000000000000000000081526004018080602001828103825260178152602001807f4e6f74206f776e6572206f6620746865207265636f726400000000000000000081525060200191505060405180910390fd5b8190509392505050565b60405180608001604052806000815260200160006003811115612f0b57fe5b815260200160008152602001600073ffffffffffffffffffffffffffffffffffffffff1681525090565b6040518060e00160405280606081526020016060815260200160608152602001600081526020016000815260200160008152602001600073ffffffffffffffffffffffffffffffffffffffff1681525090565b828054600181600116156101000203166002900490600052602060002090601f016020900481019282601f10612fc957805160ff1916838001178555612ff7565b82800160010185558215612ff7579182015b82811115612ff6578251825591602001919060010190612fdb565b5b5090506130049190613088565b5090565b828054600181600116156101000203166002900490600052602060002090601f016020900481019282601f1061304957805160ff1916838001178555613077565b82800160010185558215613077579182015b8281111561307657825182559160200191906001019061305b565b5b5090506130849190613088565b5090565b6130aa91905b808211156130a657600081600090555060010161308e565b5090565b9056fe73686f756c64206265206120627579657220746f2070726f6365737320666f72776172644e756d626572206f66206974656d732073686f756c642062652061746c6561737420315072696365206f66206974656d732063616e6e6f742062652061746c656173742030a165627a7a723058201af99558ff5bb002969a446ab20fa7edf39a9cac82fa878a488c323f4f0c07f30029",
  "source": "pragma solidity ^0.5.0;\n\n/// @title Sale Place Solidity Contract\n/// @author Larry A. Gardner\n/// @notice You can use this contract for selling an item with mutiple users\n/// @dev All function calls are currently implemented without side effects\ncontract SalePlace {\n\n  /* A variable to track the item count/sequence */\n  uint itemId;\n\n  /* Staus Enum used bu ItemSold ,with 4 states\n    Processing\n    Shipped\n    Received\n    Refunded\n  */\n  enum Status { Processing ,Shipped, Received, Refunded }\n\n  struct Item {\n    string name;\n    string image;\n    string description;\n    uint price;\n    uint numberOfItems;\n    uint timestamp;\n    address payable seller;\n  }\n\n  struct ItemSold{\n    uint numberOfItemsSold;\n    Status status;\n    uint timestamp;\n    address payable buyer;\n  }\n\n  mapping (uint => Item) public items;\n  mapping (address => uint[]) private itemsPurcahsed;\n  mapping (uint => ItemSold[]) private itemsSold;\n\n  constructor() public{\n    itemId = 0;\n  }\n\n  modifier isSeller(uint _itemId){\n    _;\n    require(items[_itemId].seller!= address(0) && items[_itemId].seller == msg.sender);\n  }\n\n  modifier isBuyer(uint _itemId){\n    _;\n    bool havePurchase = false;\n    for( uint index = 0 ; index < itemsSold[_itemId].length; index++){\n        if(itemsSold[_itemId][index].buyer == msg.sender){\n            havePurchase = true;\n        }\n    }\n    require(havePurchase == true, \"should be a buyer to process forward\");\n  }\n\n\n  /// @notice Trade logic called when items are purchased by a user\n  /// @param _itemId id of the item to fetch \n  /// @param _numberOfItems number of the items purchased\n  /// @dev the function will trade amount from buyer to seller , also any left over amount will be transfered to buyer itself\n  modifier trade (uint _itemId, uint _numberOfItems)  {\n    _;\n    uint totalAmount = _numberOfItems * items[_itemId].price;\n    require(msg.value >= totalAmount , 'Amount less than required');\n\n    uint amountToRefund = msg.value - items[_itemId].price;\n    if(amountToRefund>0){\n      msg.sender.transfer(amountToRefund); // transfer left over to buyer\n    }\n    items[_itemId].seller.transfer(items[_itemId].price); // send the money to seller\n  }\n\n  event LogAddItem(address seller, uint itemId , uint numberOfItems, uint price);\n  event LogUpdateItem(address seller, uint itemId , uint numberOfItems, uint price);\n  event LogBuyItem(address buyer, uint itemId , uint numberOfItems);\n  event LogShipped(address seller, uint itemId);\n  event LogReceived(address buyer, uint itemId);\n  event LogRefund(address seller, address buyer, uint itemId, uint amountRefunded);\n\n  /// @notice Get items size of the mapping\n  /// @return total items present\n  function getItemsSize()\n  public\n  view returns (uint) {\n    return itemId;\n  }\n  \n  /// @notice Get itemsSold size of the mapping\n  /// @return total itemsSold present\n  function getItemsSoldSize(uint _itemId)\n  public\n  view returns (uint) {\n    return  itemsSold[_itemId].length;\n  }\n\n  /// @notice Get itemsSold index of the purchasedItem\n  /// @return array of indexs\n  function getItemPurchasedSize(uint _itemId)\n  public\n  view returns (uint[] memory) {\n    uint pushIndex = 0;\n    uint[] memory purcahseIndex = new uint[](10);\n    for( uint index = 0 ; index < itemsSold[_itemId].length && pushIndex < 10; index++){\n        if(itemsSold[_itemId][index].buyer == msg.sender){\n            purcahseIndex[pushIndex] = index;\n            pushIndex++;\n        }\n    }\n    return purcahseIndex;\n  }\n\n  /// @notice Get list of item id's purcahsed by user\n  /// @return array of itemIds\n  function getItemsPurchased()\n  public\n  view returns (uint[] memory) {\n    return itemsPurcahsed[msg.sender];\n  }\n\n  /// @notice Get list of item status and buyer address sold for the respective item\n  /// @return array of itemIds\n  function getItemSold(uint _itemId, uint _index)\n  public\n  isSeller(_itemId)\n  view returns (uint numberOfItems,Status status, uint timestamp, address buyer){\n    require(itemsSold[_itemId][_index].buyer!= address(0) , \"No item to display\");\n    numberOfItems = itemsSold[_itemId][_index].numberOfItemsSold;\n    status = itemsSold[_itemId][_index].status;\n    timestamp = itemsSold[_itemId][_index].timestamp;\n    buyer = itemsSold[_itemId][_index].buyer;\n    return (numberOfItems,status, timestamp, buyer);\n  }\n\n  /// @notice Get am item based on item id\n  /// @param _itemId id of the item to fetch\n  /// @return id, name, image , description , price , number of Items left, timestamp and seller address of the item\n  function getItem(uint _itemId)\n  public\n  view returns (uint id, string memory name, string memory image, string memory description, uint price, uint numberOfItems, address seller, uint timestamp) {\n    id = _itemId;\n    name = items[_itemId].name;\n    image = items[_itemId].image;\n    price = items[_itemId].price;\n    description = items[_itemId].description;\n    numberOfItems = items[_itemId].numberOfItems;\n    seller = items[_itemId].seller;\n    timestamp = items[_itemId].timestamp;\n    return (id, name, image, description, price, numberOfItems, seller, timestamp);\n  }\n\n  /// @notice Get item purcahsed details of the request user mapping for given item\n  /// @param _itemId id of the item to fetch \n  /// @param _index index of the purcahse item to fetch \n  /// @return itemId, number of Items sold , status,timestamp and buyer address\n  function getItemPurchased(uint _itemId, uint _index)\n  public \n  view \n  isBuyer(_itemId)\n  returns (uint , uint, uint , Status, address, uint) {\n    ItemSold memory itemSold = itemsSold[_itemId][_index];\n    return (_itemId, _index, itemSold.numberOfItemsSold, itemSold.status, itemSold.buyer, itemSold.timestamp);\n  }\n  \n  /// @notice Get item sold array index for a given item id and buyer address\n  /// @param _itemId id of the item to fetch \n  /// @param _buyer address of the buyer \n  /// @return itemId, number of Items sold , status and buyer address\n  function getItemSoldIndex(uint _itemId, address _buyer, uint _itemSoldIndex)\n  private\n  view\n  returns(uint){\n    require(itemsSold[_itemId][_itemSoldIndex].buyer != address(0), 'Item sold not found');\n\n    require(itemsSold[_itemId][_itemSoldIndex].buyer == _buyer, 'Not owner of the record');    \n    return _itemSoldIndex;\n  }\n\n  /// @notice Add item \n  /// @dev Emits LogAddItem\n  /// @param _name name of the item\n  /// @param _image image url of the item\n  /// @param _description description of the item\n  /// @param _price price of the item\n  /// @param _numberOfItems number of the item to sell\n  /// @return true if item is created\n  function addItem(string memory _name, string memory _image, string memory _description, uint _price, uint _numberOfItems)\n  public\n  returns(bool){\n    require(_numberOfItems>0 , 'Number of items should be atleast 1');\n    require(_price>0 , 'Price of items cannot be atleast 0');\n    Item memory newItem;\n    newItem.name = _name;\n    newItem.image = _image;\n    newItem.description = _description;\n    newItem.price = _price;\n    newItem.numberOfItems = _numberOfItems;\n    newItem.seller = msg.sender;\n    newItem.timestamp = now;\n    items[itemId] = newItem;\n    emit LogAddItem(msg.sender, itemId, _numberOfItems, _price);\n    itemId++;\n    return true;\n  }\n\n  /// @notice Update item \n  /// @dev Emits LogUpdateItem\n  /// @dev Need to be seller of the item to update\n  /// @param _itemId id of the item\n  /// @param _name name of the item\n  /// @param _image image url of the item\n  /// @param _description description of the item\n  /// @param _price price of the item\n  /// @param _numberOfItems number of the item to sell\n  /// @return true if item is udpated\n  function updateItem(uint _itemId, string memory _name, string memory _image, string memory _description, uint _price, uint _numberOfItems)\n  public\n  isSeller(_itemId)\n  returns(bool){\n    require(_numberOfItems>0 , 'Number of items should be atleast 1');\n    require(_price>0 , 'Price of items cannot be atleast 0');\n    items[_itemId].name = _name;\n    items[_itemId].image = _image;\n    items[_itemId].description = _description;\n    items[_itemId].price = _price;\n    items[_itemId].numberOfItems = _numberOfItems;\n    emit LogUpdateItem(msg.sender, _itemId, _numberOfItems, _price);\n    return true;\n  }\n\n  /// @notice Function to buy items\n  /// @dev Emits LogBuyItem\n  /// @dev Amount paid more than required will be refunded\n  /// @param _itemId id of the item\n  /// @param _numberOfItems number of the item to buy\n  /// @return true if items are bought\n  function buyItem(uint _itemId, uint _numberOfItems) \n  public \n  payable\n  trade(_itemId,_numberOfItems)\n  returns(bool){\n    require(_numberOfItems>0 , 'Number of items should be atleast 1');\n    require(items[_itemId].numberOfItems >= _numberOfItems, 'Out of stock');\n\n    ItemSold memory newItemSold;\n    newItemSold.status = Status.Processing;\n    newItemSold.numberOfItemsSold = _numberOfItems;\n    newItemSold.buyer = msg.sender;\n    newItemSold.timestamp = now;\n    itemsSold[_itemId].push(newItemSold);\n\n    items[_itemId].numberOfItems = items[_itemId].numberOfItems - 1;\n\n    itemsPurcahsed[msg.sender].push(_itemId);\n\n    emit LogBuyItem(msg.sender, _itemId , _numberOfItems);\n\n    return true;\n  }\n\n  /// @notice Function called by seller to set item status to shipped\n  /// @dev Emits LogShipped\n  /// @dev Needs to be seller of the itemto access the function\n  /// @param _itemId id of the item\n  /// @param _buyer address of buyer\n  /// @return true if items is udpated to shipped status\n  function shipItem(uint _itemId, address _buyer, uint _itemSoldIndex)\n  public\n  isSeller(_itemId)\n  returns(bool){\n    uint itemIndex = getItemSoldIndex(_itemId, _buyer, _itemSoldIndex);\n    require(itemsSold[_itemId][itemIndex].status == Status.Processing , 'Item already shipped');\n    itemsSold[_itemId][itemIndex].status = Status.Shipped;\n    emit LogShipped(msg.sender, _itemId);\n    return true;\n  }\n\n  /// @notice Function called by buyer to set item status to received\n  /// @dev Emits LogReceived\n  /// @dev Needs to be buyer of the item to access the function\n  /// @param _itemId id of the item\n  /// @return true if items is udpated to received status\n  function receiveItem(uint _itemId, uint _itemSoldIndex)\n  public\n  isBuyer(_itemId)\n  returns(bool){\n    uint itemIndex = getItemSoldIndex(_itemId, msg.sender, _itemSoldIndex);\n    require(itemsSold[_itemId][itemIndex].status == Status.Shipped , 'Item not yet shipped');\n    itemsSold[_itemId][itemIndex].status = Status.Received;\n    emit LogReceived(msg.sender, _itemId);\n    return true;\n  }\n\n  /// @notice Function called by seller to refund for the item\n  /// @dev Emits LogRefund\n  /// @dev Needs to be seller of the item to access the function\n  /// @dev Amount is transfered from seller account to buyer account , any left over paid will transfered to the seller itself\n  /// @param _itemId id of the item\n  /// @param _buyer address of buyer\n  /// @return true if refund is successfull\n  function refundItem(uint _itemId, address _buyer, uint _itemSoldIndex)\n  public \n  payable\n  isSeller(_itemId)\n  returns(bool){\n    uint itemIndex = getItemSoldIndex(_itemId, _buyer,_itemSoldIndex);\n    uint totalAmount = itemsSold[_itemId][itemIndex].numberOfItemsSold * items[_itemId].price;\n    require(msg.value >= totalAmount , 'Amount less than required');\n    \n    itemsSold[_itemId][itemIndex].buyer.transfer(totalAmount); // transfer to buyer\n\n    uint amountLeftOver = msg.value - items[_itemId].price;\n    if(amountLeftOver>0){\n      items[_itemId].seller.transfer(amountLeftOver); // transfer any left over to seller\n    }\n    itemsSold[_itemId][itemIndex].status = Status.Refunded;\n    emit LogRefund(msg.sender, itemsSold[_itemId][itemIndex].buyer, _itemId, totalAmount);\n    return true;\n  }\n}",
  "sourcePath": "/home/qbuser/Desktop/Projects/temp/salePlace/contracts/SalePlace.sol",
  "compiler": {
    "name": "solc",
    "version": "0.5.8+commit.23d335f2.Emscripten.clang"
  },
  "schemaVersion": "3.0.11",
  "updatedAt": "2019-07-16T13:42:48.618Z",
  "devdoc": {
    "author": "Larry A. Gardner",
    "details": "All function calls are currently implemented without side effects",
    "methods": {
      "addItem(string,string,string,uint256,uint256)": {
        "details": "Emits LogAddItem",
        "params": {
          "_description": "description of the item",
          "_image": "image url of the item",
          "_name": "name of the item",
          "_numberOfItems": "number of the item to sell",
          "_price": "price of the item"
        },
        "return": "true if item is created"
      },
      "buyItem(uint256,uint256)": {
        "details": "Emits LogBuyItemAmount paid more than required will be refunded",
        "params": {
          "_itemId": "id of the item",
          "_numberOfItems": "number of the item to buy"
        },
        "return": "true if items are bought"
      },
      "getItem(uint256)": {
        "params": {
          "_itemId": "id of the item to fetch"
        },
        "return": "id, name, image , description , price , number of Items left, timestamp and seller address of the item"
      },
      "getItemPurchased(uint256,uint256)": {
        "params": {
          "_index": "index of the purcahse item to fetch ",
          "_itemId": "id of the item to fetch "
        },
        "return": "itemId, number of Items sold , status,timestamp and buyer address"
      },
      "getItemPurchasedSize(uint256)": {
        "return": "array of indexs"
      },
      "getItemSold(uint256,uint256)": {
        "return": "array of itemIds"
      },
      "getItemsPurchased()": {
        "return": "array of itemIds"
      },
      "getItemsSize()": {
        "return": "total items present"
      },
      "getItemsSoldSize(uint256)": {
        "return": "total itemsSold present"
      },
      "receiveItem(uint256,uint256)": {
        "details": "Emits LogReceivedNeeds to be buyer of the item to access the function",
        "params": {
          "_itemId": "id of the item"
        },
        "return": "true if items is udpated to received status"
      },
      "refundItem(uint256,address,uint256)": {
        "details": "Emits LogRefundNeeds to be seller of the item to access the functionAmount is transfered from seller account to buyer account , any left over paid will transfered to the seller itself",
        "params": {
          "_buyer": "address of buyer",
          "_itemId": "id of the item"
        },
        "return": "true if refund is successfull"
      },
      "shipItem(uint256,address,uint256)": {
        "details": "Emits LogShippedNeeds to be seller of the itemto access the function",
        "params": {
          "_buyer": "address of buyer",
          "_itemId": "id of the item"
        },
        "return": "true if items is udpated to shipped status"
      },
      "updateItem(uint256,string,string,string,uint256,uint256)": {
        "details": "Emits LogUpdateItemNeed to be seller of the item to update",
        "params": {
          "_description": "description of the item",
          "_image": "image url of the item",
          "_itemId": "id of the item",
          "_name": "name of the item",
          "_numberOfItems": "number of the item to sell",
          "_price": "price of the item"
        },
        "return": "true if item is udpated"
      }
    },
    "title": "Sale Place Solidity Contract"
  },
  "userdoc": {
    "methods": {
      "addItem(string,string,string,uint256,uint256)": {
        "notice": "Add item "
      },
      "buyItem(uint256,uint256)": {
        "notice": "Function to buy items"
      },
      "getItem(uint256)": {
        "notice": "Get am item based on item id"
      },
      "getItemPurchased(uint256,uint256)": {
        "notice": "Get item purcahsed details of the request user mapping for given item"
      },
      "getItemPurchasedSize(uint256)": {
        "notice": "Get itemsSold index of the purchasedItem"
      },
      "getItemSold(uint256,uint256)": {
        "notice": "Get list of item status and buyer address sold for the respective item"
      },
      "getItemsPurchased()": {
        "notice": "Get list of item id's purcahsed by user"
      },
      "getItemsSize()": {
        "notice": "Get items size of the mapping"
      },
      "getItemsSoldSize(uint256)": {
        "notice": "Get itemsSold size of the mapping"
      },
      "receiveItem(uint256,uint256)": {
        "notice": "Function called by buyer to set item status to received"
      },
      "refundItem(uint256,address,uint256)": {
        "notice": "Function called by seller to refund for the item"
      },
      "shipItem(uint256,address,uint256)": {
        "notice": "Function called by seller to set item status to shipped"
      },
      "updateItem(uint256,string,string,string,uint256,uint256)": {
        "notice": "Update item "
      }
    },
    "notice": "You can use this contract for selling an item with mutiple users"
  }
}