{
  "contractName": "SalePlace",
  "abi": [
    {
      "anonymous": false,
      "inputs": [
        {
          "indexed": false,
          "name": "seller",
          "type": "address"
        },
        {
          "indexed": false,
          "name": "itemId",
          "type": "string"
        },
        {
          "indexed": false,
          "name": "numberOfItems",
          "type": "uint256"
        },
        {
          "indexed": false,
          "name": "price",
          "type": "uint256"
        }
      ],
      "name": "LogAddItem",
      "type": "event"
    },
    {
      "anonymous": false,
      "inputs": [
        {
          "indexed": false,
          "name": "seller",
          "type": "address"
        },
        {
          "indexed": false,
          "name": "itemId",
          "type": "string"
        },
        {
          "indexed": false,
          "name": "numberOfItems",
          "type": "uint256"
        },
        {
          "indexed": false,
          "name": "price",
          "type": "uint256"
        }
      ],
      "name": "LogUpdateItem",
      "type": "event"
    },
    {
      "anonymous": false,
      "inputs": [
        {
          "indexed": false,
          "name": "buyer",
          "type": "address"
        },
        {
          "indexed": false,
          "name": "invoiceId",
          "type": "string"
        },
        {
          "indexed": false,
          "name": "numberOfItems",
          "type": "uint256"
        }
      ],
      "name": "LogBuyItem",
      "type": "event"
    },
    {
      "anonymous": false,
      "inputs": [
        {
          "indexed": false,
          "name": "seller",
          "type": "address"
        },
        {
          "indexed": false,
          "name": "invoiceId",
          "type": "string"
        },
        {
          "indexed": false,
          "name": "itemId",
          "type": "string"
        }
      ],
      "name": "LogShipped",
      "type": "event"
    },
    {
      "anonymous": false,
      "inputs": [
        {
          "indexed": false,
          "name": "buyer",
          "type": "address"
        },
        {
          "indexed": false,
          "name": "invoiceId",
          "type": "string"
        },
        {
          "indexed": false,
          "name": "itemId",
          "type": "string"
        }
      ],
      "name": "LogReceived",
      "type": "event"
    },
    {
      "anonymous": false,
      "inputs": [
        {
          "indexed": false,
          "name": "seller",
          "type": "address"
        },
        {
          "indexed": false,
          "name": "buyer",
          "type": "address"
        },
        {
          "indexed": false,
          "name": "invoiceId",
          "type": "string"
        },
        {
          "indexed": false,
          "name": "itemId",
          "type": "string"
        },
        {
          "indexed": false,
          "name": "amountRefunded",
          "type": "uint256"
        }
      ],
      "name": "LogRefund",
      "type": "event"
    },
    {
      "constant": true,
      "inputs": [
        {
          "name": "_itemId",
          "type": "string"
        }
      ],
      "name": "getItem",
      "outputs": [
        {
          "name": "id",
          "type": "string"
        },
        {
          "name": "name",
          "type": "string"
        },
        {
          "name": "image",
          "type": "string"
        },
        {
          "name": "description",
          "type": "string"
        },
        {
          "name": "price",
          "type": "uint256"
        },
        {
          "name": "numberOfItems",
          "type": "uint256"
        },
        {
          "name": "seller",
          "type": "address"
        },
        {
          "name": "timestamp",
          "type": "uint256"
        }
      ],
      "payable": false,
      "stateMutability": "view",
      "type": "function"
    },
    {
      "constant": true,
      "inputs": [
        {
          "name": "_invoiceId",
          "type": "string"
        }
      ],
      "name": "getItemSold",
      "outputs": [
        {
          "name": "itemId",
          "type": "string"
        },
        {
          "name": "invoiceId",
          "type": "string"
        },
        {
          "name": "numberOfItemsSold",
          "type": "uint256"
        },
        {
          "name": "status",
          "type": "uint8"
        },
        {
          "name": "buyer",
          "type": "address"
        },
        {
          "name": "timestamp",
          "type": "uint256"
        },
        {
          "name": "amountPaid",
          "type": "uint256"
        }
      ],
      "payable": false,
      "stateMutability": "view",
      "type": "function"
    },
    {
      "constant": false,
      "inputs": [
        {
          "name": "_itemId",
          "type": "string"
        },
        {
          "name": "_name",
          "type": "string"
        },
        {
          "name": "_image",
          "type": "string"
        },
        {
          "name": "_description",
          "type": "string"
        },
        {
          "name": "_price",
          "type": "uint256"
        },
        {
          "name": "_numberOfItems",
          "type": "uint256"
        }
      ],
      "name": "addItem",
      "outputs": [
        {
          "name": "",
          "type": "bool"
        }
      ],
      "payable": false,
      "stateMutability": "nonpayable",
      "type": "function"
    },
    {
      "constant": false,
      "inputs": [
        {
          "name": "_itemId",
          "type": "string"
        },
        {
          "name": "_name",
          "type": "string"
        },
        {
          "name": "_image",
          "type": "string"
        },
        {
          "name": "_description",
          "type": "string"
        },
        {
          "name": "_price",
          "type": "uint256"
        },
        {
          "name": "_numberOfItems",
          "type": "uint256"
        }
      ],
      "name": "updateItem",
      "outputs": [
        {
          "name": "",
          "type": "bool"
        }
      ],
      "payable": false,
      "stateMutability": "nonpayable",
      "type": "function"
    },
    {
      "constant": false,
      "inputs": [
        {
          "name": "_itemId",
          "type": "string"
        },
        {
          "name": "_invoiceId",
          "type": "string"
        },
        {
          "name": "_numberOfItems",
          "type": "uint256"
        }
      ],
      "name": "buyItem",
      "outputs": [
        {
          "name": "",
          "type": "bool"
        }
      ],
      "payable": true,
      "stateMutability": "payable",
      "type": "function"
    },
    {
      "constant": false,
      "inputs": [
        {
          "name": "_invoiceId",
          "type": "string"
        }
      ],
      "name": "shipItem",
      "outputs": [
        {
          "name": "",
          "type": "bool"
        }
      ],
      "payable": false,
      "stateMutability": "nonpayable",
      "type": "function"
    },
    {
      "constant": false,
      "inputs": [
        {
          "name": "_invoiceId",
          "type": "string"
        }
      ],
      "name": "receiveItem",
      "outputs": [
        {
          "name": "",
          "type": "bool"
        }
      ],
      "payable": false,
      "stateMutability": "nonpayable",
      "type": "function"
    },
    {
      "constant": false,
      "inputs": [
        {
          "name": "_invoiceId",
          "type": "string"
        }
      ],
      "name": "refundItem",
      "outputs": [
        {
          "name": "",
          "type": "bool"
        }
      ],
      "payable": true,
      "stateMutability": "payable",
      "type": "function"
    }
  ],
  "bytecode": "0x608060405234801561001057600080fd5b506144ac806100206000396000f3fe60806040526004361061007b5760003560e01c8063a1fc26e41161004e578063a1fc26e41461066d578063a84d446914610926578063b6010fcd14610b30578063e5998ea014610dfd5761007b565b80631840a8bb14610080578063529903751461033957806356eec68d146104195780635fa670d8146104f9575b600080fd5b34801561008c57600080fd5b5061031f600480360360c08110156100a357600080fd5b81019080803590602001906401000000008111156100c057600080fd5b8201836020820111156100d257600080fd5b803590602001918460018302840111640100000000831117156100f457600080fd5b91908080601f016020809104026020016040519081016040528093929190818152602001838380828437600081840152601f19601f8201169050808301925050505050505091929192908035906020019064010000000081111561015757600080fd5b82018360208201111561016957600080fd5b8035906020019184600183028401116401000000008311171561018b57600080fd5b91908080601f016020809104026020016040519081016040528093929190818152602001838380828437600081840152601f19601f820116905080830192505050505050509192919290803590602001906401000000008111156101ee57600080fd5b82018360208201111561020057600080fd5b8035906020019184600183028401116401000000008311171561022257600080fd5b91908080601f016020809104026020016040519081016040528093929190818152602001838380828437600081840152601f19601f8201169050808301925050505050505091929192908035906020019064010000000081111561028557600080fd5b82018360208201111561029757600080fd5b803590602001918460018302840111640100000000831117156102b957600080fd5b91908080601f016020809104026020016040519081016040528093929190818152602001838380828437600081840152601f19601f8201169050808301925050505050505091929192908035906020019092919080359060200190929190505050610ed0565b604051808215151515815260200191505060405180910390f35b34801561034557600080fd5b506103ff6004803603602081101561035c57600080fd5b810190808035906020019064010000000081111561037957600080fd5b82018360208201111561038b57600080fd5b803590602001918460018302840111640100000000831117156103ad57600080fd5b91908080601f016020809104026020016040519081016040528093929190818152602001838380828437600081840152601f19601f8201169050808301925050505050505091929192905050506114ae565b604051808215151515815260200191505060405180910390f35b34801561042557600080fd5b506104df6004803603602081101561043c57600080fd5b810190808035906020019064010000000081111561045957600080fd5b82018360208201111561046b57600080fd5b8035906020019184600183028401116401000000008311171561048d57600080fd5b91908080601f016020809104026020016040519081016040528093929190818152602001838380828437600081840152601f19601f820116905080830192505050505050509192919290505050611b15565b604051808215151515815260200191505060405180910390f35b6106536004803603606081101561050f57600080fd5b810190808035906020019064010000000081111561052c57600080fd5b82018360208201111561053e57600080fd5b8035906020019184600183028401116401000000008311171561056057600080fd5b91908080601f016020809104026020016040519081016040528093929190818152602001838380828437600081840152601f19601f820116905080830192505050505050509192919290803590602001906401000000008111156105c357600080fd5b8201836020820111156105d557600080fd5b803590602001918460018302840111640100000000831117156105f757600080fd5b91908080601f016020809104026020016040519081016040528093929190818152602001838380828437600081840152601f19601f82011690508083019250505050505050919291929080359060200190929190505050612016565b604051808215151515815260200191505060405180910390f35b34801561067957600080fd5b5061090c600480360360c081101561069057600080fd5b81019080803590602001906401000000008111156106ad57600080fd5b8201836020820111156106bf57600080fd5b803590602001918460018302840111640100000000831117156106e157600080fd5b91908080601f016020809104026020016040519081016040528093929190818152602001838380828437600081840152601f19601f8201169050808301925050505050505091929192908035906020019064010000000081111561074457600080fd5b82018360208201111561075657600080fd5b8035906020019184600183028401116401000000008311171561077857600080fd5b91908080601f016020809104026020016040519081016040528093929190818152602001838380828437600081840152601f19601f820116905080830192505050505050509192919290803590602001906401000000008111156107db57600080fd5b8201836020820111156107ed57600080fd5b8035906020019184600183028401116401000000008311171561080f57600080fd5b91908080601f016020809104026020016040519081016040528093929190818152602001838380828437600081840152601f19601f8201169050808301925050505050505091929192908035906020019064010000000081111561087257600080fd5b82018360208201111561088457600080fd5b803590602001918460018302840111640100000000831117156108a657600080fd5b91908080601f016020809104026020016040519081016040528093929190818152602001838380828437600081840152601f19601f82011690508083019250505050505050919291929080359060200190929190803590602001909291905050506129c3565b604051808215151515815260200191505060405180910390f35b34801561093257600080fd5b506109ec6004803603602081101561094957600080fd5b810190808035906020019064010000000081111561096657600080fd5b82018360208201111561097857600080fd5b8035906020019184600183028401116401000000008311171561099a57600080fd5b91908080601f016020809104026020016040519081016040528093929190818152602001838380828437600081840152601f19601f820116905080830192505050505050509192919290505050612d07565b604051808060200180602001888152602001876003811115610a0a57fe5b60ff1681526020018673ffffffffffffffffffffffffffffffffffffffff1673ffffffffffffffffffffffffffffffffffffffff16815260200185815260200184815260200183810383528a818151815260200191508051906020019080838360005b83811015610a88578082015181840152602081019050610a6d565b50505050905090810190601f168015610ab55780820380516001836020036101000a031916815260200191505b50838103825289818151815260200191508051906020019080838360005b83811015610aee578082015181840152602081019050610ad3565b50505050905090810190601f168015610b1b5780820380516001836020036101000a031916815260200191505b50995050505050505050505060405180910390f35b348015610b3c57600080fd5b50610bf660048036036020811015610b5357600080fd5b8101908080359060200190640100000000811115610b7057600080fd5b820183602082011115610b8257600080fd5b80359060200191846001830284011164010000000083111715610ba457600080fd5b91908080601f016020809104026020016040519081016040528093929190818152602001838380828437600081840152601f19601f82011690508083019250505050505050919291929050505061326b565b60405180806020018060200180602001806020018981526020018881526020018773ffffffffffffffffffffffffffffffffffffffff1673ffffffffffffffffffffffffffffffffffffffff16815260200186815260200185810385528d818151815260200191508051906020019080838360005b83811015610c86578082015181840152602081019050610c6b565b50505050905090810190601f168015610cb35780820380516001836020036101000a031916815260200191505b5085810384528c818151815260200191508051906020019080838360005b83811015610cec578082015181840152602081019050610cd1565b50505050905090810190601f168015610d195780820380516001836020036101000a031916815260200191505b5085810383528b818151815260200191508051906020019080838360005b83811015610d52578082015181840152602081019050610d37565b50505050905090810190601f168015610d7f5780820380516001836020036101000a031916815260200191505b5085810382528a818151815260200191508051906020019080838360005b83811015610db8578082015181840152602081019050610d9d565b50505050905090810190601f168015610de55780820380516001836020036101000a031916815260200191505b509c5050505050505050505050505060405180910390f35b610eb660048036036020811015610e1357600080fd5b8101908080359060200190640100000000811115610e3057600080fd5b820183602082011115610e4257600080fd5b80359060200191846001830284011164010000000083111715610e6457600080fd5b91908080601f016020809104026020016040519081016040528093929190818152602001838380828437600081840152601f19601f82011690508083019250505050505050919291929050505061378e565b604051808215151515815260200191505060405180910390f35b60008660008311610f2c576040517f08c379a000000000000000000000000000000000000000000000000000000000815260040180806020018281038252602381526020018061443c6023913960400191505060405180910390fd5b60008411610f85576040517f08c379a000000000000000000000000000000000000000000000000000000000815260040180806020018281038252602281526020018061445f6022913960400191505060405180910390fd5b866000896040518082805190602001908083835b60208310610fbc5780518252602082019150602081019050602083039250610f99565b6001836020036101000a03801982511681845116808217855250505050505090500191505090815260200160405180910390206000019080519060200190611005929190614225565b50856000896040518082805190602001908083835b6020831061103d578051825260208201915060208101905060208303925061101a565b6001836020036101000a03801982511681845116808217855250505050505090500191505090815260200160405180910390206001019080519060200190611086929190614225565b50846000896040518082805190602001908083835b602083106110be578051825260208201915060208101905060208303925061109b565b6001836020036101000a03801982511681845116808217855250505050505090500191505090815260200160405180910390206002019080519060200190611107929190614225565b50836000896040518082805190602001908083835b6020831061113f578051825260208201915060208101905060208303925061111c565b6001836020036101000a038019825116818451168082178552505050505050905001915050908152602001604051809103902060030181905550826000896040518082805190602001908083835b602083106111b0578051825260208201915060208101905060208303925061118d565b6001836020036101000a0380198251168184511680821785525050505050509050019150509081526020016040518091039020600401819055507f6fb46f1c24e900a56b4e673473b9fa7d88c1818b6eae11627937e466f613ce4a33898587604051808573ffffffffffffffffffffffffffffffffffffffff1673ffffffffffffffffffffffffffffffffffffffff16815260200180602001848152602001838152602001828103825285818151815260200191508051906020019080838360005b8381101561128d578082015181840152602081019050611272565b50505050905090810190601f1680156112ba5780820380516001836020036101000a031916815260200191505b509550505050505060405180910390a160019150600073ffffffffffffffffffffffffffffffffffffffff166000826040518082805190602001908083835b6020831061131c57805182526020820191506020810190506020830392506112f9565b6001836020036101000a038019825116818451168082178552505050505050905001915050908152602001604051809103902060060160009054906101000a900473ffffffffffffffffffffffffffffffffffffffff1673ffffffffffffffffffffffffffffffffffffffff161415801561144e57503373ffffffffffffffffffffffffffffffffffffffff166000826040518082805190602001908083835b602083106113df57805182526020820191506020810190506020830392506113bc565b6001836020036101000a038019825116818451168082178552505050505050905001915050908152602001604051809103902060060160009054906101000a900473ffffffffffffffffffffffffffffffffffffffff1673ffffffffffffffffffffffffffffffffffffffff16145b6114a3576040517f08c379a000000000000000000000000000000000000000000000000000000000815260040180806020018281038252602781526020018061439e6027913960400191505060405180910390fd5b509695505050505050565b600081600160038111156114be57fe5b6001846040518082805190602001908083835b602083106114f457805182526020820191506020810190506020830392506114d1565b6001836020036101000a038019825116818451168082178552505050505050905001915050908152602001604051809103902060030160009054906101000a900460ff16600381111561154357fe5b146115b6576040517f08c379a00000000000000000000000000000000000000000000000000000000081526004018080602001828103825260148152602001807f4974656d206e6f7420796574207368697070656400000000000000000000000081525060200191505060405180910390fd5b3373ffffffffffffffffffffffffffffffffffffffff166001846040518082805190602001908083835b6020831061160357805182526020820191506020810190506020830392506115e0565b6001836020036101000a038019825116818451168082178552505050505050905001915050908152602001604051809103902060050160009054906101000a900473ffffffffffffffffffffffffffffffffffffffff1673ffffffffffffffffffffffffffffffffffffffff16146116e3576040517f08c379a000000000000000000000000000000000000000000000000000000000815260040180806020018281038252601f8152602001807f416374696f6e207265737472696374656420746f206275796572206f6e6c790081525060200191505060405180910390fd5b60026001846040518082805190602001908083835b6020831061171b57805182526020820191506020810190506020830392506116f8565b6001836020036101000a038019825116818451168082178552505050505050905001915050908152602001604051809103902060030160006101000a81548160ff0219169083600381111561176c57fe5b02179055507fccb4d0e47886be91330a33c3282eb9e855272263ff997a6da924f820b0127e2333846001866040518082805190602001908083835b602083106117ca57805182526020820191506020810190506020830392506117a7565b6001836020036101000a0380198251168184511680821785525050505050509050019150509081526020016040518091039020600001604051808473ffffffffffffffffffffffffffffffffffffffff1673ffffffffffffffffffffffffffffffffffffffff1681526020018060200180602001838103835285818151815260200191508051906020019080838360005b8381101561187657808201518184015260208101905061185b565b50505050905090810190601f1680156118a35780820380516001836020036101000a031916815260200191505b508381038252848181546001816001161561010002031660029004815260200191508054600181600116156101000203166002900480156119255780601f106118fa57610100808354040283529160200191611925565b820191906000526020600020905b81548152906001019060200180831161190857829003601f168201915b50509550505050505060405180910390a160019150600073ffffffffffffffffffffffffffffffffffffffff166001826040518082805190602001908083835b602083106119885780518252602082019150602081019050602083039250611965565b6001836020036101000a038019825116818451168082178552505050505050905001915050908152602001604051809103902060050160009054906101000a900473ffffffffffffffffffffffffffffffffffffffff1673ffffffffffffffffffffffffffffffffffffffff1614158015611aba57503373ffffffffffffffffffffffffffffffffffffffff166001826040518082805190602001908083835b60208310611a4b5780518252602082019150602081019050602083039250611a28565b6001836020036101000a038019825116818451168082178552505050505050905001915050908152602001604051809103902060050160009054906101000a900473ffffffffffffffffffffffffffffffffffffffff1673ffffffffffffffffffffffffffffffffffffffff16145b611b0f576040517f08c379a00000000000000000000000000000000000000000000000000000000081526004018080602001828103825260248152602001806143f76024913960400191505060405180910390fd5b50919050565b6000806003811115611b2357fe5b6001836040518082805190602001908083835b60208310611b595780518252602082019150602081019050602083039250611b36565b6001836020036101000a038019825116818451168082178552505050505050905001915050908152602001604051809103902060030160009054906101000a900460ff166003811115611ba857fe5b14611c1b576040517f08c379a00000000000000000000000000000000000000000000000000000000081526004018080602001828103825260148152602001807f4974656d20616c7265616479207368697070656400000000000000000000000081525060200191505060405180910390fd5b3373ffffffffffffffffffffffffffffffffffffffff1660006001846040518082805190602001908083835b60208310611c6a5780518252602082019150602081019050602083039250611c47565b6001836020036101000a03801982511681845116808217855250505050505090500191505090815260200160405180910390206000016040518082805460018160011615610100020316600290048015611cfb5780601f10611cd9576101008083540402835291820191611cfb565b820191906000526020600020905b815481529060010190602001808311611ce7575b5050915050908152602001604051809103902060060160009054906101000a900473ffffffffffffffffffffffffffffffffffffffff1673ffffffffffffffffffffffffffffffffffffffff1614611dbb576040517f08c379a00000000000000000000000000000000000000000000000000000000081526004018080602001828103825260208152602001807f416374696f6e207265737472696374656420746f2073656c6c6572206f6e6c7981525060200191505060405180910390fd5b600180836040518082805190602001908083835b60208310611df25780518252602082019150602081019050602083039250611dcf565b6001836020036101000a038019825116818451168082178552505050505050905001915050908152602001604051809103902060030160006101000a81548160ff02191690836003811115611e4357fe5b02179055507fc2e564a4d81774e4685c434f30bef9f7e7d329f4a4059c8bb7ed1729018dcdf933836001856040518082805190602001908083835b60208310611ea15780518252602082019150602081019050602083039250611e7e565b6001836020036101000a0380198251168184511680821785525050505050509050019150509081526020016040518091039020600001604051808473ffffffffffffffffffffffffffffffffffffffff1673ffffffffffffffffffffffffffffffffffffffff1681526020018060200180602001838103835285818151815260200191508051906020019080838360005b83811015611f4d578082015181840152602081019050611f32565b50505050905090810190601f168015611f7a5780820380516001836020036101000a031916815260200191505b50838103825284818154600181600116156101000203166002900481526020019150805460018160011615610100020316600290048015611ffc5780601f10611fd157610100808354040283529160200191611ffc565b820191906000526020600020905b815481529060010190602001808311611fdf57829003601f168201915b50509550505050505060405180910390a160019050919050565b6000838260008411612073576040517f08c379a000000000000000000000000000000000000000000000000000000000815260040180806020018281038252602381526020018061443c6023913960400191505060405180910390fd5b836000876040518082805190602001908083835b602083106120aa5780518252602082019150602081019050602083039250612087565b6001836020036101000a0380198251168184511680821785525050505050509050019150509081526020016040518091039020600401541115612155576040517f08c379a000000000000000000000000000000000000000000000000000000000815260040180806020018281038252600c8152602001807f4f7574206f662073746f636b000000000000000000000000000000000000000081525060200191505060405180910390fd5b60006001866040518082805190602001908083835b6020831061218d578051825260208201915060208101905060208303925061216a565b6001836020036101000a038019825116818451168082178552505050505050905001915050908152602001604051809103902060030160006101000a81548160ff021916908360038111156121de57fe5b0217905550836001866040518082805190602001908083835b6020831061221a57805182526020820191506020810190506020830392506121f7565b6001836020036101000a038019825116818451168082178552505050505050905001915050908152602001604051809103902060010181905550336001866040518082805190602001908083835b6020831061228b5780518252602082019150602081019050602083039250612268565b6001836020036101000a038019825116818451168082178552505050505050905001915050908152602001604051809103902060050160006101000a81548173ffffffffffffffffffffffffffffffffffffffff021916908373ffffffffffffffffffffffffffffffffffffffff160217905550426001866040518082805190602001908083835b602083106123365780518252602082019150602081019050602083039250612313565b6001836020036101000a038019825116818451168082178552505050505050905001915050908152602001604051809103902060040181905550856001866040518082805190602001908083835b602083106123a75780518252602082019150602081019050602083039250612384565b6001836020036101000a038019825116818451168082178552505050505050905001915050908152602001604051809103902060000190805190602001906123f0929190614225565b506124706000876040518082805190602001908083835b6020831061242a5780518252602082019150602081019050602083039250612407565b6001836020036101000a0380198251168184511680821785525050505050509050019150509081526020016040518091039020600301548561411690919063ffffffff16565b6001866040518082805190602001908083835b602083106124a65780518252602082019150602081019050602083039250612483565b6001836020036101000a03801982511681845116808217855250505050505090500191505090815260200160405180910390206002018190555061256060016000886040518082805190602001908083835b6020831061251b57805182526020820191506020810190506020830392506124f8565b6001836020036101000a03801982511681845116808217855250505050505090500191505090815260200160405180910390206004015461419c90919063ffffffff16565b6000876040518082805190602001908083835b602083106125965780518252602082019150602081019050602083039250612573565b6001836020036101000a0380198251168184511680821785525050505050509050019150509081526020016040518091039020600401819055507fa867baa08a37e264e8540d2b6d16d0b0daa9bc942457445d2243c16a997cfd28338786604051808473ffffffffffffffffffffffffffffffffffffffff1673ffffffffffffffffffffffffffffffffffffffff16815260200180602001838152602001828103825284818151815260200191508051906020019080838360005b8381101561266c578082015181840152602081019050612651565b50505050905090810190601f1680156126995780820380516001836020036101000a031916815260200191505b5094505050505060405180910390a160019250600061272d6000846040518082805190602001908083835b602083106126e757805182526020820191506020810190506020830392506126c4565b6001836020036101000a0380198251168184511680821785525050505050509050019150509081526020016040518091039020600301548361411690919063ffffffff16565b9050803410156127a5576040517f08c379a00000000000000000000000000000000000000000000000000000000081526004018080602001828103825260198152602001807f416d6f756e74206c657373207468616e2072657175697265640000000000000081525060200191505060405180910390fd5b60006128266000856040518082805190602001908083835b602083106127e057805182526020820191506020810190506020830392506127bd565b6001836020036101000a0380198251168184511680821785525050505050509050019150509081526020016040518091039020600301543461419c90919063ffffffff16565b90506000811115612879573373ffffffffffffffffffffffffffffffffffffffff166108fc829081150290604051600060405180830381858888f19350505050158015612877573d6000803e3d6000fd5b505b6000846040518082805190602001908083835b602083106128af578051825260208201915060208101905060208303925061288c565b6001836020036101000a038019825116818451168082178552505050505050905001915050908152602001604051809103902060060160009054906101000a900473ffffffffffffffffffffffffffffffffffffffff1673ffffffffffffffffffffffffffffffffffffffff166108fc6000866040518082805190602001908083835b602083106129555780518252602082019150602081019050602083039250612932565b6001836020036101000a0380198251168184511680821785525050505050509050019150509081526020016040518091039020600301549081150290604051600060405180830381858888f193505050501580156129b7573d6000803e3d6000fd5b50505050509392505050565b6000808211612a1d576040517f08c379a000000000000000000000000000000000000000000000000000000000815260040180806020018281038252602381526020018061443c6023913960400191505060405180910390fd5b60008311612a76576040517f08c379a000000000000000000000000000000000000000000000000000000000815260040180806020018281038252602281526020018061445f6022913960400191505060405180910390fd5b612a7e6142a5565b8681600001819052508581602001819052508481604001819052508381606001818152505082816080018181525050338160c0019073ffffffffffffffffffffffffffffffffffffffff16908173ffffffffffffffffffffffffffffffffffffffff1681525050428160a0018181525050806000896040518082805190602001908083835b60208310612b265780518252602082019150602081019050602083039250612b03565b6001836020036101000a03801982511681845116808217855250505050505090500191505090815260200160405180910390206000820151816000019080519060200190612b759291906142f8565b506020820151816001019080519060200190612b929291906142f8565b506040820151816002019080519060200190612baf9291906142f8565b50606082015181600301556080820151816004015560a0820151816005015560c08201518160060160006101000a81548173ffffffffffffffffffffffffffffffffffffffff021916908373ffffffffffffffffffffffffffffffffffffffff1602179055509050507f2930e5bc283fe47c6125a741eb1aa8957500d5246f080d5f160f38303c89c4b833898587604051808573ffffffffffffffffffffffffffffffffffffffff1673ffffffffffffffffffffffffffffffffffffffff16815260200180602001848152602001838152602001828103825285818151815260200191508051906020019080838360005b83811015612cbb578082015181840152602081019050612ca0565b50505050905090810190601f168015612ce85780820380516001836020036101000a031916815260200191505b509550505050505060405180910390a160019150509695505050505050565b6060806000806000806000876001896040518082805190602001908083835b60208310612d495780518252602082019150602081019050602083039250612d26565b6001836020036101000a03801982511681845116808217855250505050505090500191505090815260200160405180910390206000018054600181600116156101000203166002900480601f016020809104026020016040519081016040528092919081815260200182805460018160011615610100020316600290048015612e135780601f10612de857610100808354040283529160200191612e13565b820191906000526020600020905b815481529060010190602001808311612df657829003601f168201915b505050505097508896506001896040518082805190602001908083835b60208310612e535780518252602082019150602081019050602083039250612e30565b6001836020036101000a03801982511681845116808217855250505050505090500191505090815260200160405180910390206001015495506001896040518082805190602001908083835b60208310612ec25780518252602082019150602081019050602083039250612e9f565b6001836020036101000a038019825116818451168082178552505050505050905001915050908152602001604051809103902060030160009054906101000a900460ff1694506001896040518082805190602001908083835b60208310612f3e5780518252602082019150602081019050602083039250612f1b565b6001836020036101000a038019825116818451168082178552505050505050905001915050908152602001604051809103902060050160009054906101000a900473ffffffffffffffffffffffffffffffffffffffff1693506001896040518082805190602001908083835b60208310612fcd5780518252602082019150602081019050602083039250612faa565b6001836020036101000a03801982511681845116808217855250505050505090500191505090815260200160405180910390206004015492506001896040518082805190602001908083835b6020831061303c5780518252602082019150602081019050602083039250613019565b6001836020036101000a0380198251168184511680821785525050505050509050019150509081526020016040518091039020600201549150878787878787879750975097509750975097509750600073ffffffffffffffffffffffffffffffffffffffff166001826040518082805190602001908083835b602083106130d857805182526020820191506020810190506020830392506130b5565b6001836020036101000a038019825116818451168082178552505050505050905001915050908152602001604051809103902060050160009054906101000a900473ffffffffffffffffffffffffffffffffffffffff1673ffffffffffffffffffffffffffffffffffffffff161415801561320a57503373ffffffffffffffffffffffffffffffffffffffff166001826040518082805190602001908083835b6020831061319b5780518252602082019150602081019050602083039250613178565b6001836020036101000a038019825116818451168082178552505050505050905001915050908152602001604051809103902060050160009054906101000a900473ffffffffffffffffffffffffffffffffffffffff1673ffffffffffffffffffffffffffffffffffffffff16145b61325f576040517f08c379a00000000000000000000000000000000000000000000000000000000081526004018080602001828103825260248152602001806143f76024913960400191505060405180910390fd5b50919395979092949650565b6060806060806000806000808897506000896040518082805190602001908083835b602083106132b0578051825260208201915060208101905060208303925061328d565b6001836020036101000a03801982511681845116808217855250505050505090500191505090815260200160405180910390206000018054600181600116156101000203166002900480601f01602080910402602001604051908101604052809291908181526020018280546001816001161561010002031660029004801561337a5780601f1061334f5761010080835404028352916020019161337a565b820191906000526020600020905b81548152906001019060200180831161335d57829003601f168201915b505050505096506000896040518082805190602001908083835b602083106133b75780518252602082019150602081019050602083039250613394565b6001836020036101000a03801982511681845116808217855250505050505090500191505090815260200160405180910390206001018054600181600116156101000203166002900480601f0160208091040260200160405190810160405280929190818152602001828054600181600116156101000203166002900480156134815780601f1061345657610100808354040283529160200191613481565b820191906000526020600020905b81548152906001019060200180831161346457829003601f168201915b505050505095506000896040518082805190602001908083835b602083106134be578051825260208201915060208101905060208303925061349b565b6001836020036101000a03801982511681845116808217855250505050505090500191505090815260200160405180910390206003015493506000896040518082805190602001908083835b6020831061352d578051825260208201915060208101905060208303925061350a565b6001836020036101000a03801982511681845116808217855250505050505090500191505090815260200160405180910390206002018054600181600116156101000203166002900480601f0160208091040260200160405190810160405280929190818152602001828054600181600116156101000203166002900480156135f75780601f106135cc576101008083540402835291602001916135f7565b820191906000526020600020905b8154815290600101906020018083116135da57829003601f168201915b505050505094506000896040518082805190602001908083835b602083106136345780518252602082019150602081019050602083039250613611565b6001836020036101000a03801982511681845116808217855250505050505090500191505090815260200160405180910390206004015492506000896040518082805190602001908083835b602083106136a35780518252602082019150602081019050602083039250613680565b6001836020036101000a038019825116818451168082178552505050505050905001915050908152602001604051809103902060060160009054906101000a900473ffffffffffffffffffffffffffffffffffffffff1691506000896040518082805190602001908083835b60208310613732578051825260208201915060208101905060208303925061370f565b6001836020036101000a0380198251168184511680821785525050505050509050019150509081526020016040518091039020600501549050878787878787878797509750975097509750975097509750919395975091939597565b600060606001836040518082805190602001908083835b602083106137c857805182526020820191506020810190506020830392506137a5565b6001836020036101000a03801982511681845116808217855250505050505090500191505090815260200160405180910390206000018054600181600116156101000203166002900480601f0160208091040260200160405190810160405280929190818152602001828054600181600116156101000203166002900480156138925780601f1061386757610100808354040283529160200191613892565b820191906000526020600020905b81548152906001019060200180831161387557829003601f168201915b505050505090503373ffffffffffffffffffffffffffffffffffffffff166000826040518082805190602001908083835b602083106138e657805182526020820191506020810190506020830392506138c3565b6001836020036101000a038019825116818451168082178552505050505050905001915050908152602001604051809103902060060160009054906101000a900473ffffffffffffffffffffffffffffffffffffffff1673ffffffffffffffffffffffffffffffffffffffff16146139c6576040517f08c379a00000000000000000000000000000000000000000000000000000000081526004018080602001828103825260208152602001807f416374696f6e207265737472696374656420746f2073656c6c6572206f6e6c7981525060200191505060405180910390fd5b6001836040518082805190602001908083835b602083106139fc57805182526020820191506020810190506020830392506139d9565b6001836020036101000a038019825116818451168082178552505050505050905001915050908152602001604051809103902060020154341015613aa8576040517f08c379a00000000000000000000000000000000000000000000000000000000081526004018080602001828103825260198152602001807f416d6f756e74206c657373207468616e2072657175697265640000000000000081525060200191505060405180910390fd5b60006001846040518082805190602001908083835b60208310613ae05780518252602082019150602081019050602083039250613abd565b6001836020036101000a03801982511681845116808217855250505050505090500191505090815260200160405180910390206002015411613b6d576040517f08c379a00000000000000000000000000000000000000000000000000000000081526004018080602001828103825260328152602001806143c56032913960400191505060405180910390fd5b6001836040518082805190602001908083835b60208310613ba35780518252602082019150602081019050602083039250613b80565b6001836020036101000a038019825116818451168082178552505050505050905001915050908152602001604051809103902060050160009054906101000a900473ffffffffffffffffffffffffffffffffffffffff1673ffffffffffffffffffffffffffffffffffffffff166108fc6001856040518082805190602001908083835b60208310613c495780518252602082019150602081019050602083039250613c26565b6001836020036101000a0380198251168184511680821785525050505050509050019150509081526020016040518091039020600201549081150290604051600060405180830381858888f19350505050158015613cab573d6000803e3d6000fd5b506000613d2d6001856040518082805190602001908083835b60208310613ce75780518252602082019150602081019050602083039250613cc4565b6001836020036101000a0380198251168184511680821785525050505050509050019150509081526020016040518091039020600201543461419c90919063ffffffff16565b90506000811115613e0c576000826040518082805190602001908083835b60208310613d6e5780518252602082019150602081019050602083039250613d4b565b6001836020036101000a038019825116818451168082178552505050505050905001915050908152602001604051809103902060060160009054906101000a900473ffffffffffffffffffffffffffffffffffffffff1673ffffffffffffffffffffffffffffffffffffffff166108fc829081150290604051600060405180830381858888f19350505050158015613e0a573d6000803e3d6000fd5b505b60036001856040518082805190602001908083835b60208310613e445780518252602082019150602081019050602083039250613e21565b6001836020036101000a038019825116818451168082178552505050505050905001915050908152602001604051809103902060030160006101000a81548160ff02191690836003811115613e9557fe5b02179055507f6f8fca789b82e8249ddb68aac00d7f612d9e62815f01bae84bcb0b44d012b665336001866040518082805190602001908083835b60208310613ef25780518252602082019150602081019050602083039250613ecf565b6001836020036101000a038019825116818451168082178552505050505050905001915050908152602001604051809103902060050160009054906101000a900473ffffffffffffffffffffffffffffffffffffffff1686856001896040518082805190602001908083835b60208310613f815780518252602082019150602081019050602083039250613f5e565b6001836020036101000a038019825116818451168082178552505050505050905001915050908152602001604051809103902060020154604051808673ffffffffffffffffffffffffffffffffffffffff1673ffffffffffffffffffffffffffffffffffffffff1681526020018573ffffffffffffffffffffffffffffffffffffffff1673ffffffffffffffffffffffffffffffffffffffff1681526020018060200180602001848152602001838103835286818151815260200191508051906020019080838360005b8381101561406657808201518184015260208101905061404b565b50505050905090810190601f1680156140935780820380516001836020036101000a031916815260200191505b50838103825285818151815260200191508051906020019080838360005b838110156140cc5780820151818401526020810190506140b1565b50505050905090810190601f1680156140f95780820380516001836020036101000a031916815260200191505b5097505050505050505060405180910390a1600192505050919050565b6000808314156141295760009050614196565b600082840290508284828161413a57fe5b0414614191576040517f08c379a000000000000000000000000000000000000000000000000000000000815260040180806020018281038252602181526020018061441b6021913960400191505060405180910390fd5b809150505b92915050565b600082821115614214576040517f08c379a000000000000000000000000000000000000000000000000000000000815260040180806020018281038252601e8152602001807f536166654d6174683a207375627472616374696f6e206f766572666c6f77000081525060200191505060405180910390fd5b600082840390508091505092915050565b828054600181600116156101000203166002900490600052602060002090601f016020900481019282601f1061426657805160ff1916838001178555614294565b82800160010185558215614294579182015b82811115614293578251825591602001919060010190614278565b5b5090506142a19190614378565b5090565b6040518060e00160405280606081526020016060815260200160608152602001600081526020016000815260200160008152602001600073ffffffffffffffffffffffffffffffffffffffff1681525090565b828054600181600116156101000203166002900490600052602060002090601f016020900481019282601f1061433957805160ff1916838001178555614367565b82800160010185558215614367579182015b8281111561436657825182559160200191906001019061434b565b5b5090506143749190614378565b5090565b61439a91905b8082111561439657600081600090555060010161437e565b5090565b9056fe73686f756c64206265207468652073656c6c657220746f2070726f6365737320666f7277617264546f74616c20616d6f756e7420746f20726566756e642073686f756c642062652067726561746572207468616e207a65726f73686f756c64206265206120627579657220746f2070726f6365737320666f7277617264536166654d6174683a206d756c7469706c69636174696f6e206f766572666c6f774e756d626572206f66206974656d732073686f756c642062652061746c6561737420315072696365206f66206974656d732063616e6e6f742062652061746c656173742030a165627a7a723058208244f55263d4bb12602fc82c26934af7134ed26a46d020797e00c51644a0123d0029",
  "source": "pragma solidity ^0.5.0;\n\nimport \"./SafeMath.sol\";\n\ncontract SalePlace {\n\n  using SafeMath for uint;\n\n  struct Item {\n    string name;\n    string image;\n    string description;\n    uint price;\n    uint numberOfItems;\n    uint timestamp;\n    address payable seller;\n  }\n\n  /* Staus Enum used by ItemInvoice ,with 4 states\n    Processing\n    Shipped\n    Received\n    Refunded\n  */\n  enum Status { Processing ,Shipped, Received, Refunded }\n\n  struct ItemInvoice{\n    string itemId;\n    uint numberOfItemsSold;\n    uint amountPaid;\n    Status status;\n    uint timestamp;\n    address payable buyer;\n  }\n\n  mapping (string => Item) private items;\n  mapping (string => ItemInvoice) private itemsSold;\n\n  modifier isSeller(string memory _itemId){\n    _;\n    require(items[_itemId].seller != address(0) && items[_itemId].seller == msg.sender, \"should be the seller to process forward\");\n  }\n\n  modifier isBuyer(string memory _itemId){\n    _;\n    require(itemsSold[_itemId].buyer != address(0) && itemsSold[_itemId].buyer == msg.sender, \"should be a buyer to process forward\");\n  }\n\n  event LogAddItem(address seller, string itemId , uint numberOfItems, uint price);\n  event LogUpdateItem(address seller, string itemId , uint numberOfItems, uint price);\n  event LogBuyItem(address buyer, string invoiceId, uint numberOfItems);\n  event LogShipped(address seller, string invoiceId, string itemId);\n  event LogReceived(address buyer, string invoiceId, string itemId);\n  event LogRefund(address seller, address buyer, string invoiceId, string itemId, uint amountRefunded);\n\n  /// @notice Trade logic called when items are purchased by a user\n  /// @param _itemId id of the item to fetch\n  /// @param _numberOfItems number of the items purchased\n  /// @dev the function will trade amount from buyer to seller , also any left over amount will be transfered to buyer itself\n  modifier trade (string memory _itemId, uint _numberOfItems)  {\n    _;\n    uint totalAmount = _numberOfItems.mul(items[_itemId].price);\n    require(msg.value >= totalAmount, 'Amount less than required');\n\n    uint amountToRefund = msg.value.sub(items[_itemId].price);\n    if(amountToRefund>0){\n      msg.sender.transfer(amountToRefund); // transfer left over to buyer\n    }\n    items[_itemId].seller.transfer(items[_itemId].price); // send the money to seller\n  }\n\n\n  /// @notice Get am item based on item id\n  /// @param _itemId id of the item to fetch\n  /// @return id, name, image , description , price , number of Items left, timestamp and seller address of the item\n  function getItem(string memory _itemId)\n  public\n  view\n  returns (string memory id, string memory name, string memory image, string memory description, uint price, uint numberOfItems, address seller, uint timestamp) {\n    id = _itemId;\n    name = items[_itemId].name;\n    image = items[_itemId].image;\n    price = items[_itemId].price;\n    description = items[_itemId].description;\n    numberOfItems = items[_itemId].numberOfItems;\n    seller = items[_itemId].seller;\n    timestamp = items[_itemId].timestamp;\n    return (id, name, image, description, price, numberOfItems, seller, timestamp);\n  }\n\n  /// @notice Get item purcahsed details of the request user mapping for given item\n  /// @param _invoiceId  invoice id of the item sold to fetch \n  /// @return itemId, invoiceId, number of Items sold , status, timestamp, buyer address & amount paid\n  function getItemSold(string memory _invoiceId)\n  public \n  view \n  isBuyer(_invoiceId)\n  returns (string memory itemId, string memory invoiceId, uint numberOfItemsSold, Status status, address buyer, uint timestamp, uint amountPaid) {\n    itemId = itemsSold[_invoiceId].itemId;\n    invoiceId = _invoiceId;\n    numberOfItemsSold = itemsSold[_invoiceId].numberOfItemsSold;\n    status = itemsSold[_invoiceId].status;\n    buyer = itemsSold[_invoiceId].buyer;\n    timestamp = itemsSold[_invoiceId].timestamp;\n    amountPaid = itemsSold[_invoiceId].amountPaid;\n    return (itemId, invoiceId, numberOfItemsSold, status, buyer, timestamp, amountPaid);\n  }\n\n  /// @notice Add item\n  /// @dev Emits LogAddItem\n  /// @param _itemId id of the item\n  /// @param _name name of the item\n  /// @param _image image url of the item\n  /// @param _description description of the item\n  /// @param _price price of the item\n  /// @param _numberOfItems number of the item to sell\n  /// @return true if item is created\n  function addItem(string memory _itemId,string memory _name, string memory _image, string memory _description, uint _price, uint _numberOfItems)\n  public\n  returns(bool){\n    require(_numberOfItems>0, 'Number of items should be atleast 1');\n    require(_price>0, 'Price of items cannot be atleast 0');\n    Item memory newItem;\n    newItem.name = _name;\n    newItem.image = _image;\n    newItem.description = _description;\n    newItem.price = _price;\n    newItem.numberOfItems = _numberOfItems;\n    newItem.seller = msg.sender;\n    newItem.timestamp = now;\n    items[_itemId] = newItem;\n    emit LogAddItem(msg.sender, _itemId, _numberOfItems, _price);\n    return true;\n  }\n\n  /// @notice Update item\n  /// @dev Emits LogUpdateItem\n  /// @dev Need to be seller of the item to update\n  /// @param _itemId id of the item\n  /// @param _name name of the item\n  /// @param _image image url of the item\n  /// @param _description description of the item\n  /// @param _price price of the item\n  /// @param _numberOfItems number of the item to sell\n  /// @return true if item is udpated\n  function updateItem(string memory _itemId, string memory _name, string memory _image, string memory _description, uint _price, uint _numberOfItems)\n  public\n  isSeller(_itemId)\n  returns(bool){\n    require(_numberOfItems>0, 'Number of items should be atleast 1');\n    require(_price>0, 'Price of items cannot be atleast 0');\n    items[_itemId].name = _name;\n    items[_itemId].image = _image;\n    items[_itemId].description = _description;\n    items[_itemId].price = _price;\n    items[_itemId].numberOfItems = _numberOfItems;\n    emit LogUpdateItem(msg.sender, _itemId, _numberOfItems, _price);\n    return true;\n  }\n\n  /// @notice Function to buy items\n  /// @dev Emits LogBuyItem\n  /// @dev Amount paid more than required will be refunded\n  /// @param _itemId id of the item\n  /// @param _invoiceId id of the invoice item sold\n  /// @param _numberOfItems number of the item to buy\n  /// @return true if items are bought\n  function buyItem(string memory _itemId, string memory _invoiceId, uint _numberOfItems)\n  public\n  payable\n  trade(_itemId,_numberOfItems)\n  returns(bool){\n    require(_numberOfItems>0, 'Number of items should be atleast 1');\n    require(items[_itemId].numberOfItems <= _numberOfItems, 'Out of stock');\n\n    itemsSold[_invoiceId].status = Status.Processing;\n    itemsSold[_invoiceId].numberOfItemsSold = _numberOfItems;\n    itemsSold[_invoiceId].buyer = msg.sender;\n    itemsSold[_invoiceId].timestamp = now;\n    itemsSold[_invoiceId].itemId = _itemId;\n    itemsSold[_invoiceId].amountPaid = _numberOfItems.mul(items[_itemId].price);\n\n    items[_itemId].numberOfItems = items[_itemId].numberOfItems.sub(1);\n\n    emit LogBuyItem(msg.sender, _itemId, _numberOfItems);\n\n    return true;\n  }\n\n  /// @notice Function called by seller to set item status to shipped\n  /// @dev Emits LogShipped\n  /// @dev Needs to be seller of the itemto access the function\n  /// @param _invoiceId id of the invoice id of item sold\n  /// @return true if items is udpated to shipped status\n  function shipItem(string memory _invoiceId)\n  public\n  returns(bool){\n    require(itemsSold[_invoiceId].status == Status.Processing, 'Item already shipped');\n    require(items[itemsSold[_invoiceId].itemId].seller == msg.sender, 'Action restricted to seller only');\n    itemsSold[_invoiceId].status = Status.Shipped;\n    emit LogShipped(msg.sender, _invoiceId, itemsSold[_invoiceId].itemId);\n    return true;\n  }\n\n  /// @notice Function called by buyer to set item status to received\n  /// @dev Emits LogReceived\n  /// @dev Needs to be buyer of the item to access the function\n  /// @param _invoiceId id of the invoice id of item sold\n  /// @return true if items is udpated to received status\n  function receiveItem(string memory _invoiceId)\n  public\n  isBuyer(_invoiceId)\n  returns(bool){\n    require(itemsSold[_invoiceId].status == Status.Shipped , 'Item not yet shipped');\n    require(itemsSold[_invoiceId].buyer == msg.sender, 'Action restricted to buyer only');\n    itemsSold[_invoiceId].status = Status.Received;\n    emit LogReceived(msg.sender, _invoiceId, itemsSold[_invoiceId].itemId);\n    return true;\n  }\n\n  /// @notice Function called by seller to refund for the item\n  /// @dev Emits LogRefund\n  /// @dev Needs to be seller of the item to access the function\n  /// @dev Amount is transfered from seller account to buyer account , any left over paid will transfered to the seller itself\n  /// @param _invoiceId id of the invoice id of item sold\n  /// @return true if refund is successfull\n  function refundItem(string memory _invoiceId)\n  public\n  payable\n  returns(bool){\n    string memory itemId = itemsSold[_invoiceId].itemId;\n    require(items[itemId].seller == msg.sender, 'Action restricted to seller only');\n\n    require(msg.value >= itemsSold[_invoiceId].amountPaid, 'Amount less than required');\n    require(itemsSold[_invoiceId].amountPaid > 0, 'Total amount to refund should be greater than zero');\n\n    itemsSold[_invoiceId].buyer.transfer(itemsSold[_invoiceId].amountPaid); // transfer to buyer\n\n    uint amountLeftOver = msg.value.sub(itemsSold[_invoiceId].amountPaid);\n    \n    if(amountLeftOver>0){\n      items[itemId].seller.transfer(amountLeftOver); // transfer any left over to seller\n    }\n    itemsSold[_invoiceId].status = Status.Refunded;\n    \n    emit LogRefund(msg.sender, itemsSold[_invoiceId].buyer, _invoiceId, itemId, itemsSold[_invoiceId].amountPaid);\n    return true;\n  }\n}",
  "sourcePath": "/home/qbuser/Desktop/Projects/temp/salePlace/contracts/SalePlace.sol",
  "compiler": {
    "name": "solc",
    "version": "0.5.8+commit.23d335f2.Emscripten.clang"
  },
  "schemaVersion": "3.0.11",
  "updatedAt": "2019-07-22T16:48:49.730Z",
  "devdoc": {
    "methods": {
      "addItem(string,string,string,string,uint256,uint256)": {
        "details": "Emits LogAddItem",
        "params": {
          "_description": "description of the item",
          "_image": "image url of the item",
          "_itemId": "id of the item",
          "_name": "name of the item",
          "_numberOfItems": "number of the item to sell",
          "_price": "price of the item"
        },
        "return": "true if item is created"
      },
      "buyItem(string,string,uint256)": {
        "details": "Emits LogBuyItemAmount paid more than required will be refunded",
        "params": {
          "_invoiceId": "id of the invoice item sold",
          "_itemId": "id of the item",
          "_numberOfItems": "number of the item to buy"
        },
        "return": "true if items are bought"
      },
      "getItem(string)": {
        "params": {
          "_itemId": "id of the item to fetch"
        },
        "return": "id, name, image , description , price , number of Items left, timestamp and seller address of the item"
      },
      "getItemSold(string)": {
        "params": {
          "_invoiceId": "invoice id of the item sold to fetch "
        },
        "return": "itemId, invoiceId, number of Items sold , status, timestamp, buyer address & amount paid"
      },
      "receiveItem(string)": {
        "details": "Emits LogReceivedNeeds to be buyer of the item to access the function",
        "params": {
          "_invoiceId": "id of the invoice id of item sold"
        },
        "return": "true if items is udpated to received status"
      },
      "refundItem(string)": {
        "details": "Emits LogRefundNeeds to be seller of the item to access the functionAmount is transfered from seller account to buyer account , any left over paid will transfered to the seller itself",
        "params": {
          "_invoiceId": "id of the invoice id of item sold"
        },
        "return": "true if refund is successfull"
      },
      "shipItem(string)": {
        "details": "Emits LogShippedNeeds to be seller of the itemto access the function",
        "params": {
          "_invoiceId": "id of the invoice id of item sold"
        },
        "return": "true if items is udpated to shipped status"
      },
      "updateItem(string,string,string,string,uint256,uint256)": {
        "details": "Emits LogUpdateItemNeed to be seller of the item to update",
        "params": {
          "_description": "description of the item",
          "_image": "image url of the item",
          "_itemId": "id of the item",
          "_name": "name of the item",
          "_numberOfItems": "number of the item to sell",
          "_price": "price of the item"
        },
        "return": "true if item is udpated"
      }
    }
  },
  "userdoc": {
    "methods": {
      "addItem(string,string,string,string,uint256,uint256)": {
        "notice": "Add item"
      },
      "buyItem(string,string,uint256)": {
        "notice": "Function to buy items"
      },
      "getItem(string)": {
        "notice": "Get am item based on item id"
      },
      "getItemSold(string)": {
        "notice": "Get item purcahsed details of the request user mapping for given item"
      },
      "receiveItem(string)": {
        "notice": "Function called by buyer to set item status to received"
      },
      "refundItem(string)": {
        "notice": "Function called by seller to refund for the item"
      },
      "shipItem(string)": {
        "notice": "Function called by seller to set item status to shipped"
      },
      "updateItem(string,string,string,string,uint256,uint256)": {
        "notice": "Update item"
      }
    }
  }
}