{
  "contractName": "SalePlace",
  "abi": [
    {
      "constant": true,
      "inputs": [
        {
          "name": "",
          "type": "uint256"
        }
      ],
      "name": "items",
      "outputs": [
        {
          "name": "name",
          "type": "string"
        },
        {
          "name": "image",
          "type": "string"
        },
        {
          "name": "description",
          "type": "string"
        },
        {
          "name": "price",
          "type": "uint256"
        },
        {
          "name": "numberOfItems",
          "type": "uint256"
        },
        {
          "name": "seller",
          "type": "address"
        }
      ],
      "payable": false,
      "stateMutability": "view",
      "type": "function"
    },
    {
      "inputs": [],
      "payable": false,
      "stateMutability": "nonpayable",
      "type": "constructor"
    },
    {
      "anonymous": false,
      "inputs": [
        {
          "indexed": false,
          "name": "seller",
          "type": "address"
        },
        {
          "indexed": false,
          "name": "itemId",
          "type": "uint256"
        },
        {
          "indexed": false,
          "name": "numberOfItems",
          "type": "uint256"
        },
        {
          "indexed": false,
          "name": "price",
          "type": "uint256"
        }
      ],
      "name": "LogAddItem",
      "type": "event"
    },
    {
      "anonymous": false,
      "inputs": [
        {
          "indexed": false,
          "name": "seller",
          "type": "address"
        },
        {
          "indexed": false,
          "name": "itemId",
          "type": "uint256"
        },
        {
          "indexed": false,
          "name": "numberOfItems",
          "type": "uint256"
        },
        {
          "indexed": false,
          "name": "price",
          "type": "uint256"
        }
      ],
      "name": "LogUpdateItem",
      "type": "event"
    },
    {
      "anonymous": false,
      "inputs": [
        {
          "indexed": false,
          "name": "buyer",
          "type": "address"
        },
        {
          "indexed": false,
          "name": "itemId",
          "type": "uint256"
        },
        {
          "indexed": false,
          "name": "numberOfItems",
          "type": "uint256"
        }
      ],
      "name": "LogBuyItem",
      "type": "event"
    },
    {
      "anonymous": false,
      "inputs": [
        {
          "indexed": false,
          "name": "seller",
          "type": "address"
        },
        {
          "indexed": false,
          "name": "itemId",
          "type": "uint256"
        }
      ],
      "name": "LogShipped",
      "type": "event"
    },
    {
      "anonymous": false,
      "inputs": [
        {
          "indexed": false,
          "name": "buyer",
          "type": "address"
        },
        {
          "indexed": false,
          "name": "itemId",
          "type": "uint256"
        }
      ],
      "name": "LogReceived",
      "type": "event"
    },
    {
      "anonymous": false,
      "inputs": [
        {
          "indexed": false,
          "name": "seller",
          "type": "address"
        },
        {
          "indexed": false,
          "name": "buyer",
          "type": "address"
        },
        {
          "indexed": false,
          "name": "itemId",
          "type": "uint256"
        },
        {
          "indexed": false,
          "name": "amountRefunded",
          "type": "uint256"
        }
      ],
      "name": "LogRefund",
      "type": "event"
    },
    {
      "constant": true,
      "inputs": [],
      "name": "getItemsSize",
      "outputs": [
        {
          "name": "",
          "type": "uint256"
        }
      ],
      "payable": false,
      "stateMutability": "view",
      "type": "function"
    },
    {
      "constant": true,
      "inputs": [],
      "name": "getItemsPurcahsed",
      "outputs": [
        {
          "name": "",
          "type": "uint256[]"
        }
      ],
      "payable": false,
      "stateMutability": "view",
      "type": "function"
    },
    {
      "constant": true,
      "inputs": [
        {
          "name": "_itemId",
          "type": "uint256"
        }
      ],
      "name": "getItem",
      "outputs": [
        {
          "name": "name",
          "type": "string"
        },
        {
          "name": "image",
          "type": "string"
        },
        {
          "name": "description",
          "type": "string"
        },
        {
          "name": "price",
          "type": "uint256"
        },
        {
          "name": "numberOfItems",
          "type": "uint256"
        },
        {
          "name": "seller",
          "type": "address"
        }
      ],
      "payable": false,
      "stateMutability": "view",
      "type": "function"
    },
    {
      "constant": true,
      "inputs": [
        {
          "name": "_itemId",
          "type": "uint256"
        }
      ],
      "name": "getItemPurcahsed",
      "outputs": [
        {
          "name": "",
          "type": "uint256"
        },
        {
          "name": "",
          "type": "uint256"
        },
        {
          "name": "",
          "type": "uint8"
        },
        {
          "name": "",
          "type": "address"
        }
      ],
      "payable": false,
      "stateMutability": "view",
      "type": "function"
    },
    {
      "constant": false,
      "inputs": [
        {
          "name": "_name",
          "type": "string"
        },
        {
          "name": "_image",
          "type": "string"
        },
        {
          "name": "_description",
          "type": "string"
        },
        {
          "name": "_price",
          "type": "uint256"
        },
        {
          "name": "_numberOfItems",
          "type": "uint256"
        }
      ],
      "name": "addItem",
      "outputs": [
        {
          "name": "",
          "type": "bool"
        }
      ],
      "payable": false,
      "stateMutability": "nonpayable",
      "type": "function"
    },
    {
      "constant": false,
      "inputs": [
        {
          "name": "_itemId",
          "type": "uint256"
        },
        {
          "name": "_name",
          "type": "string"
        },
        {
          "name": "_image",
          "type": "string"
        },
        {
          "name": "_description",
          "type": "string"
        },
        {
          "name": "_price",
          "type": "uint256"
        },
        {
          "name": "_numberOfItems",
          "type": "uint256"
        }
      ],
      "name": "updateItem",
      "outputs": [
        {
          "name": "",
          "type": "bool"
        }
      ],
      "payable": false,
      "stateMutability": "nonpayable",
      "type": "function"
    },
    {
      "constant": false,
      "inputs": [
        {
          "name": "_itemId",
          "type": "uint256"
        },
        {
          "name": "_numberOfItems",
          "type": "uint256"
        }
      ],
      "name": "buyItem",
      "outputs": [
        {
          "name": "",
          "type": "bool"
        }
      ],
      "payable": true,
      "stateMutability": "payable",
      "type": "function"
    },
    {
      "constant": false,
      "inputs": [
        {
          "name": "_itemId",
          "type": "uint256"
        },
        {
          "name": "_buyer",
          "type": "address"
        }
      ],
      "name": "shipItem",
      "outputs": [
        {
          "name": "",
          "type": "bool"
        }
      ],
      "payable": false,
      "stateMutability": "nonpayable",
      "type": "function"
    },
    {
      "constant": false,
      "inputs": [
        {
          "name": "_itemId",
          "type": "uint256"
        }
      ],
      "name": "receiveItem",
      "outputs": [
        {
          "name": "",
          "type": "bool"
        }
      ],
      "payable": false,
      "stateMutability": "nonpayable",
      "type": "function"
    },
    {
      "constant": false,
      "inputs": [
        {
          "name": "_itemId",
          "type": "uint256"
        },
        {
          "name": "_buyer",
          "type": "address"
        }
      ],
      "name": "refundItem",
      "outputs": [
        {
          "name": "",
          "type": "bool"
        }
      ],
      "payable": true,
      "stateMutability": "payable",
      "type": "function"
    }
  ],
  "bytecode": "0x608060405234801561001057600080fd5b506000808190555061295c806100276000396000f3fe60806040526004361061009c5760003560e01c8063a26be99911610064578063a26be999146105b2578063bb4f288d14610605578063bfb231d214610678578063c046e5cb14610845578063d514415414610870578063f75b59f41461090e5761009c565b8063246f56e0146100a15780633129e7731461010d57806375e8ae2a146102da57806387d60263146103405780639979c00914610562575b600080fd5b3480156100ad57600080fd5b506100b6610b3a565b6040518080602001828103825283818151815260200191508051906020019060200280838360005b838110156100f95780820151818401526020810190506100de565b505050509050019250505060405180910390f35b34801561011957600080fd5b506101466004803603602081101561013057600080fd5b8101908080359060200190929190505050610bcf565b604051808060200180602001806020018781526020018681526020018573ffffffffffffffffffffffffffffffffffffffff1673ffffffffffffffffffffffffffffffffffffffff16815260200184810384528a818151815260200191508051906020019080838360005b838110156101cc5780820151818401526020810190506101b1565b50505050905090810190601f1680156101f95780820380516001836020036101000a031916815260200191505b50848103835289818151815260200191508051906020019080838360005b83811015610232578082015181840152602081019050610217565b50505050905090810190601f16801561025f5780820380516001836020036101000a031916815260200191505b50848103825288818151815260200191508051906020019080838360005b8381101561029857808201518184015260208101905061027d565b50505050905090810190601f1680156102c55780820380516001836020036101000a031916815260200191505b50995050505050505050505060405180910390f35b610326600480360360408110156102f057600080fd5b8101908080359060200190929190803573ffffffffffffffffffffffffffffffffffffffff169060200190929190505050610e72565b604051808215151515815260200191505060405180910390f35b34801561034c57600080fd5b50610548600480360360a081101561036357600080fd5b810190808035906020019064010000000081111561038057600080fd5b82018360208201111561039257600080fd5b803590602001918460018302840111640100000000831117156103b457600080fd5b91908080601f016020809104026020016040519081016040528093929190818152602001838380828437600081840152601f19601f8201169050808301925050505050505091929192908035906020019064010000000081111561041757600080fd5b82018360208201111561042957600080fd5b8035906020019184600183028401116401000000008311171561044b57600080fd5b91908080601f016020809104026020016040519081016040528093929190818152602001838380828437600081840152601f19601f820116905080830192505050505050509192919290803590602001906401000000008111156104ae57600080fd5b8201836020820111156104c057600080fd5b803590602001918460018302840111640100000000831117156104e257600080fd5b91908080601f016020809104026020016040519081016040528093929190818152602001838380828437600081840152601f19601f82011690508083019250505050505050919291929080359060200190929190803590602001909291905050506112b0565b604051808215151515815260200191505060405180910390f35b6105986004803603604081101561057857600080fd5b810190808035906020019092919080359060200190929190505050611538565b604051808215151515815260200191505060405180910390f35b3480156105be57600080fd5b506105eb600480360360208110156105d557600080fd5b81019080803590602001909291905050506119fc565b604051808215151515815260200191505060405180910390f35b34801561061157600080fd5b5061065e6004803603604081101561062857600080fd5b8101908080359060200190929190803573ffffffffffffffffffffffffffffffffffffffff169060200190929190505050611ca5565b604051808215151515815260200191505060405180910390f35b34801561068457600080fd5b506106b16004803603602081101561069b57600080fd5b8101908080359060200190929190505050611f23565b604051808060200180602001806020018781526020018681526020018573ffffffffffffffffffffffffffffffffffffffff1673ffffffffffffffffffffffffffffffffffffffff16815260200184810384528a818151815260200191508051906020019080838360005b8381101561073757808201518184015260208101905061071c565b50505050905090810190601f1680156107645780820380516001836020036101000a031916815260200191505b50848103835289818151815260200191508051906020019080838360005b8381101561079d578082015181840152602081019050610782565b50505050905090810190601f1680156107ca5780820380516001836020036101000a031916815260200191505b50848103825288818151815260200191508051906020019080838360005b838110156108035780820151818401526020810190506107e8565b50505050905090810190601f1680156108305780820380516001836020036101000a031916815260200191505b50995050505050505050505060405180910390f35b34801561085157600080fd5b5061085a612147565b6040518082815260200191505060405180910390f35b34801561087c57600080fd5b506108a96004803603602081101561089357600080fd5b8101908080359060200190929190505050612150565b604051808581526020018481526020018360038111156108c557fe5b60ff1681526020018273ffffffffffffffffffffffffffffffffffffffff1673ffffffffffffffffffffffffffffffffffffffff16815260200194505050505060405180910390f35b34801561091a57600080fd5b50610b20600480360360c081101561093157600080fd5b81019080803590602001909291908035906020019064010000000081111561095857600080fd5b82018360208201111561096a57600080fd5b8035906020019184600183028401116401000000008311171561098c57600080fd5b91908080601f016020809104026020016040519081016040528093929190818152602001838380828437600081840152601f19601f820116905080830192505050505050509192919290803590602001906401000000008111156109ef57600080fd5b820183602082011115610a0157600080fd5b80359060200191846001830284011164010000000083111715610a2357600080fd5b91908080601f016020809104026020016040519081016040528093929190818152602001838380828437600081840152601f19601f82011690508083019250505050505050919291929080359060200190640100000000811115610a8657600080fd5b820183602082011115610a9857600080fd5b80359060200191846001830284011164010000000083111715610aba57600080fd5b91908080601f016020809104026020016040519081016040528093929190818152602001838380828437600081840152601f19601f82011690508083019250505050505050919291929080359060200190929190803590602001909291905050506122e9565b604051808215151515815260200191505060405180910390f35b6060600260003373ffffffffffffffffffffffffffffffffffffffff1673ffffffffffffffffffffffffffffffffffffffff168152602001908152602001600020805480602002602001604051908101604052809291908181526020018280548015610bc557602002820191906000526020600020905b815481526020019060010190808311610bb1575b5050505050905090565b60608060606000806000600160008881526020019081526020016000206000018054600181600116156101000203166002900480601f016020809104026020016040519081016040528092919081815260200182805460018160011615610100020316600290048015610c835780601f10610c5857610100808354040283529160200191610c83565b820191906000526020600020905b815481529060010190602001808311610c6657829003601f168201915b50505050509550600160008881526020019081526020016000206001018054600181600116156101000203166002900480601f016020809104026020016040519081016040528092919081815260200182805460018160011615610100020316600290048015610d345780601f10610d0957610100808354040283529160200191610d34565b820191906000526020600020905b815481529060010190602001808311610d1757829003601f168201915b5050505050945060016000888152602001908152602001600020600301549250600160008881526020019081526020016000206002018054600181600116156101000203166002900480601f016020809104026020016040519081016040528092919081815260200182805460018160011615610100020316600290048015610dfe5780601f10610dd357610100808354040283529160200191610dfe565b820191906000526020600020905b815481529060010190602001808311610de157829003601f168201915b50505050509350600160008881526020019081526020016000206004015491506001600088815260200190815260200160002060050160009054906101000a900473ffffffffffffffffffffffffffffffffffffffff16905085858585858595509550955095509550955091939550919395565b6000826000610e8185856125bc565b905060006001600087815260200190815260200160002060030154600360008881526020019081526020016000208381548110610eba57fe5b90600052602060002090600202016000015402905080341015610f45576040517f08c379a00000000000000000000000000000000000000000000000000000000081526004018080602001828103825260198152602001807f416d6f756e74206c657373207468616e2072657175697265640000000000000081525060200191505060405180910390fd5b600360008781526020019081526020016000208281548110610f6357fe5b906000526020600020906002020160010160019054906101000a900473ffffffffffffffffffffffffffffffffffffffff1673ffffffffffffffffffffffffffffffffffffffff166108fc829081150290604051600060405180830381858888f19350505050158015610fda573d6000803e3d6000fd5b506000600160008881526020019081526020016000206003015434039050600081111561107f576001600088815260200190815260200160002060050160009054906101000a900473ffffffffffffffffffffffffffffffffffffffff1673ffffffffffffffffffffffffffffffffffffffff166108fc829081150290604051600060405180830381858888f1935050505015801561107d573d6000803e3d6000fd5b505b6003806000898152602001908152602001600020848154811061109e57fe5b906000526020600020906002020160010160006101000a81548160ff021916908360038111156110ca57fe5b02179055507f62a9ae364e817816b031ee6a540dfd2a5bc1a812aa233ef18af50afa55b2933e33600360008a8152602001908152602001600020858154811061110f57fe5b906000526020600020906002020160010160019054906101000a900473ffffffffffffffffffffffffffffffffffffffff168985604051808573ffffffffffffffffffffffffffffffffffffffff1673ffffffffffffffffffffffffffffffffffffffff1681526020018473ffffffffffffffffffffffffffffffffffffffff1673ffffffffffffffffffffffffffffffffffffffff16815260200183815260200182815260200194505050505060405180910390a160019450505050600073ffffffffffffffffffffffffffffffffffffffff166001600083815260200190815260200160002060050160009054906101000a900473ffffffffffffffffffffffffffffffffffffffff1673ffffffffffffffffffffffffffffffffffffffff16141580156112a057503373ffffffffffffffffffffffffffffffffffffffff166001600083815260200190815260200160002060050160009054906101000a900473ffffffffffffffffffffffffffffffffffffffff1673ffffffffffffffffffffffffffffffffffffffff16145b6112a957600080fd5b5092915050565b600080821161130a576040517f08c379a00000000000000000000000000000000000000000000000000000000081526004018080602001828103825260238152602001806128ec6023913960400191505060405180910390fd5b60008311611363576040517f08c379a000000000000000000000000000000000000000000000000000000000815260040180806020018281038252602281526020018061290f6022913960400191505060405180910390fd5b61136b6126e9565b8681600001819052508581602001819052508481604001819052508381606001818152505082816080018181525050338160a0019073ffffffffffffffffffffffffffffffffffffffff16908173ffffffffffffffffffffffffffffffffffffffff16815250508060016000805481526020019081526020016000206000820151816000019080519060200190611403929190612735565b506020820151816001019080519060200190611420929190612735565b50604082015181600201908051906020019061143d929190612735565b50606082015181600301556080820151816004015560a08201518160050160006101000a81548173ffffffffffffffffffffffffffffffffffffffff021916908373ffffffffffffffffffffffffffffffffffffffff1602179055509050507f0c3ed3a01367e3423eaaf955dcd12fa7efdbd2bb6b47c7d53c5fe12aa3a578fc336000548587604051808573ffffffffffffffffffffffffffffffffffffffff1673ffffffffffffffffffffffffffffffffffffffff16815260200184815260200183815260200182815260200194505050505060405180910390a16000808154809291906001019190505550600191505095945050505050565b6000828260008411611595576040517f08c379a00000000000000000000000000000000000000000000000000000000081526004018080602001828103825260238152602001806128ec6023913960400191505060405180910390fd5b8360016000878152602001908152602001600020600401541015611621576040517f08c379a000000000000000000000000000000000000000000000000000000000815260040180806020018281038252600c8152602001807f4f7574206f662073746f636b000000000000000000000000000000000000000081525060200191505060405180910390fd5b6116296127b5565b60008160200190600381111561163b57fe5b9081600381111561164857fe5b815250508481600001818152505033816040019073ffffffffffffffffffffffffffffffffffffffff16908173ffffffffffffffffffffffffffffffffffffffff16815250506003600087815260200190815260200160002081908060018154018082558091505090600182039060005260206000209060020201600090919290919091506000820151816000015560208201518160010160006101000a81548160ff021916908360038111156116fb57fe5b021790555060408201518160010160016101000a81548173ffffffffffffffffffffffffffffffffffffffff021916908373ffffffffffffffffffffffffffffffffffffffff160217905550505050600180600088815260200190815260200160002060040154036001600088815260200190815260200160002060040181905550600260003373ffffffffffffffffffffffffffffffffffffffff1673ffffffffffffffffffffffffffffffffffffffff1681526020019081526020016000208690806001815401808255809150509060018203906000526020600020016000909192909190915055507fe56e549ccaa711e7c800471bcd722ba07bfcb10da566b722c68255367a16dfb3338787604051808473ffffffffffffffffffffffffffffffffffffffff1673ffffffffffffffffffffffffffffffffffffffff168152602001838152602001828152602001935050505060405180910390a160019350506000600160008481526020019081526020016000206003015482029050803410156118f1576040517f08c379a00000000000000000000000000000000000000000000000000000000081526004018080602001828103825260198152602001807f416d6f756e74206c657373207468616e2072657175697265640000000000000081525060200191505060405180910390fd5b6000600160008581526020019081526020016000206003015434039050600081111561195f573373ffffffffffffffffffffffffffffffffffffffff166108fc829081150290604051600060405180830381858888f1935050505015801561195d573d6000803e3d6000fd5b505b6001600085815260200190815260200160002060050160009054906101000a900473ffffffffffffffffffffffffffffffffffffffff1673ffffffffffffffffffffffffffffffffffffffff166108fc60016000878152602001908152602001600020600301549081150290604051600060405180830381858888f193505050501580156119f1573d6000803e3d6000fd5b505050505092915050565b6000816000611a0b84336125bc565b905060016003811115611a1a57fe5b600360008681526020019081526020016000208281548110611a3857fe5b906000526020600020906002020160010160009054906101000a900460ff166003811115611a6257fe5b14611ad5576040517f08c379a00000000000000000000000000000000000000000000000000000000081526004018080602001828103825260148152602001807f4974656d206e6f7420796574207368697070656400000000000000000000000081525060200191505060405180910390fd5b6002600360008681526020019081526020016000208281548110611af557fe5b906000526020600020906002020160010160006101000a81548160ff02191690836003811115611b2157fe5b02179055507f60e4c1ac84c9e2c4c0aa82b86b3b1ddf0b1b73fbbeb74c8bc8f8f06041ccfdf63385604051808373ffffffffffffffffffffffffffffffffffffffff1673ffffffffffffffffffffffffffffffffffffffff1681526020018281526020019250505060405180910390a16001925050600080905060008090505b600054811015611c40573373ffffffffffffffffffffffffffffffffffffffff16600360008581526020019081526020016000208281548110611be057fe5b906000526020600020906002020160010160019054906101000a900473ffffffffffffffffffffffffffffffffffffffff1673ffffffffffffffffffffffffffffffffffffffff161415611c3357600191505b8080600101915050611ba1565b506001151581151514611c9e576040517f08c379a00000000000000000000000000000000000000000000000000000000081526004018080602001828103825260248152602001806128c86024913960400191505060405180910390fd5b5050919050565b6000826000611cb485856125bc565b905060006003811115611cc357fe5b600360008781526020019081526020016000208281548110611ce157fe5b906000526020600020906002020160010160009054906101000a900460ff166003811115611d0b57fe5b14611d7e576040517f08c379a00000000000000000000000000000000000000000000000000000000081526004018080602001828103825260148152602001807f4974656d20616c7265616479207368697070656400000000000000000000000081525060200191505060405180910390fd5b6001600360008781526020019081526020016000208281548110611d9e57fe5b906000526020600020906002020160010160006101000a81548160ff02191690836003811115611dca57fe5b02179055507f16199cdfa42a8edbc4bda0327806f66dc67ad1521742540f5c192b986e254ac73386604051808373ffffffffffffffffffffffffffffffffffffffff1673ffffffffffffffffffffffffffffffffffffffff1681526020018281526020019250505060405180910390a16001925050600073ffffffffffffffffffffffffffffffffffffffff166001600083815260200190815260200160002060050160009054906101000a900473ffffffffffffffffffffffffffffffffffffffff1673ffffffffffffffffffffffffffffffffffffffff1614158015611f1357503373ffffffffffffffffffffffffffffffffffffffff166001600083815260200190815260200160002060050160009054906101000a900473ffffffffffffffffffffffffffffffffffffffff1673ffffffffffffffffffffffffffffffffffffffff16145b611f1c57600080fd5b5092915050565b6001602052806000526040600020600091509050806000018054600181600116156101000203166002900480601f016020809104026020016040519081016040528092919081815260200182805460018160011615610100020316600290048015611fcf5780601f10611fa457610100808354040283529160200191611fcf565b820191906000526020600020905b815481529060010190602001808311611fb257829003601f168201915b505050505090806001018054600181600116156101000203166002900480601f01602080910402602001604051908101604052809291908181526020018280546001816001161561010002031660029004801561206d5780601f106120425761010080835404028352916020019161206d565b820191906000526020600020905b81548152906001019060200180831161205057829003601f168201915b505050505090806002018054600181600116156101000203166002900480601f01602080910402602001604051908101604052809291908181526020018280546001816001161561010002031660029004801561210b5780601f106120e05761010080835404028352916020019161210b565b820191906000526020600020905b8154815290600101906020018083116120ee57829003601f168201915b5050505050908060030154908060040154908060050160009054906101000a900473ffffffffffffffffffffffffffffffffffffffff16905086565b60008054905090565b60008060008061215e6127b5565b60008090505b6000548110156122c5573373ffffffffffffffffffffffffffffffffffffffff166003600089815260200190815260200160002082815481106121a357fe5b906000526020600020906002020160010160019054906101000a900473ffffffffffffffffffffffffffffffffffffffff1673ffffffffffffffffffffffffffffffffffffffff1614156122b85760036000888152602001908152602001600020818154811061220f57fe5b9060005260206000209060020201604051806060016040529081600082015481526020016001820160009054906101000a900460ff16600381111561225057fe5b600381111561225b57fe5b81526020016001820160019054906101000a900473ffffffffffffffffffffffffffffffffffffffff1673ffffffffffffffffffffffffffffffffffffffff1673ffffffffffffffffffffffffffffffffffffffff168152505091505b8080600101915050612164565b50858160000151826020015183604001518090509450945094509450509193509193565b60008660008311612345576040517f08c379a00000000000000000000000000000000000000000000000000000000081526004018080602001828103825260238152602001806128ec6023913960400191505060405180910390fd5b6000841161239e576040517f08c379a000000000000000000000000000000000000000000000000000000000815260040180806020018281038252602281526020018061290f6022913960400191505060405180910390fd5b86600160008a815260200190815260200160002060000190805190602001906123c89291906127f7565b5085600160008a815260200190815260200160002060010190805190602001906123f39291906127f7565b5084600160008a8152602001908152602001600020600201908051906020019061241e9291906127f7565b5083600160008a81526020019081526020016000206003018190555082600160008a8152602001908152602001600020600401819055507f1af3b935cf3620f1b03e956694a76e6a4aedbf4cccbd01898c45b4b7a89010e233898587604051808573ffffffffffffffffffffffffffffffffffffffff1673ffffffffffffffffffffffffffffffffffffffff16815260200184815260200183815260200182815260200194505050505060405180910390a160019150600073ffffffffffffffffffffffffffffffffffffffff166001600083815260200190815260200160002060050160009054906101000a900473ffffffffffffffffffffffffffffffffffffffff1673ffffffffffffffffffffffffffffffffffffffff16141580156125a857503373ffffffffffffffffffffffffffffffffffffffff166001600083815260200190815260200160002060050160009054906101000a900473ffffffffffffffffffffffffffffffffffffffff1673ffffffffffffffffffffffffffffffffffffffff16145b6125b157600080fd5b509695505050505050565b600080600080905060008090505b6003600087815260200190815260200160002080549050811015612680578473ffffffffffffffffffffffffffffffffffffffff1660036000888152602001908152602001600020828154811061261d57fe5b906000526020600020906002020160010160019054906101000a900473ffffffffffffffffffffffffffffffffffffffff1673ffffffffffffffffffffffffffffffffffffffff16141561267357809250600191505b80806001019150506125ca565b5060011515811515146126de576040517f08c379a000000000000000000000000000000000000000000000000000000000815260040180806020018281038252602b81526020018061289d602b913960400191505060405180910390fd5b819250505092915050565b6040518060c001604052806060815260200160608152602001606081526020016000815260200160008152602001600073ffffffffffffffffffffffffffffffffffffffff1681525090565b828054600181600116156101000203166002900490600052602060002090601f016020900481019282601f1061277657805160ff19168380011785556127a4565b828001600101855582156127a4579182015b828111156127a3578251825591602001919060010190612788565b5b5090506127b19190612877565b5090565b604051806060016040528060008152602001600060038111156127d457fe5b8152602001600073ffffffffffffffffffffffffffffffffffffffff1681525090565b828054600181600116156101000203166002900490600052602060002090601f016020900481019282601f1061283857805160ff1916838001178555612866565b82800160010185558215612866579182015b8281111561286557825182559160200191906001019061284a565b5b5090506128739190612877565b5090565b61289991905b8082111561289557600081600090555060010161287d565b5090565b9056fe4974656d20736f6c64206e6f7420666f756e6420666f7220676976656e206275796572206164647265737373686f756c64206265206120627579657220746f2070726f6365737320666f72776172644e756d626572206f66206974656d732073686f756c642062652061746c6561737420315072696365206f66206974656d732063616e6e6f742062652061746c656173742030a165627a7a7230582060dd78ca3597e70ecc66048d49e55f313d7333c839660efd8c1e7f7b54cbb9cc0029",
  "source": "pragma solidity ^0.5.0;\n\n/// @title Sale Place Solidity Contract\n/// @author Larry A. Gardner\n/// @notice You can use this contract for selling an item with mutiple users\n/// @dev All function calls are currently implemented without side effects\ncontract SalePlace {\n\n  /* A variable to track the item count/sequence */\n  uint itemId;\n\n  /* Staus Enum used bu ItemSold ,with 4 states\n    Processing\n    Shipped\n    Received\n    Refunded\n  */\n  enum Status { Processing ,Shipped, Received, Refunded }\n\n  struct Item {\n    string name;\n    string image;\n    string description;\n    uint price;\n    uint numberOfItems;\n    address payable seller;\n  }\n\n  struct ItemSold{\n    uint numberOfItemsSold;\n    Status status;\n    address payable buyer;\n  }\n\n  mapping (uint => Item) public items;\n  mapping (address => uint[] ) itemsPurcahsed;\n  mapping (uint => ItemSold[] ) itemsSold;\n\n  constructor() public{\n    itemId = 0;\n  }\n\n  modifier isSeller(uint _itemId){\n    _;\n    require(items[_itemId].seller!= address(0) && items[_itemId].seller == msg.sender);\n  }\n\n  modifier isBuyer(uint _itemId){\n    _;\n    bool havePurchase = false;\n    for( uint index = 0 ; index < itemId; index++){\n        if(itemsSold[_itemId][index].buyer == msg.sender){\n            havePurchase = true;\n        }\n    }\n    require(havePurchase == true, \"should be a buyer to process forward\");\n  }\n\n\n  /// @notice Trade logic called when items are purchased by a user\n  /// @param _itemId id of the item to fetch \n  /// @param _numberOfItems number of the items purchased\n  /// @dev the function will trade amount from buyer to seller , also any left over amount will be transfered to buyer itself\n  modifier trade (uint _itemId, uint _numberOfItems)  {\n    _;\n    uint totalAmount = _numberOfItems * items[_itemId].price;\n    require(msg.value >= totalAmount , 'Amount less than required');\n\n    uint amountToRefund = msg.value - items[_itemId].price;\n    if(amountToRefund>0){\n      msg.sender.transfer(amountToRefund); // transfer left over to buyer\n    }\n    items[_itemId].seller.transfer(items[_itemId].price); // send the money to seller\n  }\n\n  event LogAddItem(address seller, uint itemId , uint numberOfItems, uint price);\n  event LogUpdateItem(address seller, uint itemId , uint numberOfItems, uint price);\n  event LogBuyItem(address buyer, uint itemId , uint numberOfItems);\n  event LogShipped(address seller, uint itemId);\n  event LogReceived(address buyer, uint itemId);\n  event LogRefund(address seller, address buyer, uint itemId, uint amountRefunded);\n\n  /// @notice Get items size of the mapping\n  /// @return total items present\n  function getItemsSize()\n  public\n  view returns (uint) {\n    return itemId;\n  }\n\n  /// @notice Get list of item id's purcahsed by user\n  /// @return array of itemIds\n  function getItemsPurcahsed()\n  public\n  view returns (uint[] memory) {\n    return itemsPurcahsed[msg.sender];\n  }\n\n  /// @notice Get am item based on item id\n  /// @param _itemId id of the item to fetch\n  /// @return name, image , description , price , number of Items left and seller address of the item\n  function getItem(uint _itemId)\n  public\n  view returns (string memory name, string memory image, string memory description, uint price, uint numberOfItems, address seller) {\n    name = items[_itemId].name;\n    image = items[_itemId].image;\n    price = items[_itemId].price;\n    description = items[_itemId].description;\n    numberOfItems = items[_itemId].numberOfItems;\n    seller = items[_itemId].seller;\n    return (name, image, description, price, numberOfItems, seller);\n  }\n\n  /// @notice Get item purcahsed details of the request user mapping for given item\n  /// @param _itemId id of the item to fetch \n  /// @return itemId, number of Items sold , status and buyer address\n  function getItemPurcahsed(uint _itemId) \n  public \n  view \n  returns (uint , uint , Status, address) {\n    ItemSold memory itemSold;\n    for( uint index = 0 ; index < itemId; index++){\n        if(itemsSold[_itemId][index].buyer == msg.sender){\n            itemSold = itemsSold[_itemId][index];\n        }\n    }\n    return (_itemId, itemSold.numberOfItemsSold, itemSold.status, itemSold.buyer);\n  }\n  \n  /// @notice Get item sold array index for a given item id and buyer address\n  /// @param _itemId id of the item to fetch \n  /// @param _buyer address of the buyer \n  /// @return itemId, number of Items sold , status and buyer address\n  function getItemSoldIndex(uint _itemId, address _buyer)\n  private\n  view\n  returns(uint){\n    uint itemIndex;\n    bool isFound = false;\n    for( uint index = 0 ; index < itemsSold[_itemId].length; index++){\n        if(itemsSold[_itemId][index].buyer == _buyer){\n            itemIndex = index;\n            isFound = true;\n        }\n    }\n    require(isFound == true, 'Item sold not found for given buyer address');\n    return itemIndex;\n  }\n\n  /// @notice Add item \n  /// @dev Emits LogAddItem\n  /// @param _name name of the item\n  /// @param _image image url of the item\n  /// @param _description description of the item\n  /// @param _price price of the item\n  /// @param _numberOfItems number of the item to sell\n  /// @return true if item is created\n  function addItem(string memory _name, string memory _image, string memory _description, uint _price, uint _numberOfItems)\n  public\n  returns(bool){\n    require(_numberOfItems>0 , 'Number of items should be atleast 1');\n    require(_price>0 , 'Price of items cannot be atleast 0');\n    Item memory newItem;\n    newItem.name = _name;\n    newItem.image = _image;\n    newItem.description = _description;\n    newItem.price = _price;\n    newItem.numberOfItems = _numberOfItems;\n    newItem.seller = msg.sender;\n    items[itemId] = newItem;\n    emit LogAddItem(msg.sender, itemId, _numberOfItems, _price);\n    itemId++;\n    return true;\n  }\n\n  /// @notice Update item \n  /// @dev Emits LogUpdateItem\n  /// @dev Need to be seller of the item to update\n  /// @param _itemId id of the item\n  /// @param _name name of the item\n  /// @param _image image url of the item\n  /// @param _description description of the item\n  /// @param _price price of the item\n  /// @param _numberOfItems number of the item to sell\n  /// @return true if item is udpated\n  function updateItem(uint _itemId, string memory _name, string memory _image, string memory _description, uint _price, uint _numberOfItems)\n  public\n  isSeller(_itemId)\n  returns(bool){\n    require(_numberOfItems>0 , 'Number of items should be atleast 1');\n    require(_price>0 , 'Price of items cannot be atleast 0');\n    items[_itemId].name = _name;\n    items[_itemId].image = _image;\n    items[_itemId].description = _description;\n    items[_itemId].price = _price;\n    items[_itemId].numberOfItems = _numberOfItems;\n    emit LogUpdateItem(msg.sender, _itemId, _numberOfItems, _price);\n    return true;\n  }\n\n  /// @notice Function to buy items\n  /// @dev Emits LogBuyItem\n  /// @dev Amount paid more than required will be refunded\n  /// @param _itemId id of the item\n  /// @param _numberOfItems number of the item to buy\n  /// @return true if items are bought\n  function buyItem(uint _itemId, uint _numberOfItems) \n  public \n  payable\n  trade(_itemId,_numberOfItems)\n  returns(bool){\n    require(_numberOfItems>0 , 'Number of items should be atleast 1');\n    require(items[_itemId].numberOfItems >= _numberOfItems, 'Out of stock');\n\n    ItemSold memory newItemSold;\n    newItemSold.status = Status.Processing;\n    newItemSold.numberOfItemsSold = _numberOfItems;\n    newItemSold.buyer = msg.sender;\n    itemsSold[_itemId].push(newItemSold);\n\n    items[_itemId].numberOfItems = items[_itemId].numberOfItems - 1;\n\n    itemsPurcahsed[msg.sender].push(_itemId);\n\n    emit LogBuyItem(msg.sender, _itemId , _numberOfItems);\n\n    return true;\n  }\n\n  /// @notice Function called by seller to set item status to shipped\n  /// @dev Emits LogShipped\n  /// @dev Needs to be seller of the itemto access the function\n  /// @param _itemId id of the item\n  /// @param _buyer address of buyer\n  /// @return true if items is udpated to shipped status\n  function shipItem(uint _itemId, address _buyer)\n  public\n  isSeller(_itemId)\n  returns(bool){\n    uint itemIndex = getItemSoldIndex(_itemId, _buyer);\n    require(itemsSold[_itemId][itemIndex].status == Status.Processing , 'Item already shipped');\n    itemsSold[_itemId][itemIndex].status = Status.Shipped;\n    emit LogShipped(msg.sender, _itemId);\n    return true;\n  }\n\n  /// @notice Function called by buyer to set item status to received\n  /// @dev Emits LogReceived\n  /// @dev Needs to be buyer of the item to access the function\n  /// @param _itemId id of the item\n  /// @return true if items is udpated to received status\n  function receiveItem(uint _itemId)\n  public\n  isBuyer(_itemId)\n  returns(bool){\n    uint itemIndex = getItemSoldIndex(_itemId, msg.sender);\n    require(itemsSold[_itemId][itemIndex].status == Status.Shipped , 'Item not yet shipped');\n    itemsSold[_itemId][itemIndex].status = Status.Received;\n    emit LogReceived(msg.sender, _itemId);\n    return true;\n  }\n\n  /// @notice Function called by seller to refund for the item\n  /// @dev Emits LogRefund\n  /// @dev Needs to be seller of the item to access the function\n  /// @dev Amount is transfered from seller account to buyer account , any left over paid will transfered to the seller itself\n  /// @param _itemId id of the item\n  /// @param _buyer address of buyer\n  /// @return true if refund is successfull\n  function refundItem(uint _itemId, address _buyer)\n  public \n  payable\n  isSeller(_itemId)\n  returns(bool){\n    uint itemIndex = getItemSoldIndex(_itemId, _buyer);\n    uint totalAmount = itemsSold[_itemId][itemIndex].numberOfItemsSold * items[_itemId].price;\n    require(msg.value >= totalAmount , 'Amount less than required');\n    \n    itemsSold[_itemId][itemIndex].buyer.transfer(totalAmount); // transfer to buyer\n\n    uint amountLeftOver = msg.value - items[_itemId].price;\n    if(amountLeftOver>0){\n      items[_itemId].seller.transfer(amountLeftOver); // transfer any left over to seller\n    }\n    itemsSold[_itemId][itemIndex].status = Status.Refunded;\n    emit LogRefund(msg.sender, itemsSold[_itemId][itemIndex].buyer, _itemId, totalAmount);\n    return true;\n  }\n}",
  "sourcePath": "/home/qbuser/Desktop/Projects/temp/salePlace/contracts/SalePlace.sol",
  "compiler": {
    "name": "solc",
    "version": "0.5.8+commit.23d335f2.Emscripten.clang"
  },
  "schemaVersion": "3.0.11",
  "updatedAt": "2019-07-11T18:00:30.675Z",
  "devdoc": {
    "author": "Larry A. Gardner",
    "details": "All function calls are currently implemented without side effects",
    "methods": {
      "addItem(string,string,string,uint256,uint256)": {
        "details": "Emits LogAddItem",
        "params": {
          "_description": "description of the item",
          "_image": "image url of the item",
          "_name": "name of the item",
          "_numberOfItems": "number of the item to sell",
          "_price": "price of the item"
        },
        "return": "true if item is created"
      },
      "buyItem(uint256,uint256)": {
        "details": "Emits LogBuyItemAmount paid more than required will be refunded",
        "params": {
          "_itemId": "id of the item",
          "_numberOfItems": "number of the item to buy"
        },
        "return": "true if items are bought"
      },
      "getItem(uint256)": {
        "params": {
          "_itemId": "id of the item to fetch"
        },
        "return": "name, image , description , price , number of Items left and seller address of the item"
      },
      "getItemPurcahsed(uint256)": {
        "params": {
          "_itemId": "id of the item to fetch "
        },
        "return": "itemId, number of Items sold , status and buyer address"
      },
      "getItemsPurcahsed()": {
        "return": "array of itemIds"
      },
      "getItemsSize()": {
        "return": "total items present"
      },
      "receiveItem(uint256)": {
        "details": "Emits LogReceivedNeeds to be buyer of the item to access the function",
        "params": {
          "_itemId": "id of the item"
        },
        "return": "true if items is udpated to received status"
      },
      "refundItem(uint256,address)": {
        "details": "Emits LogRefundNeeds to be seller of the item to access the functionAmount is transfered from seller account to buyer account , any left over paid will transfered to the seller itself",
        "params": {
          "_buyer": "address of buyer",
          "_itemId": "id of the item"
        },
        "return": "true if refund is successfull"
      },
      "shipItem(uint256,address)": {
        "details": "Emits LogShippedNeeds to be seller of the itemto access the function",
        "params": {
          "_buyer": "address of buyer",
          "_itemId": "id of the item"
        },
        "return": "true if items is udpated to shipped status"
      },
      "updateItem(uint256,string,string,string,uint256,uint256)": {
        "details": "Emits LogUpdateItemNeed to be seller of the item to update",
        "params": {
          "_description": "description of the item",
          "_image": "image url of the item",
          "_itemId": "id of the item",
          "_name": "name of the item",
          "_numberOfItems": "number of the item to sell",
          "_price": "price of the item"
        },
        "return": "true if item is udpated"
      }
    },
    "title": "Sale Place Solidity Contract"
  },
  "userdoc": {
    "methods": {
      "addItem(string,string,string,uint256,uint256)": {
        "notice": "Add item "
      },
      "buyItem(uint256,uint256)": {
        "notice": "Function to buy items"
      },
      "getItem(uint256)": {
        "notice": "Get am item based on item id"
      },
      "getItemPurcahsed(uint256)": {
        "notice": "Get item purcahsed details of the request user mapping for given item"
      },
      "getItemsPurcahsed()": {
        "notice": "Get list of item id's purcahsed by user"
      },
      "getItemsSize()": {
        "notice": "Get items size of the mapping"
      },
      "receiveItem(uint256)": {
        "notice": "Function called by buyer to set item status to received"
      },
      "refundItem(uint256,address)": {
        "notice": "Function called by seller to refund for the item"
      },
      "shipItem(uint256,address)": {
        "notice": "Function called by seller to set item status to shipped"
      },
      "updateItem(uint256,string,string,string,uint256,uint256)": {
        "notice": "Update item "
      }
    },
    "notice": "You can use this contract for selling an item with mutiple users"
  }
}