{
  "contractName": "SalePlace",
  "abi": [
    {
      "anonymous": false,
      "inputs": [
        {
          "indexed": false,
          "name": "seller",
          "type": "address"
        },
        {
          "indexed": false,
          "name": "itemId",
          "type": "string"
        },
        {
          "indexed": false,
          "name": "numberOfItems",
          "type": "uint256"
        },
        {
          "indexed": false,
          "name": "price",
          "type": "uint256"
        }
      ],
      "name": "LogAddItem",
      "type": "event"
    },
    {
      "anonymous": false,
      "inputs": [
        {
          "indexed": false,
          "name": "seller",
          "type": "address"
        },
        {
          "indexed": false,
          "name": "itemId",
          "type": "string"
        },
        {
          "indexed": false,
          "name": "numberOfItems",
          "type": "uint256"
        },
        {
          "indexed": false,
          "name": "price",
          "type": "uint256"
        }
      ],
      "name": "LogUpdateItem",
      "type": "event"
    },
    {
      "anonymous": false,
      "inputs": [
        {
          "indexed": false,
          "name": "buyer",
          "type": "address"
        },
        {
          "indexed": false,
          "name": "invoiceId",
          "type": "string"
        },
        {
          "indexed": false,
          "name": "numberOfItems",
          "type": "uint256"
        }
      ],
      "name": "LogBuyItem",
      "type": "event"
    },
    {
      "anonymous": false,
      "inputs": [
        {
          "indexed": false,
          "name": "seller",
          "type": "address"
        },
        {
          "indexed": false,
          "name": "invoiceId",
          "type": "string"
        },
        {
          "indexed": false,
          "name": "itemId",
          "type": "string"
        }
      ],
      "name": "LogShipped",
      "type": "event"
    },
    {
      "anonymous": false,
      "inputs": [
        {
          "indexed": false,
          "name": "buyer",
          "type": "address"
        },
        {
          "indexed": false,
          "name": "invoiceId",
          "type": "string"
        },
        {
          "indexed": false,
          "name": "itemId",
          "type": "string"
        }
      ],
      "name": "LogReceived",
      "type": "event"
    },
    {
      "anonymous": false,
      "inputs": [
        {
          "indexed": false,
          "name": "seller",
          "type": "address"
        },
        {
          "indexed": false,
          "name": "buyer",
          "type": "address"
        },
        {
          "indexed": false,
          "name": "invoiceId",
          "type": "string"
        },
        {
          "indexed": false,
          "name": "itemId",
          "type": "string"
        },
        {
          "indexed": false,
          "name": "amountRefunded",
          "type": "uint256"
        }
      ],
      "name": "LogRefund",
      "type": "event"
    },
    {
      "constant": true,
      "inputs": [
        {
          "name": "_itemId",
          "type": "string"
        }
      ],
      "name": "getItem",
      "outputs": [
        {
          "name": "id",
          "type": "string"
        },
        {
          "name": "name",
          "type": "string"
        },
        {
          "name": "image",
          "type": "string"
        },
        {
          "name": "description",
          "type": "string"
        },
        {
          "name": "price",
          "type": "uint256"
        },
        {
          "name": "numberOfItems",
          "type": "uint256"
        },
        {
          "name": "seller",
          "type": "address"
        },
        {
          "name": "timestamp",
          "type": "uint256"
        }
      ],
      "payable": false,
      "stateMutability": "view",
      "type": "function"
    },
    {
      "constant": false,
      "inputs": [
        {
          "name": "_itemId",
          "type": "string"
        },
        {
          "name": "_name",
          "type": "string"
        },
        {
          "name": "_image",
          "type": "string"
        },
        {
          "name": "_description",
          "type": "string"
        },
        {
          "name": "_price",
          "type": "uint256"
        },
        {
          "name": "_numberOfItems",
          "type": "uint256"
        }
      ],
      "name": "addItem",
      "outputs": [
        {
          "name": "",
          "type": "bool"
        }
      ],
      "payable": false,
      "stateMutability": "nonpayable",
      "type": "function"
    },
    {
      "constant": false,
      "inputs": [
        {
          "name": "_itemId",
          "type": "string"
        },
        {
          "name": "_name",
          "type": "string"
        },
        {
          "name": "_image",
          "type": "string"
        },
        {
          "name": "_description",
          "type": "string"
        },
        {
          "name": "_price",
          "type": "uint256"
        },
        {
          "name": "_numberOfItems",
          "type": "uint256"
        }
      ],
      "name": "updateItem",
      "outputs": [
        {
          "name": "",
          "type": "bool"
        }
      ],
      "payable": false,
      "stateMutability": "nonpayable",
      "type": "function"
    },
    {
      "constant": false,
      "inputs": [
        {
          "name": "_itemId",
          "type": "string"
        },
        {
          "name": "_invoiceId",
          "type": "string"
        },
        {
          "name": "_numberOfItems",
          "type": "uint256"
        }
      ],
      "name": "buyItem",
      "outputs": [
        {
          "name": "",
          "type": "bool"
        }
      ],
      "payable": true,
      "stateMutability": "payable",
      "type": "function"
    },
    {
      "constant": false,
      "inputs": [
        {
          "name": "_invoiceId",
          "type": "string"
        }
      ],
      "name": "shipItem",
      "outputs": [
        {
          "name": "",
          "type": "bool"
        }
      ],
      "payable": false,
      "stateMutability": "nonpayable",
      "type": "function"
    },
    {
      "constant": false,
      "inputs": [
        {
          "name": "_invoiceId",
          "type": "string"
        }
      ],
      "name": "receiveItem",
      "outputs": [
        {
          "name": "",
          "type": "bool"
        }
      ],
      "payable": false,
      "stateMutability": "nonpayable",
      "type": "function"
    },
    {
      "constant": false,
      "inputs": [
        {
          "name": "_invoiceId",
          "type": "string"
        }
      ],
      "name": "refundItem",
      "outputs": [
        {
          "name": "",
          "type": "bool"
        }
      ],
      "payable": true,
      "stateMutability": "payable",
      "type": "function"
    }
  ],
  "bytecode": "0x608060405234801561001057600080fd5b50613922806100206000396000f3fe6080604052600436106100705760003560e01c80635fa670d81161004e5780635fa670d8146104ee578063a1fc26e414610662578063b6010fcd1461091b578063e5998ea014610be857610070565b80631840a8bb14610075578063529903751461032e57806356eec68d1461040e575b600080fd5b34801561008157600080fd5b50610314600480360360c081101561009857600080fd5b81019080803590602001906401000000008111156100b557600080fd5b8201836020820111156100c757600080fd5b803590602001918460018302840111640100000000831117156100e957600080fd5b91908080601f016020809104026020016040519081016040528093929190818152602001838380828437600081840152601f19601f8201169050808301925050505050505091929192908035906020019064010000000081111561014c57600080fd5b82018360208201111561015e57600080fd5b8035906020019184600183028401116401000000008311171561018057600080fd5b91908080601f016020809104026020016040519081016040528093929190818152602001838380828437600081840152601f19601f820116905080830192505050505050509192919290803590602001906401000000008111156101e357600080fd5b8201836020820111156101f557600080fd5b8035906020019184600183028401116401000000008311171561021757600080fd5b91908080601f016020809104026020016040519081016040528093929190818152602001838380828437600081840152601f19601f8201169050808301925050505050505091929192908035906020019064010000000081111561027a57600080fd5b82018360208201111561028c57600080fd5b803590602001918460018302840111640100000000831117156102ae57600080fd5b91908080601f016020809104026020016040519081016040528093929190818152602001838380828437600081840152601f19601f8201169050808301925050505050505091929192908035906020019092919080359060200190929190505050610cbb565b604051808215151515815260200191505060405180910390f35b34801561033a57600080fd5b506103f46004803603602081101561035157600080fd5b810190808035906020019064010000000081111561036e57600080fd5b82018360208201111561038057600080fd5b803590602001918460018302840111640100000000831117156103a257600080fd5b91908080601f016020809104026020016040519081016040528093929190818152602001838380828437600081840152601f19601f820116905080830192505050505050509192919290505050611299565b604051808215151515815260200191505060405180910390f35b34801561041a57600080fd5b506104d46004803603602081101561043157600080fd5b810190808035906020019064010000000081111561044e57600080fd5b82018360208201111561046057600080fd5b8035906020019184600183028401116401000000008311171561048257600080fd5b91908080601f016020809104026020016040519081016040528093929190818152602001838380828437600081840152601f19601f820116905080830192505050505050509192919290505050611973565b604051808215151515815260200191505060405180910390f35b6106486004803603606081101561050457600080fd5b810190808035906020019064010000000081111561052157600080fd5b82018360208201111561053357600080fd5b8035906020019184600183028401116401000000008311171561055557600080fd5b91908080601f016020809104026020016040519081016040528093929190818152602001838380828437600081840152601f19601f820116905080830192505050505050509192919290803590602001906401000000008111156105b857600080fd5b8201836020820111156105ca57600080fd5b803590602001918460018302840111640100000000831117156105ec57600080fd5b91908080601f016020809104026020016040519081016040528093929190818152602001838380828437600081840152601f19601f82011690508083019250505050505050919291929080359060200190929190505050611e74565b604051808215151515815260200191505060405180910390f35b34801561066e57600080fd5b50610901600480360360c081101561068557600080fd5b81019080803590602001906401000000008111156106a257600080fd5b8201836020820111156106b457600080fd5b803590602001918460018302840111640100000000831117156106d657600080fd5b91908080601f016020809104026020016040519081016040528093929190818152602001838380828437600081840152601f19601f8201169050808301925050505050505091929192908035906020019064010000000081111561073957600080fd5b82018360208201111561074b57600080fd5b8035906020019184600183028401116401000000008311171561076d57600080fd5b91908080601f016020809104026020016040519081016040528093929190818152602001838380828437600081840152601f19601f820116905080830192505050505050509192919290803590602001906401000000008111156107d057600080fd5b8201836020820111156107e257600080fd5b8035906020019184600183028401116401000000008311171561080457600080fd5b91908080601f016020809104026020016040519081016040528093929190818152602001838380828437600081840152601f19601f8201169050808301925050505050505091929192908035906020019064010000000081111561086757600080fd5b82018360208201111561087957600080fd5b8035906020019184600183028401116401000000008311171561089b57600080fd5b91908080601f016020809104026020016040519081016040528093929190818152602001838380828437600081840152601f19601f82011690508083019250505050505050919291929080359060200190929190803590602001909291905050506125ea565b604051808215151515815260200191505060405180910390f35b34801561092757600080fd5b506109e16004803603602081101561093e57600080fd5b810190808035906020019064010000000081111561095b57600080fd5b82018360208201111561096d57600080fd5b8035906020019184600183028401116401000000008311171561098f57600080fd5b91908080601f016020809104026020016040519081016040528093929190818152602001838380828437600081840152601f19601f82011690508083019250505050505050919291929050505061292e565b60405180806020018060200180602001806020018981526020018881526020018773ffffffffffffffffffffffffffffffffffffffff1673ffffffffffffffffffffffffffffffffffffffff16815260200186815260200185810385528d818151815260200191508051906020019080838360005b83811015610a71578082015181840152602081019050610a56565b50505050905090810190601f168015610a9e5780820380516001836020036101000a031916815260200191505b5085810384528c818151815260200191508051906020019080838360005b83811015610ad7578082015181840152602081019050610abc565b50505050905090810190601f168015610b045780820380516001836020036101000a031916815260200191505b5085810383528b818151815260200191508051906020019080838360005b83811015610b3d578082015181840152602081019050610b22565b50505050905090810190601f168015610b6a5780820380516001836020036101000a031916815260200191505b5085810382528a818151815260200191508051906020019080838360005b83811015610ba3578082015181840152602081019050610b88565b50505050905090810190601f168015610bd05780820380516001836020036101000a031916815260200191505b509c5050505050505050505050505060405180910390f35b610ca160048036036020811015610bfe57600080fd5b8101908080359060200190640100000000811115610c1b57600080fd5b820183602082011115610c2d57600080fd5b80359060200191846001830284011164010000000083111715610c4f57600080fd5b91908080601f016020809104026020016040519081016040528093929190818152602001838380828437600081840152601f19601f820116905080830192505050505050509192919290505050612e51565b604051808215151515815260200191505060405180910390f35b60008660008311610d17576040517f08c379a00000000000000000000000000000000000000000000000000000000081526004018080602001828103825260238152602001806138b26023913960400191505060405180910390fd5b60008411610d70576040517f08c379a00000000000000000000000000000000000000000000000000000000081526004018080602001828103825260228152602001806138d56022913960400191505060405180910390fd5b866000896040518082805190602001908083835b60208310610da75780518252602082019150602081019050602083039250610d84565b6001836020036101000a03801982511681845116808217855250505050505090500191505090815260200160405180910390206000019080519060200190610df092919061369e565b50856000896040518082805190602001908083835b60208310610e285780518252602082019150602081019050602083039250610e05565b6001836020036101000a03801982511681845116808217855250505050505090500191505090815260200160405180910390206001019080519060200190610e7192919061369e565b50846000896040518082805190602001908083835b60208310610ea95780518252602082019150602081019050602083039250610e86565b6001836020036101000a03801982511681845116808217855250505050505090500191505090815260200160405180910390206002019080519060200190610ef292919061369e565b50836000896040518082805190602001908083835b60208310610f2a5780518252602082019150602081019050602083039250610f07565b6001836020036101000a038019825116818451168082178552505050505050905001915050908152602001604051809103902060030181905550826000896040518082805190602001908083835b60208310610f9b5780518252602082019150602081019050602083039250610f78565b6001836020036101000a0380198251168184511680821785525050505050509050019150509081526020016040518091039020600401819055507f6fb46f1c24e900a56b4e673473b9fa7d88c1818b6eae11627937e466f613ce4a33898587604051808573ffffffffffffffffffffffffffffffffffffffff1673ffffffffffffffffffffffffffffffffffffffff16815260200180602001848152602001838152602001828103825285818151815260200191508051906020019080838360005b8381101561107857808201518184015260208101905061105d565b50505050905090810190601f1680156110a55780820380516001836020036101000a031916815260200191505b509550505050505060405180910390a160019150600073ffffffffffffffffffffffffffffffffffffffff166000826040518082805190602001908083835b6020831061110757805182526020820191506020810190506020830392506110e4565b6001836020036101000a038019825116818451168082178552505050505050905001915050908152602001604051809103902060060160009054906101000a900473ffffffffffffffffffffffffffffffffffffffff1673ffffffffffffffffffffffffffffffffffffffff161415801561123957503373ffffffffffffffffffffffffffffffffffffffff166000826040518082805190602001908083835b602083106111ca57805182526020820191506020810190506020830392506111a7565b6001836020036101000a038019825116818451168082178552505050505050905001915050908152602001604051809103902060060160009054906101000a900473ffffffffffffffffffffffffffffffffffffffff1673ffffffffffffffffffffffffffffffffffffffff16145b61128e576040517f08c379a00000000000000000000000000000000000000000000000000000000081526004018080602001828103825260278152602001806138676027913960400191505060405180910390fd5b509695505050505050565b600081600160038111156112a957fe5b6001846040518082805190602001908083835b602083106112df57805182526020820191506020810190506020830392506112bc565b6001836020036101000a038019825116818451168082178552505050505050905001915050908152602001604051809103902060020160009054906101000a900460ff16600381111561132e57fe5b146113a1576040517f08c379a00000000000000000000000000000000000000000000000000000000081526004018080602001828103825260148152602001807f4974656d206e6f7420796574207368697070656400000000000000000000000081525060200191505060405180910390fd5b3373ffffffffffffffffffffffffffffffffffffffff1660006001856040518082805190602001908083835b602083106113f057805182526020820191506020810190506020830392506113cd565b6001836020036101000a038019825116818451168082178552505050505050905001915050908152602001604051809103902060000160405180828054600181600116156101000203166002900480156114815780601f1061145f576101008083540402835291820191611481565b820191906000526020600020905b81548152906001019060200180831161146d575b5050915050908152602001604051809103902060060160009054906101000a900473ffffffffffffffffffffffffffffffffffffffff1673ffffffffffffffffffffffffffffffffffffffff1614611541576040517f08c379a00000000000000000000000000000000000000000000000000000000081526004018080602001828103825260208152602001807f416374696f6e207265737472696374656420746f2073656c6c6572206f6e6c7981525060200191505060405180910390fd5b60026001846040518082805190602001908083835b602083106115795780518252602082019150602081019050602083039250611556565b6001836020036101000a038019825116818451168082178552505050505050905001915050908152602001604051809103902060020160006101000a81548160ff021916908360038111156115ca57fe5b02179055507fccb4d0e47886be91330a33c3282eb9e855272263ff997a6da924f820b0127e2333846001866040518082805190602001908083835b602083106116285780518252602082019150602081019050602083039250611605565b6001836020036101000a0380198251168184511680821785525050505050509050019150509081526020016040518091039020600001604051808473ffffffffffffffffffffffffffffffffffffffff1673ffffffffffffffffffffffffffffffffffffffff1681526020018060200180602001838103835285818151815260200191508051906020019080838360005b838110156116d45780820151818401526020810190506116b9565b50505050905090810190601f1680156117015780820380516001836020036101000a031916815260200191505b508381038252848181546001816001161561010002031660029004815260200191508054600181600116156101000203166002900480156117835780601f1061175857610100808354040283529160200191611783565b820191906000526020600020905b81548152906001019060200180831161176657829003601f168201915b50509550505050505060405180910390a160019150600073ffffffffffffffffffffffffffffffffffffffff166001826040518082805190602001908083835b602083106117e657805182526020820191506020810190506020830392506117c3565b6001836020036101000a038019825116818451168082178552505050505050905001915050908152602001604051809103902060040160009054906101000a900473ffffffffffffffffffffffffffffffffffffffff1673ffffffffffffffffffffffffffffffffffffffff161415801561191857503373ffffffffffffffffffffffffffffffffffffffff166001826040518082805190602001908083835b602083106118a95780518252602082019150602081019050602083039250611886565b6001836020036101000a038019825116818451168082178552505050505050905001915050908152602001604051809103902060040160009054906101000a900473ffffffffffffffffffffffffffffffffffffffff1673ffffffffffffffffffffffffffffffffffffffff16145b61196d576040517f08c379a000000000000000000000000000000000000000000000000000000000815260040180806020018281038252602481526020018061388e6024913960400191505060405180910390fd5b50919050565b600080600381111561198157fe5b6001836040518082805190602001908083835b602083106119b75780518252602082019150602081019050602083039250611994565b6001836020036101000a038019825116818451168082178552505050505050905001915050908152602001604051809103902060020160009054906101000a900460ff166003811115611a0657fe5b14611a79576040517f08c379a00000000000000000000000000000000000000000000000000000000081526004018080602001828103825260148152602001807f4974656d20616c7265616479207368697070656400000000000000000000000081525060200191505060405180910390fd5b3373ffffffffffffffffffffffffffffffffffffffff1660006001846040518082805190602001908083835b60208310611ac85780518252602082019150602081019050602083039250611aa5565b6001836020036101000a03801982511681845116808217855250505050505090500191505090815260200160405180910390206000016040518082805460018160011615610100020316600290048015611b595780601f10611b37576101008083540402835291820191611b59565b820191906000526020600020905b815481529060010190602001808311611b45575b5050915050908152602001604051809103902060060160009054906101000a900473ffffffffffffffffffffffffffffffffffffffff1673ffffffffffffffffffffffffffffffffffffffff1614611c19576040517f08c379a00000000000000000000000000000000000000000000000000000000081526004018080602001828103825260208152602001807f416374696f6e207265737472696374656420746f2073656c6c6572206f6e6c7981525060200191505060405180910390fd5b600180836040518082805190602001908083835b60208310611c505780518252602082019150602081019050602083039250611c2d565b6001836020036101000a038019825116818451168082178552505050505050905001915050908152602001604051809103902060020160006101000a81548160ff02191690836003811115611ca157fe5b02179055507fc2e564a4d81774e4685c434f30bef9f7e7d329f4a4059c8bb7ed1729018dcdf933836001856040518082805190602001908083835b60208310611cff5780518252602082019150602081019050602083039250611cdc565b6001836020036101000a0380198251168184511680821785525050505050509050019150509081526020016040518091039020600001604051808473ffffffffffffffffffffffffffffffffffffffff1673ffffffffffffffffffffffffffffffffffffffff1681526020018060200180602001838103835285818151815260200191508051906020019080838360005b83811015611dab578082015181840152602081019050611d90565b50505050905090810190601f168015611dd85780820380516001836020036101000a031916815260200191505b50838103825284818154600181600116156101000203166002900481526020019150805460018160011615610100020316600290048015611e5a5780601f10611e2f57610100808354040283529160200191611e5a565b820191906000526020600020905b815481529060010190602001808311611e3d57829003601f168201915b50509550505050505060405180910390a160019050919050565b6000838260008411611ed1576040517f08c379a00000000000000000000000000000000000000000000000000000000081526004018080602001828103825260238152602001806138b26023913960400191505060405180910390fd5b836000876040518082805190602001908083835b60208310611f085780518252602082019150602081019050602083039250611ee5565b6001836020036101000a0380198251168184511680821785525050505050509050019150509081526020016040518091039020600401541015611fb3576040517f08c379a000000000000000000000000000000000000000000000000000000000815260040180806020018281038252600c8152602001807f4f7574206f662073746f636b000000000000000000000000000000000000000081525060200191505060405180910390fd5b611fbb61371e565b600081604001906003811115611fcd57fe5b90816003811115611fda57fe5b815250508481602001818152505033816080019073ffffffffffffffffffffffffffffffffffffffff16908173ffffffffffffffffffffffffffffffffffffffff168152505042816060018181525050806001876040518082805190602001908083835b60208310612061578051825260208201915060208101905060208303925061203e565b6001836020036101000a038019825116818451168082178552505050505050905001915050908152602001604051809103902060008201518160000190805190602001906120b092919061376e565b506020820151816001015560408201518160020160006101000a81548160ff021916908360038111156120df57fe5b02179055506060820151816003015560808201518160040160006101000a81548173ffffffffffffffffffffffffffffffffffffffff021916908373ffffffffffffffffffffffffffffffffffffffff16021790555090505060016000886040518082805190602001908083835b60208310612170578051825260208201915060208101905060208303925061214d565b6001836020036101000a038019825116818451168082178552505050505050905001915050908152602001604051809103902060040154036000886040518082805190602001908083835b602083106121de57805182526020820191506020810190506020830392506121bb565b6001836020036101000a0380198251168184511680821785525050505050509050019150509081526020016040518091039020600401819055507fa867baa08a37e264e8540d2b6d16d0b0daa9bc942457445d2243c16a997cfd28338887604051808473ffffffffffffffffffffffffffffffffffffffff1673ffffffffffffffffffffffffffffffffffffffff16815260200180602001838152602001828103825284818151815260200191508051906020019080838360005b838110156122b4578082015181840152602081019050612299565b50505050905090810190601f1680156122e15780820380516001836020036101000a031916815260200191505b5094505050505060405180910390a16001935050600080836040518082805190602001908083835b6020831061232c5780518252602082019150602081019050602083039250612309565b6001836020036101000a03801982511681845116808217855250505050505090500191505090815260200160405180910390206003015482029050803410156123dd576040517f08c379a00000000000000000000000000000000000000000000000000000000081526004018080602001828103825260198152602001807f416d6f756e74206c657373207468616e2072657175697265640000000000000081525060200191505060405180910390fd5b600080846040518082805190602001908083835b6020831061241457805182526020820191506020810190506020830392506123f1565b6001836020036101000a0380198251168184511680821785525050505050509050019150509081526020016040518091039020600301543403905060008111156124a0573373ffffffffffffffffffffffffffffffffffffffff166108fc829081150290604051600060405180830381858888f1935050505015801561249e573d6000803e3d6000fd5b505b6000846040518082805190602001908083835b602083106124d657805182526020820191506020810190506020830392506124b3565b6001836020036101000a038019825116818451168082178552505050505050905001915050908152602001604051809103902060060160009054906101000a900473ffffffffffffffffffffffffffffffffffffffff1673ffffffffffffffffffffffffffffffffffffffff166108fc6000866040518082805190602001908083835b6020831061257c5780518252602082019150602081019050602083039250612559565b6001836020036101000a0380198251168184511680821785525050505050509050019150509081526020016040518091039020600301549081150290604051600060405180830381858888f193505050501580156125de573d6000803e3d6000fd5b50505050509392505050565b6000808211612644576040517f08c379a00000000000000000000000000000000000000000000000000000000081526004018080602001828103825260238152602001806138b26023913960400191505060405180910390fd5b6000831161269d576040517f08c379a00000000000000000000000000000000000000000000000000000000081526004018080602001828103825260228152602001806138d56022913960400191505060405180910390fd5b6126a56137ee565b8681600001819052508581602001819052508481604001819052508381606001818152505082816080018181525050338160c0019073ffffffffffffffffffffffffffffffffffffffff16908173ffffffffffffffffffffffffffffffffffffffff1681525050428160a0018181525050806000896040518082805190602001908083835b6020831061274d578051825260208201915060208101905060208303925061272a565b6001836020036101000a0380198251168184511680821785525050505050509050019150509081526020016040518091039020600082015181600001908051906020019061279c92919061376e565b5060208201518160010190805190602001906127b992919061376e565b5060408201518160020190805190602001906127d692919061376e565b50606082015181600301556080820151816004015560a0820151816005015560c08201518160060160006101000a81548173ffffffffffffffffffffffffffffffffffffffff021916908373ffffffffffffffffffffffffffffffffffffffff1602179055509050507f2930e5bc283fe47c6125a741eb1aa8957500d5246f080d5f160f38303c89c4b833898587604051808573ffffffffffffffffffffffffffffffffffffffff1673ffffffffffffffffffffffffffffffffffffffff16815260200180602001848152602001838152602001828103825285818151815260200191508051906020019080838360005b838110156128e25780820151818401526020810190506128c7565b50505050905090810190601f16801561290f5780820380516001836020036101000a031916815260200191505b509550505050505060405180910390a160019150509695505050505050565b6060806060806000806000808897506000896040518082805190602001908083835b602083106129735780518252602082019150602081019050602083039250612950565b6001836020036101000a03801982511681845116808217855250505050505090500191505090815260200160405180910390206000018054600181600116156101000203166002900480601f016020809104026020016040519081016040528092919081815260200182805460018160011615610100020316600290048015612a3d5780601f10612a1257610100808354040283529160200191612a3d565b820191906000526020600020905b815481529060010190602001808311612a2057829003601f168201915b505050505096506000896040518082805190602001908083835b60208310612a7a5780518252602082019150602081019050602083039250612a57565b6001836020036101000a03801982511681845116808217855250505050505090500191505090815260200160405180910390206001018054600181600116156101000203166002900480601f016020809104026020016040519081016040528092919081815260200182805460018160011615610100020316600290048015612b445780601f10612b1957610100808354040283529160200191612b44565b820191906000526020600020905b815481529060010190602001808311612b2757829003601f168201915b505050505095506000896040518082805190602001908083835b60208310612b815780518252602082019150602081019050602083039250612b5e565b6001836020036101000a03801982511681845116808217855250505050505090500191505090815260200160405180910390206003015493506000896040518082805190602001908083835b60208310612bf05780518252602082019150602081019050602083039250612bcd565b6001836020036101000a03801982511681845116808217855250505050505090500191505090815260200160405180910390206002018054600181600116156101000203166002900480601f016020809104026020016040519081016040528092919081815260200182805460018160011615610100020316600290048015612cba5780601f10612c8f57610100808354040283529160200191612cba565b820191906000526020600020905b815481529060010190602001808311612c9d57829003601f168201915b505050505094506000896040518082805190602001908083835b60208310612cf75780518252602082019150602081019050602083039250612cd4565b6001836020036101000a03801982511681845116808217855250505050505090500191505090815260200160405180910390206004015492506000896040518082805190602001908083835b60208310612d665780518252602082019150602081019050602083039250612d43565b6001836020036101000a038019825116818451168082178552505050505050905001915050908152602001604051809103902060060160009054906101000a900473ffffffffffffffffffffffffffffffffffffffff1691506000896040518082805190602001908083835b60208310612df55780518252602082019150602081019050602083039250612dd2565b6001836020036101000a0380198251168184511680821785525050505050509050019150509081526020016040518091039020600501549050878787878787878797509750975097509750975097509750919395975091939597565b600060606001836040518082805190602001908083835b60208310612e8b5780518252602082019150602081019050602083039250612e68565b6001836020036101000a03801982511681845116808217855250505050505090500191505090815260200160405180910390206000018054600181600116156101000203166002900480601f016020809104026020016040519081016040528092919081815260200182805460018160011615610100020316600290048015612f555780601f10612f2a57610100808354040283529160200191612f55565b820191906000526020600020905b815481529060010190602001808311612f3857829003601f168201915b505050505090503373ffffffffffffffffffffffffffffffffffffffff166000826040518082805190602001908083835b60208310612fa95780518252602082019150602081019050602083039250612f86565b6001836020036101000a038019825116818451168082178552505050505050905001915050908152602001604051809103902060060160009054906101000a900473ffffffffffffffffffffffffffffffffffffffff1673ffffffffffffffffffffffffffffffffffffffff1614613089576040517f08c379a00000000000000000000000000000000000000000000000000000000081526004018080602001828103825260208152602001807f416374696f6e207265737472696374656420746f2073656c6c6572206f6e6c7981525060200191505060405180910390fd5b600080826040518082805190602001908083835b602083106130c0578051825260208201915060208101905060208303925061309d565b6001836020036101000a0380198251168184511680821785525050505050509050019150509081526020016040518091039020600301546001856040518082805190602001908083835b6020831061312d578051825260208201915060208101905060208303925061310a565b6001836020036101000a038019825116818451168082178552505050505050905001915050908152602001604051809103902060010154029050803410156131dd576040517f08c379a00000000000000000000000000000000000000000000000000000000081526004018080602001828103825260198152602001807f416d6f756e74206c657373207468616e2072657175697265640000000000000081525060200191505060405180910390fd5b6001846040518082805190602001908083835b6020831061321357805182526020820191506020810190506020830392506131f0565b6001836020036101000a038019825116818451168082178552505050505050905001915050908152602001604051809103902060040160009054906101000a900473ffffffffffffffffffffffffffffffffffffffff1673ffffffffffffffffffffffffffffffffffffffff166108fc829081150290604051600060405180830381858888f193505050501580156132af573d6000803e3d6000fd5b50600080856040518082805190602001908083835b602083106132e757805182526020820191506020810190506020830392506132c4565b6001836020036101000a0380198251168184511680821785525050505050509050019150509081526020016040518091039020600301543403905060008111156133ff576000836040518082805190602001908083835b60208310613361578051825260208201915060208101905060208303925061333e565b6001836020036101000a038019825116818451168082178552505050505050905001915050908152602001604051809103902060060160009054906101000a900473ffffffffffffffffffffffffffffffffffffffff1673ffffffffffffffffffffffffffffffffffffffff166108fc829081150290604051600060405180830381858888f193505050501580156133fd573d6000803e3d6000fd5b505b60036001866040518082805190602001908083835b602083106134375780518252602082019150602081019050602083039250613414565b6001836020036101000a038019825116818451168082178552505050505050905001915050908152602001604051809103902060020160006101000a81548160ff0219169083600381111561348857fe5b02179055507f6f8fca789b82e8249ddb68aac00d7f612d9e62815f01bae84bcb0b44d012b665336001876040518082805190602001908083835b602083106134e557805182526020820191506020810190506020830392506134c2565b6001836020036101000a038019825116818451168082178552505050505050905001915050908152602001604051809103902060040160009054906101000a900473ffffffffffffffffffffffffffffffffffffffff16878686604051808673ffffffffffffffffffffffffffffffffffffffff1673ffffffffffffffffffffffffffffffffffffffff1681526020018573ffffffffffffffffffffffffffffffffffffffff1673ffffffffffffffffffffffffffffffffffffffff1681526020018060200180602001848152602001838103835286818151815260200191508051906020019080838360005b838110156135ed5780820151818401526020810190506135d2565b50505050905090810190601f16801561361a5780820380516001836020036101000a031916815260200191505b50838103825285818151815260200191508051906020019080838360005b83811015613653578082015181840152602081019050613638565b50505050905090810190601f1680156136805780820380516001836020036101000a031916815260200191505b5097505050505050505060405180910390a160019350505050919050565b828054600181600116156101000203166002900490600052602060002090601f016020900481019282601f106136df57805160ff191683800117855561370d565b8280016001018555821561370d579182015b8281111561370c5782518255916020019190600101906136f1565b5b50905061371a9190613841565b5090565b6040518060a0016040528060608152602001600081526020016000600381111561374457fe5b815260200160008152602001600073ffffffffffffffffffffffffffffffffffffffff1681525090565b828054600181600116156101000203166002900490600052602060002090601f016020900481019282601f106137af57805160ff19168380011785556137dd565b828001600101855582156137dd579182015b828111156137dc5782518255916020019190600101906137c1565b5b5090506137ea9190613841565b5090565b6040518060e00160405280606081526020016060815260200160608152602001600081526020016000815260200160008152602001600073ffffffffffffffffffffffffffffffffffffffff1681525090565b61386391905b8082111561385f576000816000905550600101613847565b5090565b9056fe73686f756c64206265207468652073656c6c657220746f2070726f6365737320666f727761726473686f756c64206265206120627579657220746f2070726f6365737320666f72776172644e756d626572206f66206974656d732073686f756c642062652061746c6561737420315072696365206f66206974656d732063616e6e6f742062652061746c656173742030a165627a7a72305820a347a7c0666f6f67009e0540828f78bfbcf8600312504267b8542bb6cd9846bb0029",
  "source": "pragma solidity ^0.5.0;\n\ncontract SalePlace {\n  struct Item {\n    string name;\n    string image;\n    string description;\n    uint price;\n    uint numberOfItems;\n    uint timestamp;\n    address payable seller;\n  }\n\n  /* Staus Enum used by ItemInvoice ,with 4 states\n    Processing\n    Shipped\n    Received\n    Refunded\n  */\n  enum Status { Processing ,Shipped, Received, Refunded }\n\n  struct ItemInvoice{\n    string itemId;\n    uint numberOfItemsSold;\n    Status status;\n    uint timestamp;\n    address payable buyer;\n  }\n\n  mapping (string => Item) private items;\n  mapping (string => ItemInvoice) private itemsSold;\n\n  modifier isSeller(string memory _itemId){\n    _;\n    require(items[_itemId].seller != address(0) && items[_itemId].seller == msg.sender, \"should be the seller to process forward\");\n  }\n\n  modifier isBuyer(string memory _itemId){\n    _;\n    require(itemsSold[_itemId].buyer != address(0) && itemsSold[_itemId].buyer == msg.sender, \"should be a buyer to process forward\");\n  }\n\n  event LogAddItem(address seller, string itemId , uint numberOfItems, uint price);\n  event LogUpdateItem(address seller, string itemId , uint numberOfItems, uint price);\n  event LogBuyItem(address buyer, string invoiceId, uint numberOfItems);\n  event LogShipped(address seller, string invoiceId, string itemId);\n  event LogReceived(address buyer, string invoiceId, string itemId);\n  event LogRefund(address seller, address buyer, string invoiceId, string itemId, uint amountRefunded);\n\n  /// @notice Trade logic called when items are purchased by a user\n  /// @param _itemId id of the item to fetch\n  /// @param _numberOfItems number of the items purchased\n  /// @dev the function will trade amount from buyer to seller , also any left over amount will be transfered to buyer itself\n  modifier trade (string memory _itemId, uint _numberOfItems)  {\n    _;\n    uint totalAmount = _numberOfItems * items[_itemId].price;\n    require(msg.value >= totalAmount, 'Amount less than required');\n\n    uint amountToRefund = msg.value - items[_itemId].price;\n    if(amountToRefund>0){\n      msg.sender.transfer(amountToRefund); // transfer left over to buyer\n    }\n    items[_itemId].seller.transfer(items[_itemId].price); // send the money to seller\n  }\n\n\n  /// @notice Get am item based on item id\n  /// @param _itemId id of the item to fetch\n  /// @return id, name, image , description , price , number of Items left, timestamp and seller address of the item\n  function getItem(string memory _itemId)\n  public\n  view\n  returns (string memory id, string memory name, string memory image, string memory description, uint price, uint numberOfItems, address seller, uint timestamp) {\n    id = _itemId;\n    name = items[_itemId].name;\n    image = items[_itemId].image;\n    price = items[_itemId].price;\n    description = items[_itemId].description;\n    numberOfItems = items[_itemId].numberOfItems;\n    seller = items[_itemId].seller;\n    timestamp = items[_itemId].timestamp;\n    return (id, name, image, description, price, numberOfItems, seller, timestamp);\n  }\n\n  /// @notice Add item\n  /// @dev Emits LogAddItem\n  /// @param _itemId id of the item\n  /// @param _name name of the item\n  /// @param _image image url of the item\n  /// @param _description description of the item\n  /// @param _price price of the item\n  /// @param _numberOfItems number of the item to sell\n  /// @return true if item is created\n  function addItem(string memory _itemId,string memory _name, string memory _image, string memory _description, uint _price, uint _numberOfItems)\n  public\n  returns(bool){\n    require(_numberOfItems>0, 'Number of items should be atleast 1');\n    require(_price>0, 'Price of items cannot be atleast 0');\n    Item memory newItem;\n    newItem.name = _name;\n    newItem.image = _image;\n    newItem.description = _description;\n    newItem.price = _price;\n    newItem.numberOfItems = _numberOfItems;\n    newItem.seller = msg.sender;\n    newItem.timestamp = now;\n    items[_itemId] = newItem;\n    emit LogAddItem(msg.sender, _itemId, _numberOfItems, _price);\n    return true;\n  }\n\n  /// @notice Update item\n  /// @dev Emits LogUpdateItem\n  /// @dev Need to be seller of the item to update\n  /// @param _itemId id of the item\n  /// @param _name name of the item\n  /// @param _image image url of the item\n  /// @param _description description of the item\n  /// @param _price price of the item\n  /// @param _numberOfItems number of the item to sell\n  /// @return true if item is udpated\n  function updateItem(string memory _itemId, string memory _name, string memory _image, string memory _description, uint _price, uint _numberOfItems)\n  public\n  isSeller(_itemId)\n  returns(bool){\n    require(_numberOfItems>0, 'Number of items should be atleast 1');\n    require(_price>0, 'Price of items cannot be atleast 0');\n    items[_itemId].name = _name;\n    items[_itemId].image = _image;\n    items[_itemId].description = _description;\n    items[_itemId].price = _price;\n    items[_itemId].numberOfItems = _numberOfItems;\n    emit LogUpdateItem(msg.sender, _itemId, _numberOfItems, _price);\n    return true;\n  }\n\n  /// @notice Function to buy items\n  /// @dev Emits LogBuyItem\n  /// @dev Amount paid more than required will be refunded\n  /// @param _invoiceId id of the item\n  /// @param _invoiceId id of the invoice id of item sold\n  /// @param _numberOfItems number of the item to buy\n  /// @return true if items are bought\n  function buyItem(string memory _itemId, string memory _invoiceId, uint _numberOfItems)\n  public\n  payable\n  trade(_itemId,_numberOfItems)\n  returns(bool){\n    require(_numberOfItems>0, 'Number of items should be atleast 1');\n    require(items[_itemId].numberOfItems >= _numberOfItems, 'Out of stock');\n\n    ItemInvoice memory newItemInvoice;\n    newItemInvoice.status = Status.Processing;\n    newItemInvoice.numberOfItemsSold = _numberOfItems;\n    newItemInvoice.buyer = msg.sender;\n    newItemInvoice.timestamp = now;\n    itemsSold[_invoiceId] = newItemInvoice;\n\n    items[_itemId].numberOfItems = items[_itemId].numberOfItems - 1;\n\n    emit LogBuyItem(msg.sender, _itemId, _numberOfItems);\n\n    return true;\n  }\n\n  /// @notice Function called by seller to set item status to shipped\n  /// @dev Emits LogShipped\n  /// @dev Needs to be seller of the itemto access the function\n  /// @param _invoiceId id of the invoice id of item sold\n  /// @return true if items is udpated to shipped status\n  function shipItem(string memory _invoiceId)\n  public\n  returns(bool){\n    require(itemsSold[_invoiceId].status == Status.Processing, 'Item already shipped');\n    require(items[itemsSold[_invoiceId].itemId].seller == msg.sender, 'Action restricted to seller only');\n    itemsSold[_invoiceId].status = Status.Shipped;\n    emit LogShipped(msg.sender, _invoiceId, itemsSold[_invoiceId].itemId);\n    return true;\n  }\n\n  /// @notice Function called by buyer to set item status to received\n  /// @dev Emits LogReceived\n  /// @dev Needs to be buyer of the item to access the function\n  /// @param _invoiceId id of the invoice id of item sold\n  /// @return true if items is udpated to received status\n  function receiveItem(string memory _invoiceId)\n  public\n  isBuyer(_invoiceId)\n  returns(bool){\n    require(itemsSold[_invoiceId].status == Status.Shipped , 'Item not yet shipped');\n    require(items[itemsSold[_invoiceId].itemId].seller == msg.sender, 'Action restricted to seller only');\n    itemsSold[_invoiceId].status = Status.Received;\n    emit LogReceived(msg.sender, _invoiceId, itemsSold[_invoiceId].itemId);\n    return true;\n  }\n\n  /// @notice Function called by seller to refund for the item\n  /// @dev Emits LogRefund\n  /// @dev Needs to be seller of the item to access the function\n  /// @dev Amount is transfered from seller account to buyer account , any left over paid will transfered to the seller itself\n  /// @param _invoiceId id of the invoice id of item sold\n  /// @return true if refund is successfull\n  function refundItem(string memory  _invoiceId)\n  public \n  payable\n  returns(bool){\n    string memory itemId = itemsSold[_invoiceId].itemId;\n    require(items[itemId].seller == msg.sender, 'Action restricted to seller only');\n    uint totalAmount = itemsSold[_invoiceId].numberOfItemsSold * items[itemId].price;\n    require(msg.value >= totalAmount , 'Amount less than required');\n    \n    itemsSold[_invoiceId].buyer.transfer(totalAmount); // transfer to buyer\n\n    uint amountLeftOver = msg.value - items[_invoiceId].price;\n    if(amountLeftOver>0){\n      items[itemId].seller.transfer(amountLeftOver); // transfer any left over to seller\n    }\n    itemsSold[_invoiceId].status = Status.Refunded;\n    emit LogRefund(msg.sender, itemsSold[_invoiceId].buyer, _invoiceId, itemId, totalAmount);\n    return true;\n  }\n}",
  "sourcePath": "/home/qbuser/Desktop/Projects/temp/salePlace/contracts/SalePlace.sol",
  "compiler": {
    "name": "solc",
    "version": "0.5.8+commit.23d335f2.Emscripten.clang"
  },
  "schemaVersion": "3.0.11",
  "updatedAt": "2019-07-17T15:47:58.124Z",
  "devdoc": {
    "methods": {
      "addItem(string,string,string,string,uint256,uint256)": {
        "details": "Emits LogAddItem",
        "params": {
          "_description": "description of the item",
          "_image": "image url of the item",
          "_itemId": "id of the item",
          "_name": "name of the item",
          "_numberOfItems": "number of the item to sell",
          "_price": "price of the item"
        },
        "return": "true if item is created"
      },
      "buyItem(string,string,uint256)": {
        "details": "Emits LogBuyItemAmount paid more than required will be refunded",
        "params": {
          "_invoiceId": "id of the invoice id of item sold",
          "_numberOfItems": "number of the item to buy"
        },
        "return": "true if items are bought"
      },
      "getItem(string)": {
        "params": {
          "_itemId": "id of the item to fetch"
        },
        "return": "id, name, image , description , price , number of Items left, timestamp and seller address of the item"
      },
      "receiveItem(string)": {
        "details": "Emits LogReceivedNeeds to be buyer of the item to access the function",
        "params": {
          "_invoiceId": "id of the invoice id of item sold"
        },
        "return": "true if items is udpated to received status"
      },
      "refundItem(string)": {
        "details": "Emits LogRefundNeeds to be seller of the item to access the functionAmount is transfered from seller account to buyer account , any left over paid will transfered to the seller itself",
        "params": {
          "_invoiceId": "id of the invoice id of item sold"
        },
        "return": "true if refund is successfull"
      },
      "shipItem(string)": {
        "details": "Emits LogShippedNeeds to be seller of the itemto access the function",
        "params": {
          "_invoiceId": "id of the invoice id of item sold"
        },
        "return": "true if items is udpated to shipped status"
      },
      "updateItem(string,string,string,string,uint256,uint256)": {
        "details": "Emits LogUpdateItemNeed to be seller of the item to update",
        "params": {
          "_description": "description of the item",
          "_image": "image url of the item",
          "_itemId": "id of the item",
          "_name": "name of the item",
          "_numberOfItems": "number of the item to sell",
          "_price": "price of the item"
        },
        "return": "true if item is udpated"
      }
    }
  },
  "userdoc": {
    "methods": {
      "addItem(string,string,string,string,uint256,uint256)": {
        "notice": "Add item"
      },
      "buyItem(string,string,uint256)": {
        "notice": "Function to buy items"
      },
      "getItem(string)": {
        "notice": "Get am item based on item id"
      },
      "receiveItem(string)": {
        "notice": "Function called by buyer to set item status to received"
      },
      "refundItem(string)": {
        "notice": "Function called by seller to refund for the item"
      },
      "shipItem(string)": {
        "notice": "Function called by seller to set item status to shipped"
      },
      "updateItem(string,string,string,string,uint256,uint256)": {
        "notice": "Update item"
      }
    }
  }
}