{
  "contractName": "SalePlace",
  "abi": [
    {
      "constant": false,
      "inputs": [],
      "name": "unpause",
      "outputs": [],
      "payable": false,
      "stateMutability": "nonpayable",
      "type": "function"
    },
    {
      "constant": true,
      "inputs": [],
      "name": "paused",
      "outputs": [
        {
          "name": "",
          "type": "bool"
        }
      ],
      "payable": false,
      "stateMutability": "view",
      "type": "function"
    },
    {
      "constant": false,
      "inputs": [],
      "name": "renounceOwnership",
      "outputs": [],
      "payable": false,
      "stateMutability": "nonpayable",
      "type": "function"
    },
    {
      "constant": false,
      "inputs": [],
      "name": "pause",
      "outputs": [],
      "payable": false,
      "stateMutability": "nonpayable",
      "type": "function"
    },
    {
      "constant": true,
      "inputs": [],
      "name": "owner",
      "outputs": [
        {
          "name": "",
          "type": "address"
        }
      ],
      "payable": false,
      "stateMutability": "view",
      "type": "function"
    },
    {
      "constant": true,
      "inputs": [],
      "name": "isOwner",
      "outputs": [
        {
          "name": "",
          "type": "bool"
        }
      ],
      "payable": false,
      "stateMutability": "view",
      "type": "function"
    },
    {
      "constant": false,
      "inputs": [
        {
          "name": "newOwner",
          "type": "address"
        }
      ],
      "name": "transferOwnership",
      "outputs": [],
      "payable": false,
      "stateMutability": "nonpayable",
      "type": "function"
    },
    {
      "anonymous": false,
      "inputs": [
        {
          "indexed": false,
          "name": "seller",
          "type": "address"
        },
        {
          "indexed": false,
          "name": "itemId",
          "type": "string"
        },
        {
          "indexed": false,
          "name": "numberOfItems",
          "type": "uint256"
        },
        {
          "indexed": false,
          "name": "price",
          "type": "uint256"
        }
      ],
      "name": "LogAddItem",
      "type": "event"
    },
    {
      "anonymous": false,
      "inputs": [
        {
          "indexed": false,
          "name": "seller",
          "type": "address"
        },
        {
          "indexed": false,
          "name": "itemId",
          "type": "string"
        },
        {
          "indexed": false,
          "name": "numberOfItems",
          "type": "uint256"
        },
        {
          "indexed": false,
          "name": "price",
          "type": "uint256"
        }
      ],
      "name": "LogUpdateItem",
      "type": "event"
    },
    {
      "anonymous": false,
      "inputs": [
        {
          "indexed": false,
          "name": "buyer",
          "type": "address"
        },
        {
          "indexed": false,
          "name": "invoiceId",
          "type": "string"
        },
        {
          "indexed": false,
          "name": "numberOfItems",
          "type": "uint256"
        }
      ],
      "name": "LogBuyItem",
      "type": "event"
    },
    {
      "anonymous": false,
      "inputs": [
        {
          "indexed": false,
          "name": "seller",
          "type": "address"
        },
        {
          "indexed": false,
          "name": "invoiceId",
          "type": "string"
        },
        {
          "indexed": false,
          "name": "itemId",
          "type": "string"
        }
      ],
      "name": "LogShipped",
      "type": "event"
    },
    {
      "anonymous": false,
      "inputs": [
        {
          "indexed": false,
          "name": "buyer",
          "type": "address"
        },
        {
          "indexed": false,
          "name": "invoiceId",
          "type": "string"
        },
        {
          "indexed": false,
          "name": "itemId",
          "type": "string"
        }
      ],
      "name": "LogReceived",
      "type": "event"
    },
    {
      "anonymous": false,
      "inputs": [
        {
          "indexed": false,
          "name": "seller",
          "type": "address"
        },
        {
          "indexed": false,
          "name": "buyer",
          "type": "address"
        },
        {
          "indexed": false,
          "name": "invoiceId",
          "type": "string"
        },
        {
          "indexed": false,
          "name": "itemId",
          "type": "string"
        },
        {
          "indexed": false,
          "name": "amountRefunded",
          "type": "uint256"
        }
      ],
      "name": "LogRefund",
      "type": "event"
    },
    {
      "anonymous": false,
      "inputs": [],
      "name": "Pause",
      "type": "event"
    },
    {
      "anonymous": false,
      "inputs": [],
      "name": "Unpause",
      "type": "event"
    },
    {
      "anonymous": false,
      "inputs": [
        {
          "indexed": true,
          "name": "previousOwner",
          "type": "address"
        },
        {
          "indexed": true,
          "name": "newOwner",
          "type": "address"
        }
      ],
      "name": "OwnershipTransferred",
      "type": "event"
    },
    {
      "constant": true,
      "inputs": [
        {
          "name": "_itemId",
          "type": "string"
        }
      ],
      "name": "getItem",
      "outputs": [
        {
          "name": "id",
          "type": "string"
        },
        {
          "name": "name",
          "type": "string"
        },
        {
          "name": "image",
          "type": "string"
        },
        {
          "name": "description",
          "type": "string"
        },
        {
          "name": "price",
          "type": "uint256"
        },
        {
          "name": "numberOfItems",
          "type": "uint256"
        },
        {
          "name": "seller",
          "type": "address"
        },
        {
          "name": "timestamp",
          "type": "uint256"
        }
      ],
      "payable": false,
      "stateMutability": "view",
      "type": "function"
    },
    {
      "constant": true,
      "inputs": [
        {
          "name": "_invoiceId",
          "type": "string"
        }
      ],
      "name": "getItemSold",
      "outputs": [
        {
          "name": "itemId",
          "type": "string"
        },
        {
          "name": "invoiceId",
          "type": "string"
        },
        {
          "name": "numberOfItemsSold",
          "type": "uint256"
        },
        {
          "name": "status",
          "type": "uint8"
        },
        {
          "name": "buyer",
          "type": "address"
        },
        {
          "name": "timestamp",
          "type": "uint256"
        },
        {
          "name": "amountPaid",
          "type": "uint256"
        }
      ],
      "payable": false,
      "stateMutability": "view",
      "type": "function"
    },
    {
      "constant": false,
      "inputs": [
        {
          "name": "_itemId",
          "type": "string"
        },
        {
          "name": "_name",
          "type": "string"
        },
        {
          "name": "_image",
          "type": "string"
        },
        {
          "name": "_description",
          "type": "string"
        },
        {
          "name": "_price",
          "type": "uint256"
        },
        {
          "name": "_numberOfItems",
          "type": "uint256"
        }
      ],
      "name": "addItem",
      "outputs": [
        {
          "name": "",
          "type": "bool"
        }
      ],
      "payable": false,
      "stateMutability": "nonpayable",
      "type": "function"
    },
    {
      "constant": false,
      "inputs": [
        {
          "name": "_itemId",
          "type": "string"
        },
        {
          "name": "_name",
          "type": "string"
        },
        {
          "name": "_image",
          "type": "string"
        },
        {
          "name": "_description",
          "type": "string"
        },
        {
          "name": "_price",
          "type": "uint256"
        },
        {
          "name": "_numberOfItems",
          "type": "uint256"
        }
      ],
      "name": "updateItem",
      "outputs": [
        {
          "name": "",
          "type": "bool"
        }
      ],
      "payable": false,
      "stateMutability": "nonpayable",
      "type": "function"
    },
    {
      "constant": false,
      "inputs": [
        {
          "name": "_itemId",
          "type": "string"
        },
        {
          "name": "_invoiceId",
          "type": "string"
        },
        {
          "name": "_numberOfItems",
          "type": "uint256"
        }
      ],
      "name": "buyItem",
      "outputs": [
        {
          "name": "",
          "type": "bool"
        }
      ],
      "payable": true,
      "stateMutability": "payable",
      "type": "function"
    },
    {
      "constant": false,
      "inputs": [
        {
          "name": "_invoiceId",
          "type": "string"
        }
      ],
      "name": "shipItem",
      "outputs": [
        {
          "name": "",
          "type": "bool"
        }
      ],
      "payable": false,
      "stateMutability": "nonpayable",
      "type": "function"
    },
    {
      "constant": false,
      "inputs": [
        {
          "name": "_invoiceId",
          "type": "string"
        }
      ],
      "name": "receiveItem",
      "outputs": [
        {
          "name": "",
          "type": "bool"
        }
      ],
      "payable": false,
      "stateMutability": "nonpayable",
      "type": "function"
    },
    {
      "constant": false,
      "inputs": [
        {
          "name": "_invoiceId",
          "type": "string"
        }
      ],
      "name": "refundItem",
      "outputs": [
        {
          "name": "",
          "type": "bool"
        }
      ],
      "payable": true,
      "stateMutability": "payable",
      "type": "function"
    }
  ],
  "bytecode": "0x608060405260008060146101000a81548160ff021916908315150217905550336000806101000a81548173ffffffffffffffffffffffffffffffffffffffff021916908373ffffffffffffffffffffffffffffffffffffffff1602179055506000809054906101000a900473ffffffffffffffffffffffffffffffffffffffff1673ffffffffffffffffffffffffffffffffffffffff16600073ffffffffffffffffffffffffffffffffffffffff167f8be0079c531659141344cd1fd0a4f28419497f9722a3daafe3b4186f6b6457e060405160405180910390a3614bda806100e96000396000f3fe6080604052600436106100e85760003560e01c80638456cb591161008a578063a84d446911610059578063a84d446914610a8d578063b6010fcd14610c97578063e5998ea014610f64578063f2fde38b14611037576100e8565b80638456cb59146107375780638da5cb5b1461074e5780638f32d59b146107a5578063a1fc26e4146107d4576100e8565b806356eec68d116100c657806356eec68d1461049d5780635c975abb1461057d5780635fa670d8146105ac578063715018a614610720576100e8565b80631840a8bb146100ed5780633f4ba83a146103a657806352990375146103bd575b600080fd5b3480156100f957600080fd5b5061038c600480360360c081101561011057600080fd5b810190808035906020019064010000000081111561012d57600080fd5b82018360208201111561013f57600080fd5b8035906020019184600183028401116401000000008311171561016157600080fd5b91908080601f016020809104026020016040519081016040528093929190818152602001838380828437600081840152601f19601f820116905080830192505050505050509192919290803590602001906401000000008111156101c457600080fd5b8201836020820111156101d657600080fd5b803590602001918460018302840111640100000000831117156101f857600080fd5b91908080601f016020809104026020016040519081016040528093929190818152602001838380828437600081840152601f19601f8201169050808301925050505050505091929192908035906020019064010000000081111561025b57600080fd5b82018360208201111561026d57600080fd5b8035906020019184600183028401116401000000008311171561028f57600080fd5b91908080601f016020809104026020016040519081016040528093929190818152602001838380828437600081840152601f19601f820116905080830192505050505050509192919290803590602001906401000000008111156102f257600080fd5b82018360208201111561030457600080fd5b8035906020019184600183028401116401000000008311171561032657600080fd5b91908080601f016020809104026020016040519081016040528093929190818152602001838380828437600081840152601f19601f8201169050808301925050505050505091929192908035906020019092919080359060200190929190505050611088565b604051808215151515815260200191505060405180910390f35b3480156103b257600080fd5b506103bb611666565b005b3480156103c957600080fd5b50610483600480360360208110156103e057600080fd5b81019080803590602001906401000000008111156103fd57600080fd5b82018360208201111561040f57600080fd5b8035906020019184600183028401116401000000008311171561043157600080fd5b91908080601f016020809104026020016040519081016040528093929190818152602001838380828437600081840152601f19601f820116905080830192505050505050509192919290505050611741565b604051808215151515815260200191505060405180910390f35b3480156104a957600080fd5b50610563600480360360208110156104c057600080fd5b81019080803590602001906401000000008111156104dd57600080fd5b8201836020820111156104ef57600080fd5b8035906020019184600183028401116401000000008311171561051157600080fd5b91908080601f016020809104026020016040519081016040528093929190818152602001838380828437600081840152601f19601f820116905080830192505050505050509192919290505050611da7565b604051808215151515815260200191505060405180910390f35b34801561058957600080fd5b506105926122a9565b604051808215151515815260200191505060405180910390f35b610706600480360360608110156105c257600080fd5b81019080803590602001906401000000008111156105df57600080fd5b8201836020820111156105f157600080fd5b8035906020019184600183028401116401000000008311171561061357600080fd5b91908080601f016020809104026020016040519081016040528093929190818152602001838380828437600081840152601f19601f8201169050808301925050505050505091929192908035906020019064010000000081111561067657600080fd5b82018360208201111561068857600080fd5b803590602001918460018302840111640100000000831117156106aa57600080fd5b91908080601f016020809104026020016040519081016040528093929190818152602001838380828437600081840152601f19601f820116905080830192505050505050509192919290803590602001909291905050506122bc565b604051808215151515815260200191505060405180910390f35b34801561072c57600080fd5b50610735612c6b565b005b34801561074357600080fd5b5061074c612da4565b005b34801561075a57600080fd5b50610763612e81565b604051808273ffffffffffffffffffffffffffffffffffffffff1673ffffffffffffffffffffffffffffffffffffffff16815260200191505060405180910390f35b3480156107b157600080fd5b506107ba612eaa565b604051808215151515815260200191505060405180910390f35b3480156107e057600080fd5b50610a73600480360360c08110156107f757600080fd5b810190808035906020019064010000000081111561081457600080fd5b82018360208201111561082657600080fd5b8035906020019184600183028401116401000000008311171561084857600080fd5b91908080601f016020809104026020016040519081016040528093929190818152602001838380828437600081840152601f19601f820116905080830192505050505050509192919290803590602001906401000000008111156108ab57600080fd5b8201836020820111156108bd57600080fd5b803590602001918460018302840111640100000000831117156108df57600080fd5b91908080601f016020809104026020016040519081016040528093929190818152602001838380828437600081840152601f19601f8201169050808301925050505050505091929192908035906020019064010000000081111561094257600080fd5b82018360208201111561095457600080fd5b8035906020019184600183028401116401000000008311171561097657600080fd5b91908080601f016020809104026020016040519081016040528093929190818152602001838380828437600081840152601f19601f820116905080830192505050505050509192919290803590602001906401000000008111156109d957600080fd5b8201836020820111156109eb57600080fd5b80359060200191846001830284011164010000000083111715610a0d57600080fd5b91908080601f016020809104026020016040519081016040528093929190818152602001838380828437600081840152601f19601f8201169050808301925050505050505091929192908035906020019092919080359060200190929190505050612f01565b604051808215151515815260200191505060405180910390f35b348015610a9957600080fd5b50610b5360048036036020811015610ab057600080fd5b8101908080359060200190640100000000811115610acd57600080fd5b820183602082011115610adf57600080fd5b80359060200191846001830284011164010000000083111715610b0157600080fd5b91908080601f016020809104026020016040519081016040528093929190818152602001838380828437600081840152601f19601f820116905080830192505050505050509192919290505050613245565b604051808060200180602001888152602001876003811115610b7157fe5b60ff1681526020018673ffffffffffffffffffffffffffffffffffffffff1673ffffffffffffffffffffffffffffffffffffffff16815260200185815260200184815260200183810383528a818151815260200191508051906020019080838360005b83811015610bef578082015181840152602081019050610bd4565b50505050905090810190601f168015610c1c5780820380516001836020036101000a031916815260200191505b50838103825289818151815260200191508051906020019080838360005b83811015610c55578082015181840152602081019050610c3a565b50505050905090810190601f168015610c825780820380516001836020036101000a031916815260200191505b50995050505050505050505060405180910390f35b348015610ca357600080fd5b50610d5d60048036036020811015610cba57600080fd5b8101908080359060200190640100000000811115610cd757600080fd5b820183602082011115610ce957600080fd5b80359060200191846001830284011164010000000083111715610d0b57600080fd5b91908080601f016020809104026020016040519081016040528093929190818152602001838380828437600081840152601f19601f8201169050808301925050505050505091929192905050506137a9565b60405180806020018060200180602001806020018981526020018881526020018773ffffffffffffffffffffffffffffffffffffffff1673ffffffffffffffffffffffffffffffffffffffff16815260200186815260200185810385528d818151815260200191508051906020019080838360005b83811015610ded578082015181840152602081019050610dd2565b50505050905090810190601f168015610e1a5780820380516001836020036101000a031916815260200191505b5085810384528c818151815260200191508051906020019080838360005b83811015610e53578082015181840152602081019050610e38565b50505050905090810190601f168015610e805780820380516001836020036101000a031916815260200191505b5085810383528b818151815260200191508051906020019080838360005b83811015610eb9578082015181840152602081019050610e9e565b50505050905090810190601f168015610ee65780820380516001836020036101000a031916815260200191505b5085810382528a818151815260200191508051906020019080838360005b83811015610f1f578082015181840152602081019050610f04565b50505050905090810190601f168015610f4c5780820380516001836020036101000a031916815260200191505b509c5050505050505050505050505060405180910390f35b61101d60048036036020811015610f7a57600080fd5b8101908080359060200190640100000000811115610f9757600080fd5b820183602082011115610fa957600080fd5b80359060200191846001830284011164010000000083111715610fcb57600080fd5b91908080601f016020809104026020016040519081016040528093929190818152602001838380828437600081840152601f19601f820116905080830192505050505050509192919290505050613ccc565b604051808215151515815260200191505060405180910390f35b34801561104357600080fd5b506110866004803603602081101561105a57600080fd5b81019080803573ffffffffffffffffffffffffffffffffffffffff169060200190929190505050614654565b005b600086600083116110e4576040517f08c379a0000000000000000000000000000000000000000000000000000000008152600401808060200182810382526023815260200180614b6a6023913960400191505060405180910390fd5b6000841161113d576040517f08c379a0000000000000000000000000000000000000000000000000000000008152600401808060200182810382526022815260200180614b8d6022913960400191505060405180910390fd5b866001896040518082805190602001908083835b602083106111745780518252602082019150602081019050602083039250611151565b6001836020036101000a038019825116818451168082178552505050505050905001915050908152602001604051809103902060000190805190602001906111bd92919061492d565b50856001896040518082805190602001908083835b602083106111f557805182526020820191506020810190506020830392506111d2565b6001836020036101000a0380198251168184511680821785525050505050509050019150509081526020016040518091039020600101908051906020019061123e92919061492d565b50846001896040518082805190602001908083835b602083106112765780518252602082019150602081019050602083039250611253565b6001836020036101000a038019825116818451168082178552505050505050905001915050908152602001604051809103902060020190805190602001906112bf92919061492d565b50836001896040518082805190602001908083835b602083106112f757805182526020820191506020810190506020830392506112d4565b6001836020036101000a038019825116818451168082178552505050505050905001915050908152602001604051809103902060030181905550826001896040518082805190602001908083835b602083106113685780518252602082019150602081019050602083039250611345565b6001836020036101000a0380198251168184511680821785525050505050509050019150509081526020016040518091039020600401819055507f6fb46f1c24e900a56b4e673473b9fa7d88c1818b6eae11627937e466f613ce4a33898587604051808573ffffffffffffffffffffffffffffffffffffffff1673ffffffffffffffffffffffffffffffffffffffff16815260200180602001848152602001838152602001828103825285818151815260200191508051906020019080838360005b8381101561144557808201518184015260208101905061142a565b50505050905090810190601f1680156114725780820380516001836020036101000a031916815260200191505b509550505050505060405180910390a160019150600073ffffffffffffffffffffffffffffffffffffffff166001826040518082805190602001908083835b602083106114d457805182526020820191506020810190506020830392506114b1565b6001836020036101000a038019825116818451168082178552505050505050905001915050908152602001604051809103902060060160009054906101000a900473ffffffffffffffffffffffffffffffffffffffff1673ffffffffffffffffffffffffffffffffffffffff161415801561160657503373ffffffffffffffffffffffffffffffffffffffff166001826040518082805190602001908083835b602083106115975780518252602082019150602081019050602083039250611574565b6001836020036101000a038019825116818451168082178552505050505050905001915050908152602001604051809103902060060160009054906101000a900473ffffffffffffffffffffffffffffffffffffffff1673ffffffffffffffffffffffffffffffffffffffff16145b61165b576040517f08c379a0000000000000000000000000000000000000000000000000000000008152600401808060200182810382526027815260200180614aa66027913960400191505060405180910390fd5b509695505050505050565b61166e612eaa565b6116e0576040517f08c379a00000000000000000000000000000000000000000000000000000000081526004018080602001828103825260208152602001807f4f776e61626c653a2063616c6c6572206973206e6f7420746865206f776e657281525060200191505060405180910390fd5b600060149054906101000a900460ff166116f957600080fd5b60008060146101000a81548160ff0219169083151502179055507f7805862f689e2f13df9f062ff482ad3ad112aca9e0847911ed832e158c525b3360405160405180910390a1565b6000816001600381111561175157fe5b6002846040518082805190602001908083835b602083106117875780518252602082019150602081019050602083039250611764565b6001836020036101000a038019825116818451168082178552505050505050905001915050908152602001604051809103902060030160009054906101000a900460ff1660038111156117d657fe5b14611849576040517f08c379a00000000000000000000000000000000000000000000000000000000081526004018080602001828103825260148152602001807f4974656d206e6f7420796574207368697070656400000000000000000000000081525060200191505060405180910390fd5b3373ffffffffffffffffffffffffffffffffffffffff166002846040518082805190602001908083835b602083106118965780518252602082019150602081019050602083039250611873565b6001836020036101000a038019825116818451168082178552505050505050905001915050908152602001604051809103902060050160009054906101000a900473ffffffffffffffffffffffffffffffffffffffff1673ffffffffffffffffffffffffffffffffffffffff1614611976576040517f08c379a000000000000000000000000000000000000000000000000000000000815260040180806020018281038252601f8152602001807f416374696f6e207265737472696374656420746f206275796572206f6e6c790081525060200191505060405180910390fd5b600280846040518082805190602001908083835b602083106119ad578051825260208201915060208101905060208303925061198a565b6001836020036101000a038019825116818451168082178552505050505050905001915050908152602001604051809103902060030160006101000a81548160ff021916908360038111156119fe57fe5b02179055507fccb4d0e47886be91330a33c3282eb9e855272263ff997a6da924f820b0127e2333846002866040518082805190602001908083835b60208310611a5c5780518252602082019150602081019050602083039250611a39565b6001836020036101000a0380198251168184511680821785525050505050509050019150509081526020016040518091039020600001604051808473ffffffffffffffffffffffffffffffffffffffff1673ffffffffffffffffffffffffffffffffffffffff1681526020018060200180602001838103835285818151815260200191508051906020019080838360005b83811015611b08578082015181840152602081019050611aed565b50505050905090810190601f168015611b355780820380516001836020036101000a031916815260200191505b50838103825284818154600181600116156101000203166002900481526020019150805460018160011615610100020316600290048015611bb75780601f10611b8c57610100808354040283529160200191611bb7565b820191906000526020600020905b815481529060010190602001808311611b9a57829003601f168201915b50509550505050505060405180910390a160019150600073ffffffffffffffffffffffffffffffffffffffff166002826040518082805190602001908083835b60208310611c1a5780518252602082019150602081019050602083039250611bf7565b6001836020036101000a038019825116818451168082178552505050505050905001915050908152602001604051809103902060050160009054906101000a900473ffffffffffffffffffffffffffffffffffffffff1673ffffffffffffffffffffffffffffffffffffffff1614158015611d4c57503373ffffffffffffffffffffffffffffffffffffffff166002826040518082805190602001908083835b60208310611cdd5780518252602082019150602081019050602083039250611cba565b6001836020036101000a038019825116818451168082178552505050505050905001915050908152602001604051809103902060050160009054906101000a900473ffffffffffffffffffffffffffffffffffffffff1673ffffffffffffffffffffffffffffffffffffffff16145b611da1576040517f08c379a0000000000000000000000000000000000000000000000000000000008152600401808060200182810382526024815260200180614b256024913960400191505060405180910390fd5b50919050565b6000806003811115611db557fe5b6002836040518082805190602001908083835b60208310611deb5780518252602082019150602081019050602083039250611dc8565b6001836020036101000a038019825116818451168082178552505050505050905001915050908152602001604051809103902060030160009054906101000a900460ff166003811115611e3a57fe5b14611ead576040517f08c379a00000000000000000000000000000000000000000000000000000000081526004018080602001828103825260148152602001807f4974656d20616c7265616479207368697070656400000000000000000000000081525060200191505060405180910390fd5b3373ffffffffffffffffffffffffffffffffffffffff1660016002846040518082805190602001908083835b60208310611efc5780518252602082019150602081019050602083039250611ed9565b6001836020036101000a03801982511681845116808217855250505050505090500191505090815260200160405180910390206000016040518082805460018160011615610100020316600290048015611f8d5780601f10611f6b576101008083540402835291820191611f8d565b820191906000526020600020905b815481529060010190602001808311611f79575b5050915050908152602001604051809103902060060160009054906101000a900473ffffffffffffffffffffffffffffffffffffffff1673ffffffffffffffffffffffffffffffffffffffff161461204d576040517f08c379a00000000000000000000000000000000000000000000000000000000081526004018080602001828103825260208152602001807f416374696f6e207265737472696374656420746f2073656c6c6572206f6e6c7981525060200191505060405180910390fd5b60016002836040518082805190602001908083835b602083106120855780518252602082019150602081019050602083039250612062565b6001836020036101000a038019825116818451168082178552505050505050905001915050908152602001604051809103902060030160006101000a81548160ff021916908360038111156120d657fe5b02179055507fc2e564a4d81774e4685c434f30bef9f7e7d329f4a4059c8bb7ed1729018dcdf933836002856040518082805190602001908083835b602083106121345780518252602082019150602081019050602083039250612111565b6001836020036101000a0380198251168184511680821785525050505050509050019150509081526020016040518091039020600001604051808473ffffffffffffffffffffffffffffffffffffffff1673ffffffffffffffffffffffffffffffffffffffff1681526020018060200180602001838103835285818151815260200191508051906020019080838360005b838110156121e05780820151818401526020810190506121c5565b50505050905090810190601f16801561220d5780820380516001836020036101000a031916815260200191505b5083810382528481815460018160011615610100020316600290048152602001915080546001816001161561010002031660029004801561228f5780601f106122645761010080835404028352916020019161228f565b820191906000526020600020905b81548152906001019060200180831161227257829003601f168201915b50509550505050505060405180910390a160019050919050565b600060149054906101000a900460ff1681565b6000838260008411612319576040517f08c379a0000000000000000000000000000000000000000000000000000000008152600401808060200182810382526023815260200180614b6a6023913960400191505060405180910390fd5b6000846001886040518082805190602001908083835b60208310612352578051825260208201915060208101905060208303925061232f565b6001836020036101000a0380198251168184511680821785525050505050509050019150509081526020016040518091039020600401540310156123fe576040517f08c379a000000000000000000000000000000000000000000000000000000000815260040180806020018281038252600c8152602001807f4f7574206f662073746f636b000000000000000000000000000000000000000081525060200191505060405180910390fd5b60006002866040518082805190602001908083835b602083106124365780518252602082019150602081019050602083039250612413565b6001836020036101000a038019825116818451168082178552505050505050905001915050908152602001604051809103902060030160006101000a81548160ff0219169083600381111561248757fe5b0217905550836002866040518082805190602001908083835b602083106124c357805182526020820191506020810190506020830392506124a0565b6001836020036101000a038019825116818451168082178552505050505050905001915050908152602001604051809103902060010181905550336002866040518082805190602001908083835b602083106125345780518252602082019150602081019050602083039250612511565b6001836020036101000a038019825116818451168082178552505050505050905001915050908152602001604051809103902060050160006101000a81548173ffffffffffffffffffffffffffffffffffffffff021916908373ffffffffffffffffffffffffffffffffffffffff160217905550426002866040518082805190602001908083835b602083106125df57805182526020820191506020810190506020830392506125bc565b6001836020036101000a038019825116818451168082178552505050505050905001915050908152602001604051809103902060040181905550856002866040518082805190602001908083835b60208310612650578051825260208201915060208101905060208303925061262d565b6001836020036101000a0380198251168184511680821785525050505050509050019150509081526020016040518091039020600001908051906020019061269992919061492d565b506127196001876040518082805190602001908083835b602083106126d357805182526020820191506020810190506020830392506126b0565b6001836020036101000a038019825116818451168082178552505050505050905001915050908152602001604051809103902060030154856146da90919063ffffffff16565b6002866040518082805190602001908083835b6020831061274f578051825260208201915060208101905060208303925061272c565b6001836020036101000a038019825116818451168082178552505050505050905001915050908152602001604051809103902060020181905550612808600180886040518082805190602001908083835b602083106127c357805182526020820191506020810190506020830392506127a0565b6001836020036101000a03801982511681845116808217855250505050505090500191505090815260200160405180910390206004015461476090919063ffffffff16565b6001876040518082805190602001908083835b6020831061283e578051825260208201915060208101905060208303925061281b565b6001836020036101000a0380198251168184511680821785525050505050509050019150509081526020016040518091039020600401819055507fa867baa08a37e264e8540d2b6d16d0b0daa9bc942457445d2243c16a997cfd28338786604051808473ffffffffffffffffffffffffffffffffffffffff1673ffffffffffffffffffffffffffffffffffffffff16815260200180602001838152602001828103825284818151815260200191508051906020019080838360005b838110156129145780820151818401526020810190506128f9565b50505050905090810190601f1680156129415780820380516001836020036101000a031916815260200191505b5094505050505060405180910390a16001925060006129d56001846040518082805190602001908083835b6020831061298f578051825260208201915060208101905060208303925061296c565b6001836020036101000a038019825116818451168082178552505050505050905001915050908152602001604051809103902060030154836146da90919063ffffffff16565b905080341015612a4d576040517f08c379a00000000000000000000000000000000000000000000000000000000081526004018080602001828103825260198152602001807f416d6f756e74206c657373207468616e2072657175697265640000000000000081525060200191505060405180910390fd5b6000612ace6001856040518082805190602001908083835b60208310612a885780518252602082019150602081019050602083039250612a65565b6001836020036101000a0380198251168184511680821785525050505050509050019150509081526020016040518091039020600301543461476090919063ffffffff16565b90506000811115612b21573373ffffffffffffffffffffffffffffffffffffffff166108fc829081150290604051600060405180830381858888f19350505050158015612b1f573d6000803e3d6000fd5b505b6001846040518082805190602001908083835b60208310612b575780518252602082019150602081019050602083039250612b34565b6001836020036101000a038019825116818451168082178552505050505050905001915050908152602001604051809103902060060160009054906101000a900473ffffffffffffffffffffffffffffffffffffffff1673ffffffffffffffffffffffffffffffffffffffff166108fc6001866040518082805190602001908083835b60208310612bfd5780518252602082019150602081019050602083039250612bda565b6001836020036101000a0380198251168184511680821785525050505050509050019150509081526020016040518091039020600301549081150290604051600060405180830381858888f19350505050158015612c5f573d6000803e3d6000fd5b50505050509392505050565b612c73612eaa565b612ce5576040517f08c379a00000000000000000000000000000000000000000000000000000000081526004018080602001828103825260208152602001807f4f776e61626c653a2063616c6c6572206973206e6f7420746865206f776e657281525060200191505060405180910390fd5b600073ffffffffffffffffffffffffffffffffffffffff166000809054906101000a900473ffffffffffffffffffffffffffffffffffffffff1673ffffffffffffffffffffffffffffffffffffffff167f8be0079c531659141344cd1fd0a4f28419497f9722a3daafe3b4186f6b6457e060405160405180910390a360008060006101000a81548173ffffffffffffffffffffffffffffffffffffffff021916908373ffffffffffffffffffffffffffffffffffffffff160217905550565b612dac612eaa565b612e1e576040517f08c379a00000000000000000000000000000000000000000000000000000000081526004018080602001828103825260208152602001807f4f776e61626c653a2063616c6c6572206973206e6f7420746865206f776e657281525060200191505060405180910390fd5b600060149054906101000a900460ff1615612e3857600080fd5b6001600060146101000a81548160ff0219169083151502179055507f6985a02210a168e66602d3235cb6db0e70f92b3ba4d376a33c0f3d9434bff62560405160405180910390a1565b60008060009054906101000a900473ffffffffffffffffffffffffffffffffffffffff16905090565b60008060009054906101000a900473ffffffffffffffffffffffffffffffffffffffff1673ffffffffffffffffffffffffffffffffffffffff163373ffffffffffffffffffffffffffffffffffffffff1614905090565b6000808211612f5b576040517f08c379a0000000000000000000000000000000000000000000000000000000008152600401808060200182810382526023815260200180614b6a6023913960400191505060405180910390fd5b60008311612fb4576040517f08c379a0000000000000000000000000000000000000000000000000000000008152600401808060200182810382526022815260200180614b8d6022913960400191505060405180910390fd5b612fbc6149ad565b8681600001819052508581602001819052508481604001819052508381606001818152505082816080018181525050338160c0019073ffffffffffffffffffffffffffffffffffffffff16908173ffffffffffffffffffffffffffffffffffffffff1681525050428160a0018181525050806001896040518082805190602001908083835b602083106130645780518252602082019150602081019050602083039250613041565b6001836020036101000a038019825116818451168082178552505050505050905001915050908152602001604051809103902060008201518160000190805190602001906130b3929190614a00565b5060208201518160010190805190602001906130d0929190614a00565b5060408201518160020190805190602001906130ed929190614a00565b50606082015181600301556080820151816004015560a0820151816005015560c08201518160060160006101000a81548173ffffffffffffffffffffffffffffffffffffffff021916908373ffffffffffffffffffffffffffffffffffffffff1602179055509050507f2930e5bc283fe47c6125a741eb1aa8957500d5246f080d5f160f38303c89c4b833898587604051808573ffffffffffffffffffffffffffffffffffffffff1673ffffffffffffffffffffffffffffffffffffffff16815260200180602001848152602001838152602001828103825285818151815260200191508051906020019080838360005b838110156131f95780820151818401526020810190506131de565b50505050905090810190601f1680156132265780820380516001836020036101000a031916815260200191505b509550505050505060405180910390a160019150509695505050505050565b6060806000806000806000876002896040518082805190602001908083835b602083106132875780518252602082019150602081019050602083039250613264565b6001836020036101000a03801982511681845116808217855250505050505090500191505090815260200160405180910390206000018054600181600116156101000203166002900480601f0160208091040260200160405190810160405280929190818152602001828054600181600116156101000203166002900480156133515780601f1061332657610100808354040283529160200191613351565b820191906000526020600020905b81548152906001019060200180831161333457829003601f168201915b505050505097508896506002896040518082805190602001908083835b60208310613391578051825260208201915060208101905060208303925061336e565b6001836020036101000a03801982511681845116808217855250505050505090500191505090815260200160405180910390206001015495506002896040518082805190602001908083835b6020831061340057805182526020820191506020810190506020830392506133dd565b6001836020036101000a038019825116818451168082178552505050505050905001915050908152602001604051809103902060030160009054906101000a900460ff1694506002896040518082805190602001908083835b6020831061347c5780518252602082019150602081019050602083039250613459565b6001836020036101000a038019825116818451168082178552505050505050905001915050908152602001604051809103902060050160009054906101000a900473ffffffffffffffffffffffffffffffffffffffff1693506002896040518082805190602001908083835b6020831061350b57805182526020820191506020810190506020830392506134e8565b6001836020036101000a03801982511681845116808217855250505050505090500191505090815260200160405180910390206004015492506002896040518082805190602001908083835b6020831061357a5780518252602082019150602081019050602083039250613557565b6001836020036101000a0380198251168184511680821785525050505050509050019150509081526020016040518091039020600201549150878787878787879750975097509750975097509750600073ffffffffffffffffffffffffffffffffffffffff166002826040518082805190602001908083835b6020831061361657805182526020820191506020810190506020830392506135f3565b6001836020036101000a038019825116818451168082178552505050505050905001915050908152602001604051809103902060050160009054906101000a900473ffffffffffffffffffffffffffffffffffffffff1673ffffffffffffffffffffffffffffffffffffffff161415801561374857503373ffffffffffffffffffffffffffffffffffffffff166002826040518082805190602001908083835b602083106136d957805182526020820191506020810190506020830392506136b6565b6001836020036101000a038019825116818451168082178552505050505050905001915050908152602001604051809103902060050160009054906101000a900473ffffffffffffffffffffffffffffffffffffffff1673ffffffffffffffffffffffffffffffffffffffff16145b61379d576040517f08c379a0000000000000000000000000000000000000000000000000000000008152600401808060200182810382526024815260200180614b256024913960400191505060405180910390fd5b50919395979092949650565b6060806060806000806000808897506001896040518082805190602001908083835b602083106137ee57805182526020820191506020810190506020830392506137cb565b6001836020036101000a03801982511681845116808217855250505050505090500191505090815260200160405180910390206000018054600181600116156101000203166002900480601f0160208091040260200160405190810160405280929190818152602001828054600181600116156101000203166002900480156138b85780601f1061388d576101008083540402835291602001916138b8565b820191906000526020600020905b81548152906001019060200180831161389b57829003601f168201915b505050505096506001896040518082805190602001908083835b602083106138f557805182526020820191506020810190506020830392506138d2565b6001836020036101000a03801982511681845116808217855250505050505090500191505090815260200160405180910390206001018054600181600116156101000203166002900480601f0160208091040260200160405190810160405280929190818152602001828054600181600116156101000203166002900480156139bf5780601f10613994576101008083540402835291602001916139bf565b820191906000526020600020905b8154815290600101906020018083116139a257829003601f168201915b505050505095506001896040518082805190602001908083835b602083106139fc57805182526020820191506020810190506020830392506139d9565b6001836020036101000a03801982511681845116808217855250505050505090500191505090815260200160405180910390206003015493506001896040518082805190602001908083835b60208310613a6b5780518252602082019150602081019050602083039250613a48565b6001836020036101000a03801982511681845116808217855250505050505090500191505090815260200160405180910390206002018054600181600116156101000203166002900480601f016020809104026020016040519081016040528092919081815260200182805460018160011615610100020316600290048015613b355780601f10613b0a57610100808354040283529160200191613b35565b820191906000526020600020905b815481529060010190602001808311613b1857829003601f168201915b505050505094506001896040518082805190602001908083835b60208310613b725780518252602082019150602081019050602083039250613b4f565b6001836020036101000a03801982511681845116808217855250505050505090500191505090815260200160405180910390206004015492506001896040518082805190602001908083835b60208310613be15780518252602082019150602081019050602083039250613bbe565b6001836020036101000a038019825116818451168082178552505050505050905001915050908152602001604051809103902060060160009054906101000a900473ffffffffffffffffffffffffffffffffffffffff1691506001896040518082805190602001908083835b60208310613c705780518252602082019150602081019050602083039250613c4d565b6001836020036101000a0380198251168184511680821785525050505050509050019150509081526020016040518091039020600501549050878787878787878797509750975097509750975097509750919395975091939597565b600060606002836040518082805190602001908083835b60208310613d065780518252602082019150602081019050602083039250613ce3565b6001836020036101000a03801982511681845116808217855250505050505090500191505090815260200160405180910390206000018054600181600116156101000203166002900480601f016020809104026020016040519081016040528092919081815260200182805460018160011615610100020316600290048015613dd05780601f10613da557610100808354040283529160200191613dd0565b820191906000526020600020905b815481529060010190602001808311613db357829003601f168201915b505050505090503373ffffffffffffffffffffffffffffffffffffffff166001826040518082805190602001908083835b60208310613e245780518252602082019150602081019050602083039250613e01565b6001836020036101000a038019825116818451168082178552505050505050905001915050908152602001604051809103902060060160009054906101000a900473ffffffffffffffffffffffffffffffffffffffff1673ffffffffffffffffffffffffffffffffffffffff1614613f04576040517f08c379a00000000000000000000000000000000000000000000000000000000081526004018080602001828103825260208152602001807f416374696f6e207265737472696374656420746f2073656c6c6572206f6e6c7981525060200191505060405180910390fd5b6002836040518082805190602001908083835b60208310613f3a5780518252602082019150602081019050602083039250613f17565b6001836020036101000a038019825116818451168082178552505050505050905001915050908152602001604051809103902060020154341015613fe6576040517f08c379a00000000000000000000000000000000000000000000000000000000081526004018080602001828103825260198152602001807f416d6f756e74206c657373207468616e2072657175697265640000000000000081525060200191505060405180910390fd5b60006002846040518082805190602001908083835b6020831061401e5780518252602082019150602081019050602083039250613ffb565b6001836020036101000a038019825116818451168082178552505050505050905001915050908152602001604051809103902060020154116140ab576040517f08c379a0000000000000000000000000000000000000000000000000000000008152600401808060200182810382526032815260200180614acd6032913960400191505060405180910390fd5b6002836040518082805190602001908083835b602083106140e157805182526020820191506020810190506020830392506140be565b6001836020036101000a038019825116818451168082178552505050505050905001915050908152602001604051809103902060050160009054906101000a900473ffffffffffffffffffffffffffffffffffffffff1673ffffffffffffffffffffffffffffffffffffffff166108fc6002856040518082805190602001908083835b602083106141875780518252602082019150602081019050602083039250614164565b6001836020036101000a0380198251168184511680821785525050505050509050019150509081526020016040518091039020600201549081150290604051600060405180830381858888f193505050501580156141e9573d6000803e3d6000fd5b50600061426b6002856040518082805190602001908083835b602083106142255780518252602082019150602081019050602083039250614202565b6001836020036101000a0380198251168184511680821785525050505050509050019150509081526020016040518091039020600201543461476090919063ffffffff16565b9050600081111561434a576001826040518082805190602001908083835b602083106142ac5780518252602082019150602081019050602083039250614289565b6001836020036101000a038019825116818451168082178552505050505050905001915050908152602001604051809103902060060160009054906101000a900473ffffffffffffffffffffffffffffffffffffffff1673ffffffffffffffffffffffffffffffffffffffff166108fc829081150290604051600060405180830381858888f19350505050158015614348573d6000803e3d6000fd5b505b60036002856040518082805190602001908083835b60208310614382578051825260208201915060208101905060208303925061435f565b6001836020036101000a038019825116818451168082178552505050505050905001915050908152602001604051809103902060030160006101000a81548160ff021916908360038111156143d357fe5b02179055507f6f8fca789b82e8249ddb68aac00d7f612d9e62815f01bae84bcb0b44d012b665336002866040518082805190602001908083835b60208310614430578051825260208201915060208101905060208303925061440d565b6001836020036101000a038019825116818451168082178552505050505050905001915050908152602001604051809103902060050160009054906101000a900473ffffffffffffffffffffffffffffffffffffffff1686856002896040518082805190602001908083835b602083106144bf578051825260208201915060208101905060208303925061449c565b6001836020036101000a038019825116818451168082178552505050505050905001915050908152602001604051809103902060020154604051808673ffffffffffffffffffffffffffffffffffffffff1673ffffffffffffffffffffffffffffffffffffffff1681526020018573ffffffffffffffffffffffffffffffffffffffff1673ffffffffffffffffffffffffffffffffffffffff1681526020018060200180602001848152602001838103835286818151815260200191508051906020019080838360005b838110156145a4578082015181840152602081019050614589565b50505050905090810190601f1680156145d15780820380516001836020036101000a031916815260200191505b50838103825285818151815260200191508051906020019080838360005b8381101561460a5780820151818401526020810190506145ef565b50505050905090810190601f1680156146375780820380516001836020036101000a031916815260200191505b5097505050505050505060405180910390a1600192505050919050565b61465c612eaa565b6146ce576040517f08c379a00000000000000000000000000000000000000000000000000000000081526004018080602001828103825260208152602001807f4f776e61626c653a2063616c6c6572206973206e6f7420746865206f776e657281525060200191505060405180910390fd5b6146d7816147e9565b50565b6000808314156146ed576000905061475a565b60008284029050828482816146fe57fe5b0414614755576040517f08c379a0000000000000000000000000000000000000000000000000000000008152600401808060200182810382526021815260200180614b496021913960400191505060405180910390fd5b809150505b92915050565b6000828211156147d8576040517f08c379a000000000000000000000000000000000000000000000000000000000815260040180806020018281038252601e8152602001807f536166654d6174683a207375627472616374696f6e206f766572666c6f77000081525060200191505060405180910390fd5b600082840390508091505092915050565b600073ffffffffffffffffffffffffffffffffffffffff168173ffffffffffffffffffffffffffffffffffffffff16141561486f576040517f08c379a0000000000000000000000000000000000000000000000000000000008152600401808060200182810382526026815260200180614aff6026913960400191505060405180910390fd5b8073ffffffffffffffffffffffffffffffffffffffff166000809054906101000a900473ffffffffffffffffffffffffffffffffffffffff1673ffffffffffffffffffffffffffffffffffffffff167f8be0079c531659141344cd1fd0a4f28419497f9722a3daafe3b4186f6b6457e060405160405180910390a3806000806101000a81548173ffffffffffffffffffffffffffffffffffffffff021916908373ffffffffffffffffffffffffffffffffffffffff16021790555050565b828054600181600116156101000203166002900490600052602060002090601f016020900481019282601f1061496e57805160ff191683800117855561499c565b8280016001018555821561499c579182015b8281111561499b578251825591602001919060010190614980565b5b5090506149a99190614a80565b5090565b6040518060e00160405280606081526020016060815260200160608152602001600081526020016000815260200160008152602001600073ffffffffffffffffffffffffffffffffffffffff1681525090565b828054600181600116156101000203166002900490600052602060002090601f016020900481019282601f10614a4157805160ff1916838001178555614a6f565b82800160010185558215614a6f579182015b82811115614a6e578251825591602001919060010190614a53565b5b509050614a7c9190614a80565b5090565b614aa291905b80821115614a9e576000816000905550600101614a86565b5090565b9056fe73686f756c64206265207468652073656c6c657220746f2070726f6365737320666f7277617264546f74616c20616d6f756e7420746f20726566756e642073686f756c642062652067726561746572207468616e207a65726f4f776e61626c653a206e6577206f776e657220697320746865207a65726f206164647265737373686f756c64206265206120627579657220746f2070726f6365737320666f7277617264536166654d6174683a206d756c7469706c69636174696f6e206f766572666c6f774e756d626572206f66206974656d732073686f756c642062652061746c6561737420315072696365206f66206974656d732063616e6e6f742062652061746c656173742030a165627a7a72305820cef636dc0797cb04822409d7a9188cb2169d2cf8aae8f63f335b6529cdc9f26b0029",
  "source": "pragma solidity ^0.5.0;\n\nimport \"./SafeMath.sol\";\nimport \"./Pausable.sol\";\n\ncontract SalePlace is Pausable{\n\n  using SafeMath for uint;\n\n  struct Item {\n    string name;\n    string image;\n    string description;\n    uint price;\n    uint numberOfItems;\n    uint timestamp;\n    address payable seller;\n  }\n\n  /* Staus Enum used by ItemInvoice ,with 4 states\n    Processing\n    Shipped\n    Received\n    Refunded\n  */\n  enum Status { Processing ,Shipped, Received, Refunded }\n\n  struct ItemInvoice{\n    string itemId;\n    uint numberOfItemsSold;\n    uint amountPaid;\n    Status status;\n    uint timestamp;\n    address payable buyer;\n  }\n\n  mapping (string => Item) private items;\n  mapping (string => ItemInvoice) private itemsSold;\n\n  modifier isSeller(string memory _itemId){\n    _;\n    require(items[_itemId].seller != address(0) && items[_itemId].seller == msg.sender, \"should be the seller to process forward\");\n  }\n\n  modifier isBuyer(string memory _itemId){\n    _;\n    require(itemsSold[_itemId].buyer != address(0) && itemsSold[_itemId].buyer == msg.sender, \"should be a buyer to process forward\");\n  }\n\n  event LogAddItem(address seller, string itemId , uint numberOfItems, uint price);\n  event LogUpdateItem(address seller, string itemId , uint numberOfItems, uint price);\n  event LogBuyItem(address buyer, string invoiceId, uint numberOfItems);\n  event LogShipped(address seller, string invoiceId, string itemId);\n  event LogReceived(address buyer, string invoiceId, string itemId);\n  event LogRefund(address seller, address buyer, string invoiceId, string itemId, uint amountRefunded);\n\n  /// @notice Trade logic called when items are purchased by a user\n  /// @param _itemId id of the item to fetch\n  /// @param _numberOfItems number of the items purchased\n  /// @dev the function will trade amount from buyer to seller , also any left over amount will be transfered to buyer itself\n  modifier trade (string memory _itemId, uint _numberOfItems)  {\n    _;\n    uint totalAmount = _numberOfItems.mul(items[_itemId].price);\n    require(msg.value >= totalAmount, 'Amount less than required');\n\n    uint amountToRefund = msg.value.sub(items[_itemId].price);\n    if(amountToRefund>0){\n      msg.sender.transfer(amountToRefund); // transfer left over to buyer\n    }\n    items[_itemId].seller.transfer(items[_itemId].price); // send the money to seller\n  }\n\n\n  /// @notice Get am item based on item id\n  /// @param _itemId id of the item to fetch\n  /// @return id, name, image , description , price , number of Items left, timestamp and seller address of the item\n  function getItem(string memory _itemId)\n  public\n  view\n  returns (string memory id, string memory name, string memory image, string memory description, uint price, uint numberOfItems, address seller, uint timestamp) {\n    id = _itemId;\n    name = items[_itemId].name;\n    image = items[_itemId].image;\n    price = items[_itemId].price;\n    description = items[_itemId].description;\n    numberOfItems = items[_itemId].numberOfItems;\n    seller = items[_itemId].seller;\n    timestamp = items[_itemId].timestamp;\n    return (id, name, image, description, price, numberOfItems, seller, timestamp);\n  }\n\n  /// @notice Get item purcahsed details of the request user mapping for given item\n  /// @param _invoiceId  invoice id of the item sold to fetch \n  /// @return itemId, invoiceId, number of Items sold , status, timestamp, buyer address & amount paid\n  function getItemSold(string memory _invoiceId)\n  public \n  view \n  isBuyer(_invoiceId)\n  returns (string memory itemId, string memory invoiceId, uint numberOfItemsSold, Status status, address buyer, uint timestamp, uint amountPaid) {\n    itemId = itemsSold[_invoiceId].itemId;\n    invoiceId = _invoiceId;\n    numberOfItemsSold = itemsSold[_invoiceId].numberOfItemsSold;\n    status = itemsSold[_invoiceId].status;\n    buyer = itemsSold[_invoiceId].buyer;\n    timestamp = itemsSold[_invoiceId].timestamp;\n    amountPaid = itemsSold[_invoiceId].amountPaid;\n    return (itemId, invoiceId, numberOfItemsSold, status, buyer, timestamp, amountPaid);\n  }\n\n  /// @notice Add item\n  /// @dev Emits LogAddItem\n  /// @param _itemId id of the item\n  /// @param _name name of the item\n  /// @param _image image url of the item\n  /// @param _description description of the item\n  /// @param _price price of the item\n  /// @param _numberOfItems number of the item to sell\n  /// @return true if item is created\n  function addItem(string memory _itemId,string memory _name, string memory _image, string memory _description, uint _price, uint _numberOfItems)\n  public\n  returns(bool){\n    require(_numberOfItems>0, 'Number of items should be atleast 1');\n    require(_price>0, 'Price of items cannot be atleast 0');\n    Item memory newItem;\n    newItem.name = _name;\n    newItem.image = _image;\n    newItem.description = _description;\n    newItem.price = _price;\n    newItem.numberOfItems = _numberOfItems;\n    newItem.seller = msg.sender;\n    newItem.timestamp = now;\n    items[_itemId] = newItem;\n    emit LogAddItem(msg.sender, _itemId, _numberOfItems, _price);\n    return true;\n  }\n\n  /// @notice Update item\n  /// @dev Emits LogUpdateItem\n  /// @dev Need to be seller of the item to update\n  /// @param _itemId id of the item\n  /// @param _name name of the item\n  /// @param _image image url of the item\n  /// @param _description description of the item\n  /// @param _price price of the item\n  /// @param _numberOfItems number of the item to sell\n  /// @return true if item is udpated\n  function updateItem(string memory _itemId, string memory _name, string memory _image, string memory _description, uint _price, uint _numberOfItems)\n  public\n  isSeller(_itemId)\n  returns(bool){\n    require(_numberOfItems>0, 'Number of items should be atleast 1');\n    require(_price>0, 'Price of items cannot be atleast 0');\n    items[_itemId].name = _name;\n    items[_itemId].image = _image;\n    items[_itemId].description = _description;\n    items[_itemId].price = _price;\n    items[_itemId].numberOfItems = _numberOfItems;\n    emit LogUpdateItem(msg.sender, _itemId, _numberOfItems, _price);\n    return true;\n  }\n\n  /// @notice Function to buy items\n  /// @dev Emits LogBuyItem\n  /// @dev Amount paid more than required will be refunded\n  /// @param _itemId id of the item\n  /// @param _invoiceId id of the invoice item sold\n  /// @param _numberOfItems number of the item to buy\n  /// @return true if items are bought\n  function buyItem(string memory _itemId, string memory _invoiceId, uint _numberOfItems)\n  public\n  payable\n  trade(_itemId,_numberOfItems)\n  returns(bool){\n    require(_numberOfItems>0, 'Number of items should be atleast 1');\n    require(items[_itemId].numberOfItems - _numberOfItems >= 0, 'Out of stock');\n\n    itemsSold[_invoiceId].status = Status.Processing;\n    itemsSold[_invoiceId].numberOfItemsSold = _numberOfItems;\n    itemsSold[_invoiceId].buyer = msg.sender;\n    itemsSold[_invoiceId].timestamp = now;\n    itemsSold[_invoiceId].itemId = _itemId;\n    itemsSold[_invoiceId].amountPaid = _numberOfItems.mul(items[_itemId].price);\n\n    items[_itemId].numberOfItems = items[_itemId].numberOfItems.sub(1);\n\n    emit LogBuyItem(msg.sender, _itemId, _numberOfItems);\n\n    return true;\n  }\n\n  /// @notice Function called by seller to set item status to shipped\n  /// @dev Emits LogShipped\n  /// @dev Needs to be seller of the itemto access the function\n  /// @param _invoiceId id of the invoice id of item sold\n  /// @return true if items is udpated to shipped status\n  function shipItem(string memory _invoiceId)\n  public\n  returns(bool){\n    require(itemsSold[_invoiceId].status == Status.Processing, 'Item already shipped');\n    require(items[itemsSold[_invoiceId].itemId].seller == msg.sender, 'Action restricted to seller only');\n    itemsSold[_invoiceId].status = Status.Shipped;\n    emit LogShipped(msg.sender, _invoiceId, itemsSold[_invoiceId].itemId);\n    return true;\n  }\n\n  /// @notice Function called by buyer to set item status to received\n  /// @dev Emits LogReceived\n  /// @dev Needs to be buyer of the item to access the function\n  /// @param _invoiceId id of the invoice id of item sold\n  /// @return true if items is udpated to received status\n  function receiveItem(string memory _invoiceId)\n  public\n  isBuyer(_invoiceId)\n  returns(bool){\n    require(itemsSold[_invoiceId].status == Status.Shipped , 'Item not yet shipped');\n    require(itemsSold[_invoiceId].buyer == msg.sender, 'Action restricted to buyer only');\n    itemsSold[_invoiceId].status = Status.Received;\n    emit LogReceived(msg.sender, _invoiceId, itemsSold[_invoiceId].itemId);\n    return true;\n  }\n\n  /// @notice Function called by seller to refund for the item\n  /// @dev Emits LogRefund\n  /// @dev Needs to be seller of the item to access the function\n  /// @dev Amount is transfered from seller account to buyer account , any left over paid will transfered to the seller itself\n  /// @param _invoiceId id of the invoice id of item sold\n  /// @return true if refund is successfull\n  function refundItem(string memory _invoiceId)\n  public\n  payable\n  returns(bool){\n    string memory itemId = itemsSold[_invoiceId].itemId;\n    require(items[itemId].seller == msg.sender, 'Action restricted to seller only');\n\n    require(msg.value >= itemsSold[_invoiceId].amountPaid, 'Amount less than required');\n    require(itemsSold[_invoiceId].amountPaid > 0, 'Total amount to refund should be greater than zero');\n\n    itemsSold[_invoiceId].buyer.transfer(itemsSold[_invoiceId].amountPaid); // transfer to buyer\n\n    uint amountLeftOver = msg.value.sub(itemsSold[_invoiceId].amountPaid);\n    \n    if(amountLeftOver>0){\n      items[itemId].seller.transfer(amountLeftOver); // transfer any left over to seller\n    }\n    itemsSold[_invoiceId].status = Status.Refunded;\n    \n    emit LogRefund(msg.sender, itemsSold[_invoiceId].buyer, _invoiceId, itemId, itemsSold[_invoiceId].amountPaid);\n    return true;\n  }\n}",
  "sourcePath": "/home/qbuser/Desktop/Projects/temp/salePlace/contracts/SalePlace.sol",
  "compiler": {
    "name": "solc",
    "version": "0.5.8+commit.23d335f2.Emscripten.clang"
  },
  "schemaVersion": "3.0.11",
  "updatedAt": "2019-07-25T19:22:16.562Z",
  "devdoc": {
    "methods": {
      "addItem(string,string,string,string,uint256,uint256)": {
        "details": "Emits LogAddItem",
        "params": {
          "_description": "description of the item",
          "_image": "image url of the item",
          "_itemId": "id of the item",
          "_name": "name of the item",
          "_numberOfItems": "number of the item to sell",
          "_price": "price of the item"
        },
        "return": "true if item is created"
      },
      "buyItem(string,string,uint256)": {
        "details": "Emits LogBuyItemAmount paid more than required will be refunded",
        "params": {
          "_invoiceId": "id of the invoice item sold",
          "_itemId": "id of the item",
          "_numberOfItems": "number of the item to buy"
        },
        "return": "true if items are bought"
      },
      "getItem(string)": {
        "params": {
          "_itemId": "id of the item to fetch"
        },
        "return": "id, name, image , description , price , number of Items left, timestamp and seller address of the item"
      },
      "getItemSold(string)": {
        "params": {
          "_invoiceId": "invoice id of the item sold to fetch "
        },
        "return": "itemId, invoiceId, number of Items sold , status, timestamp, buyer address & amount paid"
      },
      "isOwner()": {
        "details": "Returns true if the caller is the current owner."
      },
      "owner()": {
        "details": "Returns the address of the current owner."
      },
      "pause()": {
        "details": "called by the owner to pause, triggers stopped state"
      },
      "receiveItem(string)": {
        "details": "Emits LogReceivedNeeds to be buyer of the item to access the function",
        "params": {
          "_invoiceId": "id of the invoice id of item sold"
        },
        "return": "true if items is udpated to received status"
      },
      "refundItem(string)": {
        "details": "Emits LogRefundNeeds to be seller of the item to access the functionAmount is transfered from seller account to buyer account , any left over paid will transfered to the seller itself",
        "params": {
          "_invoiceId": "id of the invoice id of item sold"
        },
        "return": "true if refund is successfull"
      },
      "renounceOwnership()": {
        "details": "Leaves the contract without owner. It will not be possible to call `onlyOwner` functions anymore. Can only be called by the current owner.     * NOTE: Renouncing ownership will leave the contract without an owner, thereby removing any functionality that is only available to the owner."
      },
      "shipItem(string)": {
        "details": "Emits LogShippedNeeds to be seller of the itemto access the function",
        "params": {
          "_invoiceId": "id of the invoice id of item sold"
        },
        "return": "true if items is udpated to shipped status"
      },
      "transferOwnership(address)": {
        "details": "Transfers ownership of the contract to a new account (`newOwner`). Can only be called by the current owner."
      },
      "unpause()": {
        "details": "called by the owner to unpause, returns to normal state"
      },
      "updateItem(string,string,string,string,uint256,uint256)": {
        "details": "Emits LogUpdateItemNeed to be seller of the item to update",
        "params": {
          "_description": "description of the item",
          "_image": "image url of the item",
          "_itemId": "id of the item",
          "_name": "name of the item",
          "_numberOfItems": "number of the item to sell",
          "_price": "price of the item"
        },
        "return": "true if item is udpated"
      }
    }
  },
  "userdoc": {
    "methods": {
      "addItem(string,string,string,string,uint256,uint256)": {
        "notice": "Add item"
      },
      "buyItem(string,string,uint256)": {
        "notice": "Function to buy items"
      },
      "getItem(string)": {
        "notice": "Get am item based on item id"
      },
      "getItemSold(string)": {
        "notice": "Get item purcahsed details of the request user mapping for given item"
      },
      "receiveItem(string)": {
        "notice": "Function called by buyer to set item status to received"
      },
      "refundItem(string)": {
        "notice": "Function called by seller to refund for the item"
      },
      "shipItem(string)": {
        "notice": "Function called by seller to set item status to shipped"
      },
      "updateItem(string,string,string,string,uint256,uint256)": {
        "notice": "Update item"
      }
    }
  }
}